:020000021000EC
:10F0000000000120BDC80200E5C80200E7C80200F8
:10F01000E9C80200EBC80200EDC8020000000000D1
:10F02000000000000000000000000000EFC8020027
:10F03000F1C8020000000000F3C80200F5C8020099
:10F04000412F0200F7C80200ED400200F7C802009D
:10F05000F7C80200F7C8020089380200F7C80200AA
:10F06000F7C80200F7C80200F7C80200F7C802009C
:10F07000F7C80200F7C80200F7C80200F7C802008C
:10F08000F7C8020089030200F7C80200F7C80200AF
:10F09000C9030200F7C8020029E20200F7C8020013
:10F0A000F7C80200F7C80200F7C80200F7C802005C
:10F0B000F7C80200F7C802000000000000000000CE
:10F0C000F7C80200F7C80200F7C80200F7C802003C
:10F0D000F7C80200F7C80200F7C8020000000000ED
:10F0E0000000000000000000000000000000000020
:10F0F0000000000000000000000000000000000010
:10F1000000000000000000000000000000000000FF
:10F1100000000000000000000000000000000000EF
:10F4000010B5054C237833B9044B13B10448AFF35E
:10F4100000800123237010BDCC21002000000000DB
:10F420004CE40200084B10B51BB108490848AFF383
:10F4300000800848036803B910BD074B002BFBD0C0
:10F44000BDE81040184700BF00000000D021002098
:10F450004CE40200B821002000000000154B002BF6
:10F4600008BF134B9D46A3F5803A00218B460F46FB
:10F470001348144A121A00F065F80F4B002B00D005
:10F4800098470E4B002B00D0984700200021040025
:10F490000D000D48002802D00C48AFF3008000F0AA
:10F4A0002BF82000290006F0F5FB00F011F800BF52
:10F4B0000000080000000120000000000000000023
:10F4C000CC210020282D00200000000000000000BA
:10F4D00008B5074B044613B10021AFF30080054B7C
:10F4E0001868836A03B19847204600F033F800BFDC
:10F4F0000000000078E3020070B50E4B0E4CE41AD9
:10F50000A41000251E46A54204D056F82530984781
:10F510000135F8E70EF024FF084C094BE41AA4105B
:10F5200000251E46A54204D056F8253098470135DF
:10F53000F8E770BDB0210020B0210020B4210020E8
:10F54000B021002002440346934202D003F8011B7D
:10F55000FAE77047FEE700BF80B588B000AF78607B
:10F560000023FB774BE02A4B1A68FB7FDB00134438
:10F57000BB61BB691B781A46012393407B61254B15
:10F580001A687B691340002B36D07B69DA43214B24
:10F590001B6813401F4A1360BB691B78184604F0B0
:10F5A00061F90346FB74BB691B781A46012393403B
:10F5B0001A46194B1B681340FA7CB96909788A40CE
:10F5C000934219D1FB7CBA695278012A0CBF0122FF
:10F5D0000022D2B293420CBF01230023DBB2FB60B6
:10F5E000BB695B68002B07D0BB695B68BA6912789E
:10F5F000F968C9B210469847FB7F0133FB77074B88
:10F600001B78FA7F9A42AED300BF2037BD4680BD3B
:10F61000E82100201822002014220020EC210020E4
:10F6200080B584B000AF78600B46FB7001227B6828
:10F6300002FA03F3FB601E4B184600F089FFB86026
:10F64000BB68002B30D11B4B1A68FB681340002BA2
:10F6500022D1786804F006F90346002B06D0164B39
:10F660001A68FB681343144A136006E0FB68DA4328
:10F67000114B1B681340104A13600E4B1A68FB684D
:10F6800013430C4A13600A480C4B1B6800221946AE
:10F6900000F02AFFB86008E0FB68DA43054B1B68FE
:10F6A0001340044A136000E000BF1037BD4680BD20
:10F6B000F42100201822002014220020F021002034
:10F6C00080B588B000AFF8600B467A60FB727B684B
:10F6D000042B01D8072349E003F0ECFF034683F035
:10F6E0000103DBB2002B07D003F0A8FFF861FB6930
:10F6F000002B01D0FB6939E01E4AFB6813601E4AEB
:10F70000FB7A13701D4A7B6813601D4B00221A6040
:10F710001C4B00221A601EE0FB7ADB00FA681344DF
:10F72000BB6103233B7500237B750023BB7500235E
:10F73000FB75BB699B787B75BB691B78184607F125
:10F740001403114A194603F0C7FFF861FB69002B47
:10F7500001D0FB690AE0FB7A5A1EFA72002BDBD15A
:10F760000A4A00210A4800F08BFE0346184620375B
:10F77000BD4680BDE8210020EC210020F0210020C2
:10F78000142200201822002021F6010059F5010062
:10F790007CE3020080B582B000AF00237B600CE008
:10F7A0000B4B1A687B68DB0013441B780121184659
:10F7B00003F0ECFF7B6801337B60064B1B781A4635
:10F7C0007B689A42ECD8002318460837BD4680BDB6
:10F7D000E8210020EC21002080B586B000AF7860E1
:10F7E0000023BB8100233B617B687B6107F10C0335
:10F7F0001A46002144F2010000F018F800BF183743
:10F80000BD4680BD80B400AFBFF34F8F0549054BA7
:10F81000DB6803F4E062044B1343CB60BFF34F8F0C
:10F8200000BFFDE700ED00E00400FA0580B584B0FC
:10F8300000AFF860B9607A60FFF7E4FF00BF1037EF
:10F84000BD4680BD80B483B000AF0346FB7109495B
:10F8500097F907305B09FA7902F01F02012000FADC
:10F8600002F241F8232000BF0C37BD465DF8047B4F
:10F87000704700BF00E100E080B483B000AF0346F2
:10F88000FB71094997F907305B09FA7902F01F0209
:10F89000012000FA02F2203341F8232000BF0C3788
:10F8A000BD465DF8047B704700E100E080B483B0A2
:10F8B00000AF0346FB71094997F907305B09FA79F4
:10F8C00002F01F02012000FA02F2403341F8232027
:10F8D00000BF0C37BD465DF8047B704700E100E0D7
:10F8E00080B483B000AF0346FB71094997F9073034
:10F8F0005B09FA7902F01F02012000FA02F260337C
:10F9000041F8232000BF0C37BD465DF8047B7047EB
:10F9100000E100E080B483B000AF03463960FB71C2
:10F9200097F90730002B0BDA0D49FB7903F00F0331
:10F93000043B3A68D2B25201D2B20B441A7609E0C3
:10F94000084997F907303A68D2B25201D2B20B4453
:10F9500083F8002300BF0C37BD465DF8047B704779
:10F9600000ED00E000E100E080B483B000AF78601B
:10F970007B6803F00303002B0CBF01230023DBB2E1
:10F9800018460C37BD465DF8047B704780B485B0DF
:10F9900000AF7860254BFB607B68002B40D0244B88
:10F9A0001A68F9687B6800BF00BF00BF00BF00BFD6
:10F9B00000BF00BF00BF8A422FD000BF00BF00BF02
:10F9C00000BF00BF00BF00BF00BF00BF00BF00BF3F
:10F9D00000BF00BF00BF00BF00BF00BF00BF00BF2F
:10F9E00000BF00BF00BF00BF00BF00BF00BF00BF1F
:10F9F00000BF00BF00BF00BF00BF00BF00BF00BF0F
:10FA000000BF00BF00BF00BF00BF00BF00BF00BFFE
:10FA100000BF00BF00BF00BF00BF013BC3D17B6080
:10FA200000BF1437BD465DF8047B70470024F40026
:10FA3000AC21002080B582B000AF7860054A7B68B9
:10FA4000C2F8083506211120FFF764FF00BF083710
:10FA5000BD4680BD0010014080B500AF0D4B4FF496
:10FA60008032C3F844230B4B4FF48032C3F8042395
:10FA70001120FFF735FF1120FFF7E4FE054B0122AF
:10FA80001A602F20FFF782FF034B01221A7000BF7C
:10FA900080BD00BF001001403C22002080B500AFB7
:10FAA0001120FFF7E9FE0F4B4FF48032C3F84823D3
:10FAB0000C4B4FF48032C3F808230A4B01225A60E2
:10FAC0002F20FFF763FF074B01229A60064B0022AD
:10FAD0001A602F20FFF75AFF044B00221A7000BF54
:10FAE00080BD00BF00100140282200203C220020E1
:10FAF00080B400AF034BD3F804351846BD465DF81B
:10FB0000047B70470010014080B483B000AF786080
:10FB100039607A683B68D31A23F07F4318460C3764
:10FB2000BD465DF8047B704780B483B000AF786059
:10FB3000044A7B68C2F8403500BF0C37BD465DF80B
:10FB4000047B70470010014080B487B000AF78603C
:10FB5000294B1B68002B03D1274A7B68136045E0C3
:10FB60007B681A68244B1B681B689A4210D8224B8A
:10FB70001B68214A126811687A6812688A1A1A602A
:10FB80001D4B1A687B68DA611B4A7B6813602DE0A5
:10FB90007B681B68FB60184B1B687B61164B1B68FE
:10FBA0003B6109E03B691B68FA68D31AFB603B695B
:10FBB0007B613B69DB693B613B69002B04D03B699E
:10FBC0001A68FB689A42EDD33B69002B05D03B696C
:10FBD0001A68FB68D21A3B691A607B68FA681A6077
:10FBE0007B683A69DA617B697A68DA6100BF1C3741
:10FBF000BD465DF8047B70472422002080B487B0A6
:10FC000000AF7860234B1B687B617B693B6108E038
:10FC10003A697B689A4208D03B697B613B69DB6942
:10FC20003B613B69002BF3D100E000BF3B69002B37
:10FC300029D07A693B699A4211D1164B1B68DB695E
:10FC4000144A1360134B1B68002B08D1124B01227E
:10FC50009A60124B00221A60114B01221A703B6904
:10FC60001B68FB603B69DA697B69DA617B69DB6988
:10FC70003B613B69002B07D03B691A68FB681A445B
:10FC80003B691A6000E000BF1C37BD465DF8047B8D
:10FC9000704700BF242200200010014028220020CD
:10FCA0003D22002080B500AF1120FFF7FFFD00BF0F
:10FCB00080BD00BF80B500AF1420FFF7F7FD00BF87
:10FCC00080BD00BF80B584B000AF78600F4B1B686B
:10FCD000002B11D00D4B1B687A6850697A689269C5
:10FCE00011469847F860FB68BB60BB68002B09D0E1
:10FCF000B868FFF771FD05E07B685B697A68926917
:10FD00001046984700BF1037BD4680BD38220020FE
:10FD100080B584B000AF2B4B1B68002B4ED0002366
:10FD20007B60FFF7E5FE0246274B1B68194610462D
:10FD3000FFF7EAFEB860234B1B68FB601DE0FB6821
:10FD40001A68BB689A421CD8FB681B68BA68D31A49
:10FD5000BB60FB681B687A6813447B60FB683B6090
:10FD6000FB68DB69FB603B681B7C002B05D03B68B4
:10FD700000221A743868FFF7A5FFFB68002BDED15C
:10FD800000E000BF114B1A78114B1B789A420CD13E
:10FD90000F4B1B780133DAB20D4B1A700C4B1B78EA
:10FDA000022B02D10A4B00221A70094B1B7819460C
:10FDB000084A7B6842F82130FFF77CFF00BF10370C
:10FDC000BD4680BD242200202822002034220020AD
:10FDD000352200202C22002080B483B000AF786050
:10FDE000194B1A78194B1B789A4223D0164B1B7863
:10FDF0000133DAB2144B1A70134B1B78022B02D169
:10FE0000114B00221A70104B1B781A46104B53F8F6
:10FE100022207B681A607B681A680E4B1B681344AB
:10FE20000C4A13600B4B1B6823F07F43094A136095
:10FE3000012303E07B6800221A60002318460C3778
:10FE4000BD465DF8047B7047342200203522002037
:10FE50002C2200202822002080B584B000AF244B43
:10FE60001B78FB73234B1B68BB602FE0204B59684A
:10FE7000FA7B13465B001344DB000B447B60FB7B87
:10FE80000133FB731A4B9B78FA7B9A4201D1002312
:10FE9000FB737B681B78022B02D0032B10D014E07D
:10FEA0007B685B681846FFF7A9FE0FE0114B1B68E3
:10FEB0003B603B6800221A743B68DB690D4A1360A3
:10FEC0000C4B1B68002BF1D100E000BF084B5B78A6
:10FED000FA7B9A42CAD1074B1A68BB689A4214BF90
:10FEE00001230023DBB218461037BD4680BD00BF9A
:10FEF0001C2200202422002080B489B000AFF860CA
:10FF0000B9607A600023FB6138E0214B1B68BB615C
:10FF1000BB691A68FB689A4206D9BB691A68FB6814
:10FF2000D21ABB691A602DE0BB691B68FA68D31A44
:10FF3000FB60BB691B68FA691344FB61BB69002263
:10FF40001A60134B1B687B61BB69DB69104A136045
:10FF5000BB69DB68002B11D0BA68FB69134423F03E
:10FF60007F42BB695A60BB69DA68BB699A607B688B
:10FF70001A68BB69DA617B687A691A60044B1B688E
:10FF8000002BC2D100BF2437BD465DF8047B70470B
:10FF90002422002080B586B000AF7860504B1B68EB
:10FFA0003B6185E07B68002B05D07B687B617B69CA
:10FFB000DB697B603CE04B4B5A684A4B1B78194627
:10FFC0000B465B000B44DB001344FB60454B1B7886
:10FFD0000133DAB2434B1A70424B1A78414B9B788B
:10FFE0009A4202D13F4B00221A70FB685B687B612A
:10FFF000FB681B78012B5BD17B691B7C002B00D03D
:020000022000DC
:1000000056E0FB689A687B695A60FB68DA687B692E
:100010009A60FB681A697B69DA60FB685A697B69D8
:100020009A61314B1B78002B02D07B6900225A6009
:100030007B695A682D4B1B68D31A23F07F432C4AE7
:1000400093420ED87B695A68284B1B6819461046A4
:10005000FFF75AFD02467B699B681A447B691A6068
:1000600017E0224B1A687B695B6819461046FFF758
:100070004BFDB8607B699A68BB689A4206D97B6978
:100080009A68BB68D21A7B691A6002E07B69002219
:100090001A607B6900225A607B6900229A607B6942
:1000A00001221A747B690022DA617869FFF74CFD3E
:1000B0007B68002B7FF476AF0A4B1A78094B5B788C
:1000C0009A427FF46FAF064B1A683B699A4214BF9D
:1000D00001230023DBB218461837BD4680BD00BFA0
:1000E000242200201C2200203D2200202822002063
:1000F000FEFF7F0090B589B000AF7860274B1B688A
:10010000002B44D0254B1B681B68FB61FFF7F0FCFC
:10011000B861234B1B687B617969B869FFF7F4FC10
:10012000034603333B611F4B1B7883F00103DBB2B3
:10013000002B01D0FFF790FC3A69FB69934238BF6E
:1001400013467A6913447B617B6923F07F437B61AB
:100150007869FFF7E9FCFFF7CBFCF860B969F8684C
:10016000FFF7D2FC0346DC1CB9697869FFF7CCFCC9
:1001700003469C420DD9FFF7BBFC03461846FFF728
:10018000D3FC2F20FFF702FCFFF78CFD01E0FFF707
:1001900085FC00BF2437BD4690BD00BF242200204F
:1001A000282200203C22002080B586B000AF00232A
:1001B0007B60184B1B683B61174B1B68FB603B4621
:1001C0001846FFF709FE0346FB72FFF745FE03469C
:1001D000FB75FB7A002B07D03B683A1D396918463E
:1001E000FFF78AFE0123FB757B681846FFF7D2FEF6
:1001F0000346002B01D00123FB75FB7D002B02D0B1
:10020000F868FFF777FF054B00221A7000BF183718
:10021000BD4680BD28220020242200203D2200204F
:1002200080B483B000AF0346FB71044AFB7953707E
:1002300000BF0C37BD465DF8047B70471C220020D0
:1002400080B485B000AF7860134B5B780133FB73EB
:10025000114B9B78FA7B9A4201D10023FB730E4B22
:100260001B78FA7B9A4201D100230EE07B68FA7B6F
:100270001A70094B5A68084B5B7819460B465B00AD
:100280000B44DB001344BB60BB6818461437BD4603
:100290005DF8047B704700BF1C22002080B588B049
:1002A00000AFF860B9607A603B600023FB61002317
:1002B000BB7507F11603184600F0E8F907F11703BC
:1002C0001846FFF7BDFFB861BB69002B02D10423BC
:1002D000FB6117E0BB6901221A70BB69FA685A60BA
:1002E000FFF706FC0246BB699A60BB69BA68DA6030
:1002F000BB697A681A61BB693A685A61FB7D184626
:10030000FFF78EFFBB7D184600F0CCF9FB69002B90
:1003100001D1FFF7CFFCFB6918462037BD4680BDF1
:1003200080B586B000AF78600B46FB7000237B6120
:100330000023BB7307F10E03184600F0A7F907F17D
:100340000F031846FFF77CFF38613B69002B02D191
:1003500004237B6109E03B69FA781A703B697A688B
:100360005A60FB7B1846FFF75BFFBB7B184600F02B
:1003700099F97B69002B01D1FFF79CFC7B6918463A
:100380001837BD4680BD00BF80B500AF0D4B0022C1
:10039000C3F840210B4B0022C3F84421094B002233
:1003A000C3F84821074B0022C3F84C21054B00221B
:1003B000C3F80021034B0022C3F80421FFF7A8FC77
:1003C00000BF80BD0010014080B500AFFFF7ECFE1C
:1003D00000BF80BD80B584B000AFF8607A603B603C
:1003E0000B46FB727868FFF7BFFA034683F0010300
:1003F000DBB2002B01D0072331E07B68002B01D159
:1004000007232CE0FFF74AFB174A3B681360174BA2
:1004100000221A70154B00225A70144AFB7A93700E
:10042000124A7B685360124B00221A60114B002263
:100430001A70114B00221A701420FFF751FA06218E
:100440001420FFF767FA1420FFF7FCF9F868FFF7AC
:10045000F1FAFFF74DFB0246084B1A6000231846DD
:100460001037BD4680BD00BF382200201C2200206E
:1004700024220020342200203522002028220020BF
:1004800080B487B000AFF8600B467A60FB72154B02
:100490005B68002B01D108231DE07B68002B01D194
:1004A000072318E0FB68002B01D1072313E0FB684A
:1004B0001B681B7C002B01D008230CE0FB681B6829
:1004C0007B617B6900221A747B69FA7A5A747B69B2
:1004D0007A685A61002318461C37BD465DF8047BD4
:1004E000704700BF1C22002080B586B000AFF860C6
:1004F000B9607A60FB687B61144B5B68002B01D1AB
:1005000008231EE0FB68002B01D1082319E0BB681B
:10051000042B01D8072314E07B695B69002B01D110
:1005200008230EE07B695B7C012B01D1BB6800E0F6
:1005300000233B617B683A69B9687869FFF7AEFED2
:10054000034618461837BD4680BD00BF1C22002058
:1005500080B584B000AF78607B68FB600D4B5B6852
:10056000002B01D1082310E07B68002B03D0FB682F
:100570005B69002B01D1082307E0FB6800221A7495
:100580000221F868FFF7CCFE034618461037BD4637
:1005900080BD00BF1C22002080B483B000AFEFF309
:1005A00010833B603B687B6072B67B6818460C37F3
:1005B000BD465DF8047B704780B400AF62B600BFF3
:1005C000BD465DF8047B704780B584B000AF7860AD
:1005D000FFF7E2FFF860164B9B68002B1BD1144B12
:1005E00001229A60134BD3F88020134B1340104A1A
:1005F0001360104B104AC3F880200E4BD3F88430A0
:100600000B4A53600B4B4FF0FF32C3F884207B68DA
:1006100000221A7002E07B6801221A70FB68002B2E
:1006200001D1FFF7C9FF002318461037BD4680BD32
:100630001C2D002000E100E0FC06FFBC80B584B06A
:1006400000AF0346FB710F4B9B68002B15D0FB7965
:10065000002B12D1FFF7A0FFF8600B4A094B1B6873
:100660001360094A074B5B685360064B00229A608F
:10067000FB68002B01D1FFF79FFF002318461037BE
:10068000BD4680BD1C2D002000E100E080B582B099
:1006900000AF78607868FFF797FF00BF0837BD4666
:1006A00080BD00BF80B582B000AF0346FB71FB790F
:1006B0001846FFF7C3FF00BF0837BD4680BD00BF27
:1006C00080B483B000AF78607B6803F00303002B35
:1006D0000CBF01230023DBB218460C37BD465DF882
:1006E000047B704780B483B000AF0346FB71064BB8
:1006F0001A78FB791343DAB2034B1A7000BF0C3738
:10070000BD465DF8047B70473E22002080B483B074
:1007100000AF0346FB7197F90730DB435AB2074B32
:100720001B785BB213405BB2DAB2044B1A7000BFA5
:100730000C37BD465DF8047B704700BF3E220020A9
:1007400080B483B000AF0346FB71084B1A78FB7985
:100750001340DBB2002B14BF01230023DBB2184689
:100760000C37BD465DF8047B704700BF3E22002079
:1007700080B584B000AF78600023FB600EE00B4AC8
:10078000FB6852F82330002B05D0084AFB6852F86A
:10079000233078689847FB680133FB60FB68072BC0
:1007A000EDD900BF1037BD4680BD00BF40220020FC
:1007B00080B483B000AF786039607B681B78013B00
:1007C000052B5BD801A252F823F000BFE507020019
:1007D000ED0702000D0802003F0802005F0802005A
:1007E000750802003B6800221A7048E03B6801224D
:1007F0001A707B681A893B689A817B689A883B6883
:10080000DA817B68DA683B689A6038E03B680222EC
:100810001A707B681A893B689A817B689A883B6862
:10082000DA817B68DA683B689A607B681B7C062B00
:100830000CBF01230023DAB23B681A741FE03B6847
:1008400003221A707B68DA883B689A817B681A8970
:100850003B68DA817B68DA683B689A600FE03B6846
:1008600004221A707B68DA883B689A813B68002210
:10087000DA8104E03B6805221A7000E000BF00BF87
:100880000C37BD465DF8047B704700BF80B483B071
:1008900000AF78607B689B884FF6FF72934205D06B
:1008A0007B681B88002B01D0012300E0002303F0AC
:1008B0000103DBB218460C37BD465DF8047B704778
:1008C00080B582B000AF78607B68002B11D00D4BF3
:1008D0001A687B689A420CD80A4B5A687B689A421D
:1008E00007D37868FFF7ECFE0346002B01D0012305
:1008F00000E0002303F00103DBB218460837BD46D1
:1009000080BD00BFBC21002080B584B000AF7860FE
:1009100039600023FB6012E0FB68DB007A68134457
:100920001B681846FFF7CCFE034683F00103DBB2D9
:10093000002B01D0002307E0FB680133FB60FA685D
:100940003B689A42E8D3012318461037BD4680BD64
:1009500080B483B000AF78607B681B680C4A934218
:1009600001D003230DE07B6804331B68094A9342DE
:1009700004D0094A934203D1012302E0002300E09E
:10098000032318460C37BD465DF8047B704700BF53
:10099000DEC0ADDEFE011EF1FF011EF180B485B0A8
:1009A00000AF78600023FB600CE0FB689B007A6876
:1009B00013441B68B3F1FF3F01D0002307E0FB683D
:1009C0000133FB60FB68B3F5806FEED3012318465B
:1009D0001437BD465DF8047B704700BF80B483B018
:1009E00000AF03460A46FB801346BB80FB880F4AD4
:1009F0001B01134408331A88BB881344BB80FB884F
:100A00000A4A1B0113440A331A88BB881344BB806B
:100A1000BB8840F2FF32934294BF01230023DBB234
:100A200018460C37BD465DF8047B70472423002030
:100A300080B485B000AF786039600A23FB60002382
:100A40007B811CE07B89134A1B01134404331A6821
:100A50003B689A4210D27B890E4A1B01134404332F
:100A60001B6803F580523B689A4205D90023FB605E
:100A70007B687A891A8005E07B8901337B817B89D9
:100A8000012BDFD9FB6818461437BD465DF8047B9F
:100A9000704700BF2423002080B588B000AFF86005
:100AA000B9607A60FB6803F58053BB610023FB7774
:100AB000FB680833FB60BB6802221A8028E0FB68F1
:100AC0007B617869FFF7E2FE034683F00103DBB246
:100AD000002B02D00123FB7709E07B699A68164B53
:100AE0001B689A4203D97B699B68134A13607B6930
:100AF0005B8803339B00FA681344FB60BB681A8869
:100B00007B695B8813449BB203339AB2BB681A803B
:100B1000FA68BB699A4204D2FB681B68B3F1FF3FD5
:100B2000CDD17B68002B02D07B68FA7F1A7000BFA2
:100B30002037BD4680BD00BF6022002080B483B056
:100B400000AF78600B467B807B681A897B881344F2
:100B50009BB203339AB27B681A817B685A897B887F
:100B6000D31A9BB2033B9AB27B685A8100BF0C3701
:100B7000BD465DF8047B704780B582B002AF064B7E
:100B80001968002300930223044A054801F054FE2B
:100B900003461846BD4680BD4423002084E302007E
:100BA000BC21002080B584B002AF786000230093A0
:100BB0000223054A7968054801F03EFE03461846BF
:100BC0000837BD4680BD00BF8CE30200BC21002079
:100BD00080B584B000AF03463960FB800023FB730F
:100BE000FB8803337B817B8940F2FD32934201D93C
:100BF000092334E00023BB8128E0BB891A4A1B018A
:100C000013441B78002B1ED17A89BB8911461846E4
:100C1000FFF7E4FE0346002B15D00123FB733B686E
:100C2000BA891A80BB89BA890F4912010A440A326B
:100C300011887A890A4491B20B4A1B0113440A3382
:100C40000A461A8005E0BB890133BB81BB89012BB1
:100C5000D3D9FB7B002B01D0002300E007231846EB
:100C60001037BD4680BD00BF2423002080B483B070
:100C700000AF03460A46FB801346BB80BB88BA8898
:100C80000A4912010A440A321188FA888A1A92B271
:100C9000033A91B2054A1B0113440A330A461A80EB
:100CA00000BF0C37BD465DF8047B7047242300204D
:100CB00080B400AF054B1B680133044A1360034B3B
:100CC0001B681846BD465DF8047B70476022002013
:100CD00080B584B000AF03463960FB803B681B6879
:100CE000FB60FB68002B09D0FB68BB60BB685B88BE
:100CF00003339B00FA681344FB601CE0FB88184A2E
:100D00001B01134404331B680833FB6013E0FB68CA
:100D1000BB60B868FFF7BAFD0346002B04D03B6800
:100D2000FA681A60012317E0BB685B8803339B00F5
:100D3000FA681344FB60FB88094A1B01134404331F
:100D40001B6803F58052FB689A4204D9FB681B6854
:100D5000B3F1FF3FDBD1002318461037BD4680BDFD
:100D60002423002080B584B000AF786039607B68B0
:100D70005B681846FFF7A4FD0346002B19D07B687B
:100D80001A89254B1B899A4213D17B681A687B68A4
:100D90005B689B689A420CD17B685B68194638682F
:100DA000FFF746FE0346002B0CBF01230023DBB2F6
:100DB0002DE03B6800221A8024E00023BB6010E095
:100DC000BB68FB60FB689A687B681B689A4208D125
:100DD000BA687B685A60104B1A897B681A810123B4
:100DE00015E03B681B8807F1080211461846FFF71B
:100DF0006FFF0346002BE3D13B681B8801339AB297
:100E00003B681A803B681B88012BD6D90023184603
:100E10001037BD4680BD00BF4C23002080B586B092
:100E200000AFF860B9607A603B600220FFF788FC91
:100E3000034683F00103DBB2002B01D002234FE015
:100E40007B68002B02D03B68002B44D1052347E090
:100E50003B689B88244A1B0113441B78002B33D129
:100E600024E03B681B687B61FB68002B06D07B6934
:100E70009A88FB681B889A4200D017E0BB68002B59
:100E800006D07B691A88BB681B889A4200D00DE0A7
:100E90007B699A687B681A603B681A687B685A604D
:100EA000124B1A897B681A81002319E03B689B88E2
:100EB0003A6811461846FFF70BFF0346002BD0D1C6
:100EC0003B6800221A6000E000BF3B689B8801334A
:100ED0009AB23B689A803B689B88012BB8D90A2359
:100EE00018461837BD4680BD242300204C2300201F
:100EF00080B500AF124B1A6F1346DB009B1A9B00A4
:100F00000F4A13441C2200211846FEF71BFB0C4B12
:100F10005B6F002B0BD00A4B1B6F013303F00303F5
:100F2000074A1367064B5B6F013B054A5367044B47
:100F30005B6F002B14BF01230023DBB2184680BD7A
:100F40006422002080B483B000AF78607B681B68A7
:100F5000084A934206D07B681B6803F108027B684D
:100F60001A6002E07B68044A1A600C37BD465DF8DF
:100F7000047B704714230020DC22002080B483B05F
:100F800000AF78600E4B5B6C002B12D00C4B1B6CCF
:100F9000DB000B4A1A447B681A60094B1B6C013357
:100FA00003F00703064A1364054B5B6C013B044ADC
:100FB000536400BF0C37BD465DF8047B704700BF2B
:100FC000DC22002080B483B000AF78607B681B789F
:100FD000022B03D07B681B78032B0DD1094B1B6CB4
:100FE0007A68927D1344074A1364064B5B6C7A68F7
:100FF000927D9B1A034A536400BF0C37BD465DF8CF
:10100000047B7047DC220020B0B588B000AFF860E8
:10101000B9607A600023FB772E4B5B6F032B54D8AB
:101020002D4B5A6CBB68C3F108039A424DD8294B2B
:101030005A6F284B1B6F134403F003037B61254950
:101040007A691346DB009B1A9B00CA18FB6814469A
:101050001D460FCD0FC495E8070084E807001D4B1F
:101060005B6F01331B4A5367BB68002B2BD01A4BB5
:101070005A6C194B1B6C134403F007037B617B69AB
:10108000DB00154A13443B610023BB6111E0396961
:10109000BB69DB007A681A440B4692E8030083E8D8
:1010A000030007F110031846FFF74CFFBB6901333B
:1010B000BB61BA69BB689A42E9D3074B5A6CBB68FB
:1010C0001344054A53640123FB77FB7F18462037FE
:1010D000BD46B0BD64220020DC22002080B586B071
:1010E00000AF00237B6100237B8200237B740023FD
:1010F000FB81A2E0564B1B68FA8912031344BB60C4
:10110000B868FFF725FC0346FB71FB79012B63D020
:10111000032B02D0002B3BD08CE0B868FFF73EFCDD
:101120000346002B2BD04B4B1B68002B1AD07B8A1D
:10113000494A1B01134402221A707B8A464A1B014A
:1011400013440433BA681A607B8A434A1B01134470
:10115000083302221A80414A7B8A53807B8A0133FA
:101160007B8207E03B4ABB6813603A4B02229A80BD
:1011700001237B747B6943F001037B615AE07B8A26
:101180005A1C7A82344A1B01134403221A7051E01C
:101190007B8A314A1B01134400221A707B8A2E4A33
:1011A0001B0113440433BA681A607B8A1B0108339D
:1011B000294A99187B8A1B010833274A13440633AE
:1011C0001A46B868FFF768FC7B6943F002037B614D
:1011D0007B8A01337B822DE07B7C002B17D07B8ABE
:1011E0001D4A1B01134402221A707B8A194A126895
:1011F00019491B010B4404331A607B8A164A1B01F0
:101200001344083302221A807B8A01337B82114AFD
:10121000BB68136000221249B868FFF73DFC0D4B14
:101220009B88022B01D1042300E008237A69134331
:101230007B6100BFFB890133FB81FB89022B7FF6B9
:1012400059AF7B69DBB218461837BD4680BD00BF79
:10125000BC21002044230020242300204C23002014
:101260004823002080B586B002AF786039607B6883
:101270001A1D0023009301233968094801F0DCFAA4
:101280000346FB607B6802221A74FB68002B01D1C5
:10129000002300E00E2318461037BD4680BD00BF76
:1012A000BC21002080B586B002AF786039603B6811
:1012B00003F108017B6803F10C0200230093012372
:1012C0000B4801F0B9FA0346FB607B689B7D002B5D
:1012D00001D0032200E001227B681A74FB68002B16
:1012E00001D1002300E00E2318461037BD4680BD13
:1012F000BC21002080B586B002AF786039603B68C1
:10130000191D7B6803F108020023009301230C4898
:1013100001F092FA0346FB607B681B78032B01D136
:10132000052200E006227B681A74FB68002B01D1BD
:10133000002300E00E2318461037BD4680BD00BFD5
:10134000BC21002080B586B002AF786000230093F6
:101350000123084A7968084801F06EFA0346FB73D6
:10136000FB7B002B01D1002300E00E231846103731
:10137000BD4680BD80E30200BC21002080B588B05E
:1013800000AF786007F1080300221A605A609A6083
:101390007B68DB68BB6007F1160207F108031146A2
:1013A0001846FFF7DFFC0346002B16D0FB68BB6135
:1013B000BB699A887B68DA80BB691A887B681A8166
:1013C000FB681846FFF7BEFFF861FB8A064A1B015F
:1013D00013440E3301221A7001E00A23FB61FB69FA
:1013E00018462037BD4680BD2423002080B586B036
:1013F00000AF78607B68981D07F108020F4B002151
:10140000FFF70CFD78617B69002B0DD1FB68184656
:10141000FFF798FF7861094B9B88094A1B01134429
:101420000E3301221A7004E0082200210348FEF75F
:1014300089F87B6918461837BD4680BD5C230020BB
:101440002423002080B586B002AF78603960002385
:10145000BB6007F108031846FFF790FD7B689B8A85
:101460009B003A68D118BB681A68BB68988800234B
:1014700000930346114801F0DFF90346FB607B68E7
:101480009A8ABB689B8813449AB27B689A827B686D
:101490009B7D013BDAB27B689A757B689B7D002B54
:1014A00002D17B6801221A74FB68002B01D1002352
:1014B00000E00E2318461037BD4680BDBC21002039
:1014C00080B483B000AF154B1B8901339AB2134B24
:1014D0001A81124B00225A80104B00221A730023EB
:1014E000FB8011E0FB88FA880D4912010A4412784A
:1014F000002A0CBF01220022D1B2084A13440A4636
:101500009A72FB880133FB80FB88012BEAD900BF6C
:101510000C37BD465DF8047B704700BF4C230020AC
:101520002423002080B485B000AF78600023FB73D3
:101530000023BB8123E0BB89164A13449B7A002B0E
:101540001AD0BB89134A134400229A72BB89124AEB
:101550001B0113440C331B88002B0DD1BB890E4A91
:101560001B0113440E331B78002B05D07B68BA890E
:101570001A800123FB7305E0BB890133BB81BB8962
:10158000012BD8D9FB7B18461437BD465DF8047B88
:10159000704700BF4C2300202423002080B500AFFB
:1015A000074B05221A70074B02229A80054B1968D7
:1015B00000230122044801F0A9F90346184680BD22
:1015C0004C23002044230020BC21002080B582B0A1
:1015D00000AF124B5B887B807B88114A1B01134450
:1015E0000C331B88002B10D17B880D4A1B01134440
:1015F00004331968002301220A4801F087F90346E1
:101600007B60064B04221A7002E0FFF7C7FF786088
:101610007B6818460837BD4680BD00BF4C230020BC
:1016200024230020BC21002080B586B002AF104BDF
:101630005B68FB600F4B1A680E4B9B889B00134442
:10164000BB60FB685B880333FB80094B03221A7085
:10165000074B5A68F988002300930B46B96806487F
:1016600001F0EAF8034618461037BD4680BD00BFBA
:101670004C23002044230020BC21002080B582B0F0
:1016800000AF0A4B5B880A491846FFF721FB034667
:10169000002B03D0FFF7C8FF786002E0FFF796FF4A
:1016A00078607B6818460837BD4680BD4C23002013
:1016B0005023002080B500AF074B06221A70064B5E
:1016C0005B88064A1B01134404331B681846FFF766
:1016D00069FA0346184680BD4C23002024230020CD
:1016E00080B500AF054B07221A70044B00225A60E8
:1016F000FFF742FA0346184680BD00BF4C23002086
:1017000080B500AF0C48FFF70DFF034683F00103DF
:10171000DBB2002B0BD0094B00221A70074B0022C2
:101720005A80064B00225A6041F61D5302E0FFF733
:10173000A5FF0346184680BD4E2300204C23002001
:1017400080B483B000AF0A4B5B687B607B685B88CA
:1017500003337B80074B9A887B8813449AB2054BEE
:101760009A8000BF0C37BD465DF8047B704700BF10
:101770004C2300204423002080B483B000AF144BDE
:101780001B687B60134B5B88134A1B0113440433B3
:101790001B680F4A13600F4B5B880F4A1B011344F1
:1017A00004337A681A600B4B5B881846084B99889B
:1017B000094A0301134408330A461A80044B0222E3
:1017C0009A8000BF0C37BD465DF8047B704700BFB0
:1017D000442300204C2300202423002080B500AFA8
:1017E0001A4B1B78072B2DD801A252F823F000BF0B
:1017F0001118020045180200451802001D180200C9
:101800002918020035180200351802003D180200A0
:10181000FFF756FE0D4B01221A7014E0FFF790FF00
:101820000A4B02221A700EE0FFF7A6FF074B0622B2
:101830001A7008E0054B07221A7004E0034B0122DE
:101840001A7000E000BF00BF80BD00BF4C23002025
:1018500080B586B000AF786039600F237B617B680C
:10186000002B04D00120FEF751FF012398E03B68D4
:101870001B79032B00F2888001A252F823F000BFED
:10188000911802009F180200071902002719020090
:10189000FFF772F978613B6801221A7177E0002343
:1018A000FB7400233B821CE03B8A3F4A1B0113442C
:1018B0001B78022B12D13B8A3B4A1B011344043391
:1018C0001B681846FFF76EF978613B8A364A1B01A0
:1018D000134400221A700123FB7405E03B8A013394
:1018E0003B823B8A012BDFD9FB7C83F00103DBB217
:1018F000002B4BD00220FEF7F5FE0120FEF706FF7D
:1019000041F61D534CE0294B196800230122284859
:1019100000F0FCFF03467B61244B02229A803B6867
:1019200000221A7133E0214B1B681846FFF73AF981
:101930007861204B5B88FB811C4B1B68BB60FB897B
:10194000194A1B01134404331B68184A1360FB89AE
:10195000154A1B0113440433BA681A60FB89134A01
:101960009188114A1B01134408330A461A800F4B11
:1019700002229A80FB890C4A1B01134400221A7030
:101980003B6800221A7102E000BF00E000BF7B69E3
:10199000002B04D00120FEF7B9FE0E2300E0002347
:1019A00018461837BD4680BD24230020442300205C
:1019B000BC2100204C23002080B586B000AF7860A9
:1019C00039603B685B8A1B013A4A13443B617B6880
:1019D000002B07D03B68DB8819463869FFF7AEF863
:1019E000012363E03B695A683B691B899B001344F0
:1019F000FB603B681B7C062B4BD801A252F823F0FE
:101A0000471A02006B1A0200531A02005F1A020002
:101A10001D1A0200771A02008B1A0200264B0022C0
:101A20005A603B689B69244A136007F10A03194610
:101A30002148FFF797F9034683F00103DBB2002B3F
:101A400001D00A2332E0F9683868FFF70BFC7861AF
:101A500022E0F9683868FFF725FC78611CE0F96836
:101A60003868FFF7EFFC786116E0F9683868FFF72F
:101A700041FC786110E0104B5B681846FFF762FC90
:101A800078613B6806221A7406E041F61D537B61BB
:101A900002E00F237B6100BF7B69002B05D03B6810
:101AA000DB8819463869FFF749F87B69184618370B
:101AB000BD4680BD242300206423002080B584B06F
:101AC00000AF786039607B68002B01D0012323E0F0
:101AD0003B681B79012B0BD0022B14D0002B16D1A5
:101AE0003868FFF74BFCF8603B6802221A7112E07D
:101AF0003868FFF77BFCF860FB680A2B0AD141F6D7
:101B00001D53FB6006E041F61D53FB6003E00F230D
:101B1000FB6000E000BFFB6818461037BD4680BD83
:101B200080B584B000AF78607B68002B01D00123C2
:101B30003CE0204B1B7B002B03D01E4B00221A7372
:101B400001E0FFF74BFE1B4B1B78013B062B29D80E
:101B500001A252F823F000BF751B02007D1B02009A
:101B6000851B02008D1B0200A51B0200951B0200B5
:101B70009D1B0200FFF7C4FDF86016E0FFF77EFD35
:101B8000F86012E0FFF750FDF8600EE0FFF71EFD71
:101B9000F8600AE0FFF78EFDF86006E0FFF7A0FDB1
:101BA000F86002E00F23FB6000BFFB6818461037A7
:101BB000BD4680BD4C23002080B58AB000AF0346EF
:101BC000FB71334B1A6F1346DB009B1A9B00304AA4
:101BD00013443B623B6A1B78013B052B29D801A2C9
:101BE00052F823F0FD1B02000B1C02000B1C02002C
:101BF000191C0200191C0200271C0200FB79396A1B
:101C00001846FFF725FE786216E0FB79396A184618
:101C1000FFF7D2FE78620FE0FB79396A1846FFF7CA
:101C20004DFF786208E0FB791846FFF779FF78628C
:101C300002E00F237B6200BF7B6A002B23D07B6A0C
:101C400041F61D52934202D100233B6104E07B6ABE
:101C50003B61386AFFF7B6F907F10C031946386A99
:101C6000FEF7A6FD07F10C031846FEF781FDFFF70E
:101C70003FF90346002B03D00020FFF79DFF02E051
:101C80000420FEF743FD00BF2837BD4680BD00BFDE
:101C90006422002080B500AF0420FEF751FD03460A
:101CA00083F00103DBB2002B05D00420FEF71AFD00
:101CB0000020FFF781FF00BF80BD00BF80B582B06C
:101CC00000AF78600B46FB70FB781846FFF774FF97
:101CD00000BF0837BD4680BD80B590B000AFF8604A
:101CE000B9607A60FB700023FB860023FB8702202B
:101CF000FEF726FD034683F00103DBB2002B01D083
:101D000002239BE0BB68002B01D1052396E0BB6852
:101D10001B884FF6FF72934203D0BB685B88002B91
:101D200001D104238AE0BB685A68BB681B89194645
:101D30001046FEF7E9FD034683F00103DBB2002BFA
:101D400001D003237AE07B68002B21D10023BB6301
:101D50000BE0BB685A68BB6BDB0013449A88FB8FAF
:101D60001344FB87BB6B0133BB63BB681B891A46FB
:101D7000BB6B9A42EDD807F11202FB8F1146184651
:101D8000FEF726FF38633B6B002B07D03B6B55E01B
:101D90007B681B887B827B685B88FB87FB783B7555
:101DA000002387F824307B8AFB84BB681B89DBB265
:101DB00087F82A3003233B85FEF77AFF03463B6210
:101DC000BB681B88BB83BB685B883B83FB8F7B83C3
:101DD000FB78032B05D1042387F82430FB681B68AC
:101DE000FB62FB8EFB83BB681B891946BB685A6884
:101DF00007F114031846FFF707F9034683F00103C0
:101E0000DBB2002B07D07A8AFB8F11461846FEF70B
:101E10002DFF082312E0FB68002B0CD0FB6800228A
:101E20005A603A6AFB681A60FB6800229A72054B96
:101E30001A89FB681A81FFF72DFF002318464037E7
:101E4000BD4680BD4C23002080B485B000AF7860D3
:101E50000E4B1B78082B02D10C23FB600EE00B4BC2
:101E60001B7819460A4A7B6842F82130074B1B78D9
:101E70000133DAB2054B1A700023FB60FB68184689
:101E80001437BD465DF8047B704700BF3F22002039
:101E90004022002080B58EB000AF07F12003002261
:101EA0001A605A609A60DA601A610220FEF748FCF4
:101EB0000346002B06D007F120031846FEF758FC16
:101EC00000235FE00120FEF73BFC0346002B01D01E
:101ED000002357E00120FEF705FC00F01FFCFFF790
:101EE000FDF8034687F8373097F83730002B01D1DB
:101EF0000B2347E097F83730062B0CD10220FEF772
:101F0000F1FB0120FEF702FC07F120031846FEF763
:101F10002FFC002336E001233B7197F83730013B5B
:101F20000A2B25D801A252F823F000BF591F020046
:101F3000711F0200591F0200711F02006B1F020077
:101F4000711F02006B1F0200711F02005F1F020061
:101F5000651F02005F1F020000233B7209E003239C
:101F60003B7206E002233B7203E001233B7200E078
:101F700000BF3B1D002200211846FFF745F8FFF780
:101F800089FE002318463837BD4680BD80B584B031
:101F900000AF786039607B68002B02D03B68002B73
:101FA00001D1052328E007F10A0319467868FEF7F6
:101FB000D9FE0346002B1ED07B685B68FB607B89E3
:101FC0000F491A010A440C321288013291B20C4AAC
:101FD0001B0113440C330A461A803B68FA681A60E6
:101FE0007B685B6803F10C023B685A607B680122E6
:101FF0009A72002300E00A2318461037BD4680BDC0
:102000002423002080B584B000AF78607B68002B6B
:1020100001D105232EE007F10A0319467868FEF77F
:10202000A1FE0346002B22D07B89144A1B011344D6
:102030000C331B88002B17D07B689B7A002B13D0A6
:102040007B890E491A010A440C321288013A91B276
:102050000A4A1B0113440C330A461A807B6800228B
:102060009A720023FB6004E00623FB6001E00A2370
:10207000FB60FB6818461037BD4680BD2423002056
:1020800080B584B000AF78600B467B800220FEF7FD
:1020900057FB034683F00103DBB2002B01D0022380
:1020A00016E07B68002B01D1052311E007F10A023D
:1020B0007B8811461846FEF78BFDF860FB68002B05
:1020C00005D17A897B681A807B687A885A80FB6898
:1020D00018461037BD4680BD80B584B000AF78602B
:1020E0000220FEF72DFB034683F00103DBB2002B39
:1020F00001D002232DE07B68002B01D1052328E0CD
:102100007B681B88022B01D9042322E07B681B8893
:102110001B01124A1344BB60BB685B891A467B688B
:102120005B880333D31A002B10DB7B685A887B68EB
:102130001B8819461046FEF799FD7B6800221A801D
:102140007B6800225A800023FB6001E00423FB60CF
:10215000FB6818461037BD4680BD00BF2423002011
:1021600080B582B000AF7860396002230022396800
:102170007868FFF7B1FD034618460837BD4680BDB5
:1021800080B584B000AFF860B9607A607B68002BDE
:1021900001D1052306E002237A68B968F868FFF7E1
:1021A0009BFD034618461037BD4680BD80B582B002
:1021B00000AF786039607B68002B01D1052306E011
:1021C0000323002239687868FFF786FD0346184626
:1021D0000837BD4680BD00BF80B58AB000AF03465A
:1021E000FB800220FEF7ACFA034683F00103DBB26A
:1021F000002B01D002231BE0FB884FF6FF729342B5
:1022000001D1042314E005233B7301233B74FB88B5
:102210007B8207F10C03002200211846FEF7F4FE32
:102220000346002B03D0FFF735FD002300E0082311
:1022300018462837BD4680BD80B588B000AF022063
:10224000FEF77EFA034683F00103DBB2002B01D0D8
:10225000022316E006233B713B1D00220021184695
:10226000FEF7D2FE0346002B0AD0084B1B78002B4A
:1022700002D0064B01221A73FFF70CFD002300E089
:10228000082318462037BD4680BD00BF4C230020E0
:1022900080B584B000AFBA607B600346FB810B461B
:1022A000BB8107F10C0107F10E007B68BA68FEF7ED
:1022B000B5FD034618461037BD4680BD80B584B0D5
:1022C00000AF0346B9607A60FB8107F10E017B68BD
:1022D000BA680020FEF7A2FD034618461037BD4637
:1022E00080BD00BF80B584B000AF0346B9607A609E
:1022F000FB8107F10E007B68BA680021FEF78EFDB6
:10230000034618461037BD4680BD00BF80B483B079
:1023100000AF786039607B68002B02D03B68002BEF
:1023200001D1052304E07B681A683B681A6000232A
:1023300018460C37BD465DF8047B704780B483B007
:1023400000AF4FF010235B697B607B68B3F1FF3F08
:1023500004D14FF080535B691B0300E07B68184693
:102360000C37BD465DF8047B704700BF29DF70471E
:1023700000BF184628DF704700BF184680B586B0FA
:1023800000AF78600B46FB7007F1080310220021B4
:102390001846FDF7D7F87B681B7A012B02D0022B79
:1023A00009D015E000233B727B681B693B617B68A9
:1023B0009B8ABB820CE001233B727B689A897B6815
:1023C000DB89D31A9BB23B827B689B897B8200BFEF
:1023D0007B685B68FB607B681B689B68F97807F12A
:1023E00008021046984700BF1837BD4680BD00BFA1
:1023F00080B483B000AF78607B68002B09D07B6825
:10240000074A934205D37B68064A934201D20123CF
:1024100000E0002318460C37BD465DF8047B70478A
:10242000BC210020CC21002080B584B000AF7860B2
:102430007B689B8A1A467B68DB8AD31AB3F5806F68
:1024400006DA7B689A8A7B68DB8AD31AFB8102E012
:102450004FF48063FB817B681A697B68DB8A9B0091
:10246000D0187B68DA687B68DB8A9B001344FA89A2
:102470001946FFF77BFF034618461037BD4680BD5F
:1024800080B582B000AF78607B689B891846FFF703
:1024900071FF034618460837BD4680BD80B400AFC3
:1024A000104B5B6E013B0F4A53660E4B5B6E002B6D
:1024B00006D10D4B1B7823F00203DAB20A4B1A70D7
:1024C000084B1B6E0133074A1366064B1B6E042B29
:1024D00002D1044B00221A6600BFBD465DF8047BA2
:1024E000704700BF742300207023002080B582B0A5
:1024F00000AF1F4B1A6E13465B001344DB001C4AEF
:1025000013443B601A4B5B6E002B2CD03B681B7A4C
:10251000012B02D0022B05D009E03868FFF784FFB9
:10252000786007E03868FFF7ABFF786002E00923C6
:102530007B6000BF7B68112B0ED10E4B1B7823F004
:102540000203DAB20B4B1A700A4B1B7843F00403F8
:10255000DAB2084B1A7006E07B68002B03D0092121
:102560003868FFF70BFF00BF0837BD4680BD00BFCE
:10257000742300207023002080B500AF0B4B1B7824
:1025800003F00203002B0ED1084B1B7803F0040369
:10259000002B08D1054B1B7843F00203DAB2034B42
:1025A0001A70FFF7A3FF00BF80BD00BF702300209B
:1025B00080B584B000AF7860284B00221A707B6829
:1025C0001B7A012B02D0022B27D042E07B689B8A2A
:1025D0001A467B68DB8AD31AB3F5806F06DA7B680C
:1025E0009A8A7B68DB8AD31AFB8102E04FF480630E
:1025F000FB817B68DA8AFB8913449AB27B68DA82B2
:102600007B68DA8A7B689B8A9A421FD100217868AE
:10261000FFF7B4FEFFF742FF18E07B689B890133A8
:102620009AB27B689A817B68DB8901339AB27B68B6
:10263000DA817B68DA897B681B8A9A4208D100219B
:102640007868FFF79BFEFFF729FF01E000BF00E07D
:1026500000BF00BF1037BD4680BD00BFDC23002097
:1026600080B582B000AF78600B4B1B780133DAB2D3
:10267000094B1A70084B1B78032B08D9064B002214
:102680001A7008217868FFF779FEFFF707FF00BF8F
:102690000837BD4680BD00BFDC23002080B584B074
:1026A00000AF78601C4B5B6E042B01D100232EE041
:1026B000194B1A6E184B5B6E1344032B05D8164B3F
:1026C0001A6E154B5B6E134405E0134B1A6E124BDA
:1026D0005B6E1344043BFB600F4B5B6E01330E4A91
:1026E0005366FA6813465B001344DB000A4A13443E
:1026F000182200211846FCF725FFFA6813465B00F4
:102700001344DB00044A1A447B681A60012318460C
:102710001037BD4680BD00BF7423002080B58AB04D
:1027200000AF424A424BD31A1B09FB603F4A404B61
:10273000D31A1B097B62FFF701FE38623D4B1B7801
:1027400003F00103002B01D000236AE00023FB61AA
:1027500012E0FB691B01364A1344BB60BB681B686F
:10276000002B06D0BB685B68002B02D07B6A013B64
:102770007B62FB690133FB61FA69FB689A42E8D32B
:102780000023BB6141E0BB691B01294A13447B6004
:102790000023FB75BB69BB7500233B611BE03B69F4
:1027A0001B01234A13443B603B681B68002B03D08A
:1027B0003B685B68002B0AD13B685B7BFA7D9A42E1
:1027C00006D23B685B7BFB753B69BB7500E000BFD5
:1027D0003B6901333B613A69FB689A42DFD3BB7DB9
:1027E0001B01134A13447B607B683A6A5A607B681A
:1027F0001B7B1B035B423A6A1A447B681A607B6846
:102800001B683B62BB690133BB61BA697B6A9A4250
:10281000B9D3084B1B7843F00103DAB2054B1A70A9
:10282000002318462837BD4680BD00BFCC210020BC
:10283000BC2100207023002080B586B000AFF86076
:10284000B9607A607B80304B1B7803F00103002B6A
:1028500001D1012354E0F868FFF7CAFD034683F075
:102860000103DBB2002B01D0022349E07B68002B7F
:1028700002D0BB68002B01D1032341E07B6803F049
:102880000303002B04D1BB6803F00303002B01D02A
:10289000062335E0FB681A68BB689A4207D8FB68D4
:1028A0005A687B889B00B9680B449A4201D2052381
:1028B00026E07B88002B01D1042321E007F11403DB
:1028C0001846FFF7EBFE034683F00103DBB2002B53
:1028D00001D0072314E07B693A6A5A607B69FA6881
:1028E0001A607B6901221A727B697A68DA607B69F7
:1028F000BA681A617B697A889A82FFF73DFE0023E5
:1029000018461837BD4680BD7023002080B586B0BC
:1029100000AFF860B9603B601346FB802B4B1B781F
:1029200003F00103002B01D101234BE0F868FFF70E
:102930005FFD034683F00103DBB2002B01D00223CD
:1029400040E0BB68002B01D103233BE0BB68C3F32D
:102950000B03002B01D0062334E0FB681A68BB6828
:102960009A4207D8FB881B03BA681A44FB685B6865
:102970009A4201D9052325E0FB88002B01D10423CD
:1029800020E007F114031846FFF788FE034683F0A2
:102990000103DBB2002B01D0072313E07B693A6807
:1029A0005A607B69FA681A607B6902221A727B6935
:1029B000BA68120B92B29A817B69FA881A82FFF781
:1029C000DBFD002318461837BD4680BD702300206C
:1029D00080B483B000AF78607B68002B01D1032303
:1029E00004E0054B5A6E7B681A60002318460C37CA
:1029F000BD465DF8047B70477423002080B584B029
:102A000000AF78601D4B1A6E13465B001344DB0069
:102A10001A4A1344FB601A4B1B7803F00203002B85
:102A20000ED07B68022B02D0032B04D020E0F86884
:102A3000FFF7BEFD1CE0F868FFF712FE00BF17E0CD
:102A40000F4B1B7803F00403002B11D00C4B1B78A9
:102A500023F00403DAB20A4B1A70084B5B6E002BAA
:102A600006D0074B1B7843F00203DAB2044B1A700E
:102A7000FFF73CFD00BF1037BD4680BD742300202A
:102A80007023002080B483B000AF78600B467B8059
:102A90007B681A787B88012101FA03F3DBB21343C8
:102AA000DAB27B681A7000BF0C37BD465DF8047B54
:102AB000704700BF80B483B000AF78600B467B8066
:102AC0007B681A787B88012101FA03F3DBB2DB43D0
:102AD000DBB21340DAB27B681A7000BF0C37BD4618
:102AE0005DF8047B704700BF80B483B000AF03463D
:102AF0000A46FB711346BB80FA79BB8842FA03F39E
:102B000003F00103002B14BF01230023DBB218469E
:102B10000C37BD465DF8047B704700BF80B584B0BC
:102B200000AF0346FB710023FB810DE0FA89FB79BE
:102B300011461846FFF7D8FF0346002B01D0FB894A
:102B400007E0FB890133FB81FB89072BEED94FF6A8
:102B5000FF7318461037BD4680BD00BF80B586B0F4
:102B600002AFF860B96011461A460B46FB80134667
:102B70007B71FA887B79009313460122B968F86863
:102B800000F004F800BF1037BD4680BD80B586B0A8
:102B900000AFF860B9607A607B80FB68002B38D0AA
:102BA000BB68002B35D07B68002B32D000237B61C3
:102BB0002CE07B695B00FA6813441B887A889A4290
:102BC00021D100233B6119E097F82030002B09D078
:102BD000BA683B6913447A6992B211461846FFF706
:102BE00051FF08E0BA683B6913447A6992B2114612
:102BF0001846FFF75FFF3B6901333B613A697B6829
:102C00009A42E1D305E07B6901337B617B69072B45
:102C1000CFD91837BD4680BD80B584B000AF78608D
:102C20000B46FB7013463B807B68002B19D00023BA
:102C3000FB6013E0FB685B007A6813441B883A88EA
:102C40009A4208D1FB689AB2FB7811461846FFF702
:102C50004BFF034606E0FB680133FB60FB68072B74
:102C6000E8D9002318461037BD4680BDB0B58AB0FC
:102C700000AFF860B9601346FB7100233B61BB688D
:102C8000002B20D000237B621AE07B6A9AB2FB798A
:102C900011461846FFF728FF0346002B0DD03B696D
:102CA0005A1C3A617A6A5200B9680A4412885B0079
:102CB00007F128010B4423F8142C7B6A01337B6253
:102CC0007B6A072BE1D9FB681D4607F110040FCC86
:102CD0000FC523682B60F8682837BD46B0BD00BF1C
:102CE00080B483B000AF786039603B681B7B002BF9
:102CF00007D03B685A687B681A607B6800221A71AB
:102D000006E03B681A687B681A607B6801221A71CA
:102D100000BF0C37BD465DF8047B704780B582B0BC
:102D200000AF786039607B681B79002B04D039686C
:102D3000786800F00BF803E03968786800F02AF84A
:102D40007B681B6818460837BD4680BD80B483B0D9
:102D500000AF786039603B685A687B681B68D21A9C
:102D60003B689B689A4207D97B681A683B689B68F6
:102D70001A447B681A6006E03B685A687B681A60F0
:102D80007B6800221A7100BF0C37BD465DF8047BDA
:102D9000704700BF80B483B000AF786039607B6853
:102DA0001A683B681B68D21A3B689B689A4207D92D
:102DB0007B681A683B689B68D21A7B681A6006E0D9
:102DC0003B681A687B681A607B6801221A7100BF31
:102DD0000C37BD465DF8047B704700BF80B483B0FC
:102DE00000AF78604FF080427B68C2F8083300BFC4
:102DF0000C37BD465DF8047B704700BF80B485B0DA
:102E000000AF0346FB80FB8803F1804300221A6079
:102E1000FB8803F180431B68FB60FB6800BF14372D
:102E2000BD465DF8047B704780B483B000AF0346B5
:102E3000FB80FB8803F180431B68002B14BF012338
:102E40000023DBB218460C37BD465DF8047B7047A3
:102E500080B483B000AF0346FB714FF08042FB7932
:102E600003F00303C2F8183500BF0C37BD465DF808
:102E7000047B704780B500AF134B1B78002B01D04B
:102E800085231EE0104B00229A600F4B00225A60EF
:102E90000D4B00221A610C4B0022DA600621002043
:102EA00000F00CF90BF034F9034683F00103DBB2B8
:102EB000002B02D00120FFF7CBFF034B01221A7039
:102EC0000023184680BD00BFE023002080B485B0F9
:102ED00000AF78607B681B68FB60FB68002B03D049
:102EE000FB681A687B681A60FB6818461437BD4691
:102EF0005DF8047B704700BF80B584B000AF034627
:102F0000FB71FB79002B02D10B4BFB6001E00B4BFB
:102F1000FB60F868FFF7DAFFB860BB68002B05D0EC
:102F2000BB685B68FA7910469847F2E700BF00BFBC
:102F30001037BD4680BD00BFE8230020F0230020ED
:102F400080B500AF4FF48070FFF76EFF0346002B93
:102F50000CD04FF48070FFF751FF0120FFF73EFFC8
:102F60000D4B01225A700020FFF7C6FF4FF482700C
:102F7000FFF75AFF0346002B0CD04FF48270FFF787
:102F80003DFF0220FFF72AFF034B01229A70012028
:102F9000FFF7B2FF00BF80BDE023002080B582B004
:102FA00000AF78607B68002B02D10020FFF7A4FF00
:102FB00000BF0837BD4680BD80B582B000AF00239A
:102FC000FB71FB1D1846FDF761FB0C4B1B7883F072
:102FD0000103DBB2002B01D0FFF74CFF074BDB688E
:102FE0000133064AD360054B01229A70FB791846DB
:102FF000FDF758FB00BF0837BD4680BDE023002029
:1030000080B483B000AF0346FB71094997F90730DC
:103010005B09FA7902F01F02012000FA02F241F87E
:10302000232000BF0C37BD465DF8047B704700BF0E
:1030300000E100E080B483B000AF0346FB710949B2
:1030400097F907305B09FA7902F01F02012000FAB4
:1030500002F2603341F8232000BF0C37BD465DF813
:10306000047B704700E100E080B483B000AF03460A
:103070003960FB7197F90730002B0BDA0D49FB79AA
:1030800003F00F03043B3A68D2B25201D2B20B44B0
:103090001A7609E0084997F907303A68D2B2520126
:1030A000D2B20B4483F8002300BF0C37BD465DF855
:1030B000047B704700ED00E000E100E080B582B0E5
:1030C00000AF03460A46FB711346BB71BA7997F904
:1030D000073011461846FFF7C7FF97F90730184623
:1030E000FFF7A8FF97F907301846FFF789FF00BFE1
:1030F0000837BD4680BD00BF80B582B000AF034633
:10310000FB80FB88184600F025F803461B68012B5E
:103110000CBF01230023DBB218460837BD4680BD33
:1031200080B584B000AF0346FB80FB88184600F0F2
:1031300011F803461A4600231360FB88184600F076
:1031400009F803461B68FB60FB6800BF1037BD46EB
:1031500080BD00BF80B483B000AF0346FB80FB8816
:1031600003F1804303F5C04318460C37BD465DF8B4
:10317000047B704780B483B000AF7860044A7B68FA
:10318000C2F8043300BF0C37BD465DF8047B7047BE
:103190000060004080B483B000AF7860054BD3F886
:1031A00004237B68134018460C37BD465DF8047B4A
:1031B000704700BF0060004080B483B000AF78600B
:1031C0000949094A7B6803F5A27352F8233043F09A
:1031D00001027B6803F5A27341F8232000BF0C377E
:1031E000BD465DF8047B70470060004080B485B048
:1031F00000AFF860B9601346FB711649154AFB68C9
:1032000003F5A27352F8233023F4473323F44073B9
:10321000FA6802F5A27241F822300E480D4AFB68A6
:1032200003F5A27352F82320BB681B0203F4F85184
:10323000FB791B0403F440330B431A43FB6803F58B
:10324000A27340F8232000BF1437BD465DF8047B0D
:10325000704700BF0060004080B483B000AF78606A
:10326000074A7B6803F5A27352F8233003F4F8533E
:103270001B0A18460C37BD465DF8047B704700BF3B
:103280000060004080B483B000AF7860074A7B687C
:1032900003F5A27352F8233003F440331B0CDBB266
:1032A00018460C37BD465DF8047B7047006000404F
:1032B00080B483B000AF7860084611461A460346D2
:1032C000FB700B46BB7013467B704FF0A041FA7841
:1032D000BB785B001A437B789B001A433B7C1B0244
:1032E0001A433B7D1B041A437B6803F5E07341F8E6
:1032F000232000BF0C37BD465DF8047B704700BF3C
:1033000080B584B002AF78600B46FB70FA7800237A
:103310000193002300931346002200217868FFF7F1
:10332000C7FF00BF0837BD4680BD00BF80B485B071
:1033300000AF78604FF0A0427B6803F5E07352F86D
:10334000233023F00203FB604FF0A0417B6803F5BC
:10335000E073FA6841F8232000BF1437BD465DF8DA
:10336000047B704780B483B000AF78600B46FB707D
:103370004FF0A0414FF0A0427B6803F5E07352F894
:10338000233023F440327B6803F5E07341F82320B7
:103390004FF0A0414FF0A0427B6803F5E07352F874
:1033A0002330FA7812041A437B6803F5E07341F87E
:1033B000232000BF0C37BD465DF8047B704700BF7B
:1033C00080B483B000AF78604FF0A043D3F81025ED
:1033D0007B6822FA03F303F0010318460C37BD465D
:1033E0005DF8047B704700BF80B400AF4FF0A0438E
:1033F000D3F810351846BD465DF8047B704700BF12
:1034000080B483B000AF78604FF0A0427B6803F5D2
:10341000E07352F8233003F440331B0CDBB2184640
:103420000C37BD465DF8047B704700BF80B483B0A5
:1034300000AF78600D4A7B681344303393F9003055
:10344000002B09DB094A7B681344303393F90030C1
:10345000072B01DC012300E0002303F00103DBB2B2
:1034600018460C37BD465DF8047B7047F4230020F6
:1034700080B483B000AF7860084A7B68134430336F
:1034800093F90030072BCCBF01230023DBB2184691
:103490000C37BD465DF8047B704700BFF423002065
:1034A00080B483B000AF7860074A7B681344303340
:1034B00093F90030DB43DBB2DB09DBB218460C3793
:1034C000BD465DF8047B7047F423002080B485B0CE
:1034D00000AFF860B9607A60FB70BB6859B2104AFF
:1034E000FB68134430330A461A700D49BB687A688A
:1034F00041F82320FB7883F00103DBB2002B08D0D6
:10350000BB68083BFA6851B2054A13440A4683F87F
:10351000502000BF1437BD465DF8047B704700BFE4
:10352000F423002080B483B000AF7860054A7B6844
:1035300013443033FF221A7000BF0C37BD465DF8CC
:10354000047B7047F423002080B483B000AF786020
:10355000054A7B681344303393F9003018460C3722
:10356000BD465DF8047B7047F423002080B483B02F
:1035700000AF7860044A7B6852F8233018460C3755
:10358000BD465DF8047B7047F423002080B588B009
:1035900000AFF860B9601346FB71FF23FB77FB793E
:1035A000002B01D0002300E008237B61FB79002B76
:1035B00001D0082300E00C233B617B69BB6112E072
:1035C0000E4ABB6952F82330B3F1FF3F08D1FB79B3
:1035D000BA68B969F868FFF779FFBB69FB7706E05D
:1035E000BB690133BB61BA693B699A42E8D397F979
:1035F0001F3018462037BD4680BD00BFF423002091
:1036000080B483B000AF0346FB71FB790A4A4FF0E8
:10361000FF3142F82310FB79072B06D9FB79083BD1
:10362000054A1344FF2283F8502000BF0C37BD46E3
:103630005DF8047B704700BFF423002080B582B0A2
:1036400000AF1B4B93F85430002B01D008232AE025
:103650000023FB7106E0FB791846FFF763FFFB7957
:103660000133FB71FB791F2BF5D90023FB7106E0B9
:10367000FB791846FFF7C4FFFB790133FB71FB7937
:103680000B2BF5D906210620FFF718FD4FF4BE706D
:10369000FFF746FD4FF00040FFF76CFD044B0122A1
:1036A00083F85420002318460837BD4680BD00BF6C
:1036B000F423002080B400AF064B93F85430002B65
:1036C00014BF01230023DBB21846BD465DF8047B1E
:1036D000704700BFF423002080B586B000AFF860CB
:1036E000B9607A6000237B61F868FFF7D9FE034672
:1036F000002B02D008237B6140E0BB68DB781A46D0
:103700007968F868FFF742FF0346FB7497F91330B6
:10371000B3F1FF3F30D0BB689B78002B03D0F86833
:10372000FFF704FE05E0BB685B781946F868FFF711
:10373000E7FDBB68DB78002B08D097F91300BB6866
:103740001B781A46F968FFF751FD17E097F9133017
:10375000083B97F91320083A0B490A4492F9501094
:10376000BA681278920152B20A4351B2064A13441F
:103770000A4683F8502001E004237B617B691846E8
:103780001837BD4680BD00BFF423002080B586B049
:1037900000AF78600B46FB707868FFF769FE034660
:1037A000002B2BD07868FFF7CFFE0346083B2C4A4E
:1037B000134493F95030BB75BB7D9B097B757B7DB2
:1037C000032B0ED1FFF710FE014601227B6802FA9F
:1037D00003F30B40002B01D0032300E00223FB7511
:1037E00006E07B7D012B01D1022300E00323FB7562
:1037F000FB7D19467868FFF7B5FD2DE07868FFF787
:1038000015FE0346002B27D07868FFF79DFE034680
:103810003B613B699BB240339BB29B00FB813B69A0
:103820001846FFF7C9FCFB891846FFF779FCFB78BF
:10383000002B11D07868FFF787FE03461846FFF784
:1038400095FEB860BB68002B06D001223B6902FAE6
:1038500003F31846FFF78EFC00BF1837BD4680BD46
:10386000F423002080B582B000AF78607868FFF75D
:10387000A7FD0346002B14BF01230023DBB218462B
:103880000837BD4680BD00BF80B592B000AF0023B1
:103890007B6400233B644FF480737B8701237B634D
:1038A0000023FB631DE07B8F1846FFF725FC0346D2
:1038B000002B0DD0786BFFF76DFC0346002B07D073
:1038C0007B8F1846FFF72CFC7A6C7B6B13437B6471
:1038D0007B6B5B007B637B8F04337B87FB6B0133EC
:1038E000FB63FB6B072BDED94FF4BE70FFF704FCC4
:1038F0000346002B0AD04FF4BE70FFF711FC7B6C1F
:1039000043F000437B64FFF76FFD38647B6CDBB2F0
:10391000002B29D001237B630023FB6321E07A6B1A
:103920007B6C1340002B16D0F86BFFF795FC786288
:10393000F86BFFF7A7FC034687F82330F86BFFF717
:1039400015FEF861FB69002B05D097F82320FB6971
:103950001146786A98477B6B5B007B63FB6B013396
:10396000FB63FB6B072BDAD97B6C002B80F2968014
:10397000002387F833300023FB624FF0FF33BB6234
:10398000002387F833300023FB636CE0454AFB6B70
:103990001344503393F90030FB76FB7E23F0C003D1
:1039A0007B61404AFB6B1344503393F90030B3F111
:1039B000FF3F55D0BA6A7B6922FA03F303F0010393
:1039C000002B4DD0FB7E9B09FB747869FFF7BCFD93
:1039D00003461846FFF7CAFDF860FB68002B02D1CA
:1039E000FB7C032B3CD101227B6902FA03F37B634E
:1039F000FB7C032B03D1FA6A7B6B1343FB62786970
:103A0000FFF7FEFC0346FB727A6B3B6C1340002B06
:103A100002D0FB7A022B07D07A6B3B6C1340002B51
:103A20001ED1FB7A032B1BD1FB7C032B10D1FB7A1D
:103A3000022B01D1032300E00223BB72BB7A19469B
:103A40007869FFF78FFC97F83330013387F833300C
:103A5000FB68002B04D0FA7CFB6811467869984714
:103A6000FB6B0133FB63FB6B032B8FD997F8333070
:103A7000002B0ED0FFF7B8FC78607A683B6C9A4256
:103A800003D1002387F8333003E07B683B64FB6A93
:103A9000BB6297F83330002B7FF472AF00BF48371A
:103AA000BD4680BDF423002080B485B000AF7860AF
:103AB0000B467B807B887A68134400221A607B88DF
:103AC0007A6813441B68FB60FB6800BF1437BD466F
:103AD0005DF8047B704700BF80B483B000AF7860AE
:103AE0000B467B807B887A6813441B68002B14BFCD
:103AF00001230023DBB218460C37BD465DF8047B7A
:103B0000704700BF80B483B000AF786039607B68D5
:103B1000D3F804233B681340002B14BF0123002378
:103B2000DBB218460C37BD465DF8047B704700BF1A
:103B300080B483B000AF786039607B683A68C3F8BE
:103B4000082300BF0C37BD465DF8047B704700BFFB
:103B500080B485B000AF78607B68D3F88034FB60B8
:103B60007B68FA68C3F88024FB6818461437BD46A2
:103B70005DF8047B704700BF80B483B000AF78600D
:103B80007B68D3F81835DBB218460C37BD465DF8B4
:103B9000047B704780B483B000AF78600B46FB7045
:103BA000FA787B68C3F81C2500BF0C37BD465DF86A
:103BB000047B704780B483B000AF78600B46FB7025
:103BC000FB787A68134401221A6000BF0C37BD46A7
:103BD0005DF8047B704700BF80B485B000AF7860AB
:103BE0000B467B807B887A68134400221A607B88AE
:103BF0007A6813441B68FB60FB6800BF1437BD463E
:103C00005DF8047B704700BF80B483B000AF78607C
:103C10000B467B807B887A6813441B68002B14BF9B
:103C200001230023DBB218460C37BD465DF8047B48
:103C3000704700BF80B483B000AF786039607B68A4
:103C4000D3F800223B68DB431A407B68C3F80022AC
:103C500000BF0C37BD465DF8047B704780B485B06B
:103C600000AF78607B68D3F88034FB607B68FA68CB
:103C7000C3F88024FB6818461437BD465DF8047B02
:103C8000704700BF80B483B000AF78607B68D3F822
:103C90004C3518460C37BD465DF8047B704700BFB5
:103CA00080B483B000AF78607B68D3F83C351846A9
:103CB0000C37BD465DF8047B704700BF80B584B00B
:103CC00000AF786039604FF48E717868FFF7ECFED2
:103CD0003B689B683A68928A92B213441B78FB73E4
:103CE0003B689B8A9BB201339AB23B689A82FB7B0A
:103CF00019467868FFF74EFF00BF1037BD4680BDFC
:103D000090B583B000AF786039603B68DB7D002BF5
:103D100008D14FF484717868FFF7C6FE7868FFF722
:103D20002BFF16E04FF484717868FFF7BDFE3B6807
:103D3000DB683A68527ED2B29C187868FFF71CFFA5
:103D4000034623703B685B7EDBB20133DAB23B682B
:103D50005A760C37BD4690BD80B588B000AFF8608C
:103D60000B467A60FB7201233B74FB7A3B767B68DF
:103D70007B61FB685B68FA68116807F11002104606
:103D8000984700BF2037BD4680BD00BF80B586B0D4
:103D900000AF78600B46FB7000233B72FB783B74EE
:103DA0007B689B68FB607B6800229A757B685B6818
:103DB0007A68116807F108021046984700BF183763
:103DC000BD4680BD80B588B000AF786039604FF4E3
:103DD00000717868FFF796FE0346002B38D04FF449
:103DE00092717868FFF778FE0346002B30D04FF4CD
:103DF00092717868FFF758FE4FF401717868FFF709
:103E000097FE3B689B7E83F00103DBB2002B03D05F
:103E100004217868FFF7CEFE02233B727868FFF733
:103E200097FE03467B613B68DB7D3B743B68DB6848
:103E3000FB603B680022DA753B6800221A763B681B
:103E40005B683A68116807F108021046984754E029
:103E500004217868FFF756FE0346002B4DD04FF43F
:103E600084717868FFF738FE0346002B45D0396827
:103E70007868FFF745FF3B68DA7D3B685B7EDBB225
:103E80009A423AD13B681B7E002B1AD03B68DB6814
:103E9000FB613B685B7EFB763B681A7E3B68DA75AC
:103EA0003B681A693B68DA603B6800221A763B6817
:103EB00000225A76FB7EFA6919463868FFF74CFFF4
:103EC0001BE03B689B7E83F00103DBB2002B03D039
:103ED00004217868FFF76EFE4FF401717868FFF7F0
:103EE00027FE3B680022DA753B685B7ED9B23B68EF
:103EF000DB681A463868FFF72FFF4FF48E71786839
:103F0000FFF7EAFD0346002B1BD03B689B8A9AB261
:103F10003B689B7D9BB29A4204D239687868FFF770
:103F2000CDFE0EE04FF48E717868FFF7BDFD3B6863
:103F30009B7D002B05D03B689B7D19463868FFF7B9
:103F400025FF4FF4A2717868FFF7C6FD0346002BEA
:103F50001CD04FF4A2717868FFF7A6FD3B689B7EEA
:103F6000002B03D000217868FFF724FE3B68DB7D3F
:103F7000002B0BD03B680022DA753B685B7ED9B220
:103F80003B68DB681A463868FFF7E6FE00BF20375B
:103F9000BD4680BD80B588B000AF786039604FF411
:103FA00092717868FFF730FE0346002B23D04FF460
:103FB00092717868FFF710FE02233B727868FFF772
:103FC0004DFE03467B617868FFF76AFE0346DBB26D
:103FD0003B743B68DB68FB603B680022DA753B683A
:103FE00000221A763B685B683A68116807F108029C
:103FF000104698473DE04FF488717868FFF704FE5B
:104000000346002B35D04FF488717868FFF7E4FD44
:104010007868FFF745FE0346FB773B68DB7DFA7F58
:104020009A4226D13B681B7E002B18D03B68DB6888
:10403000BB6120217868FFF7FDFD3B681A7E3B6875
:10404000DA753B681A693B68DA603B6800221A76C9
:10405000FB7FBA6919463868FFF77EFE09E03B68C6
:104060000022DA753B68DA68FB7F19463868FFF78B
:1040700073FE4FF4A2717868FFF7C6FD0346002B6C
:1040800016D04FF4A2717868FFF7A6FD3B68DB7D80
:10409000002B0DD03B680022DA757868FFF700FE30
:1040A0000346D9B23B68DB681A463868FFF754FE0E
:1040B0004FF490717868FFF7A7FD0346002B11D0ED
:1040C0004FF490717868FFF787FD3B689B7D002B6C
:1040D00008D07868FFF7D6FD0346DBB2194638688A
:1040E000FFF754FE00BF2037BD4680BD80B500AF4E
:1040F000074B1B7F002B04D005490648FFF74AFFFA
:1041000003E003490348FFF75DFE00BF80BD00BF29
:104110004C2400200020004080B485B000AF7860BF
:1041200039607B68032B17D84FF0A043D3F81035C4
:10413000DB43FB600D4A7B6852F82330012202FA10
:1041400003F31A46FB681340002B14BF012300231E
:10415000DAB23B681A7002E03B6800221A70002352
:1041600018461437BD465DF8047B7047A0E3020093
:1041700080B586B000AF03460A46FB711346BB719B
:104180000023FB7500233B6102E03B6901333B6187
:104190003B69032B06D83D4A3B6952F82320FB7943
:1041A0009A42F2D13B69032B60D8BB79012B04D032
:1041B000022B50D0002B32D058E035493A691346D3
:1041C0005B0013440B441B78FB7531493A69134675
:1041D0005B0013440B4401331B78002B11D02D4896
:1041E0002D4B1A6813469B0013445B002B4A19465B
:1041F000FCF77AF9F860FB68002B02D1274AFB79BB
:10420000137023493A6913465B0013440B4402338D
:104210001978234A3B6913440A461A7026E01D4B5D
:104220001846FCF795F91E4A3B691344197818485B
:104230003A6913465B001344034402331B789942E6
:1042400013D113493A6913465B0013440B440233FC
:104250001B78FB7509E00E493A6913465B0013446D
:104260000B4401331B78FB7500E000BFFB7D002B86
:1042700008D00C4B1B68002B04D00A4B1B68FA7D3E
:104280001046984700BF1837BD4680BDA0E3020026
:10429000C0240020CC24002070240020EC24002026
:1042A000F0240020BC24002080B582B000AF7860EC
:1042B0007B681B7802211846FFF75AFF00BF0837BA
:1042C000BD4680BD80B588B000AF0346FB710023BA
:1042D000FB610023BB61FB79172B00F2248301A251
:1042E00052F823F04543020069430200694302008B
:1042F0000F440200B544020045450200E9450200B2
:1043000075460200AF460200E94602002947020056
:1043100063470200A3470200C1470200C1470200F1
:10432000C1470200C1470200C14702004F480200D6
:104330006D480200A1480200D54802000949020068
:10434000094902004FF0A042C54B1B68DB4303F450
:10435000F013C2F808354FF0A0430022C3F80C2533
:10436000C04AFB791370DFE24FF0A042BC4B1B68E0
:10437000DB4303F4E013C2F808354FF0A0430022FA
:10438000C3F80C254FF0A043D3F8043583F4F013A1
:1043900003F40033002B14D04FF0A0434FF400324D
:1043A000C3F808254FF0A0430022C3F80C25FB7981
:1043B000022B02D14FF4E16301E04FF47A63BB6159
:1043C00012E04FF0A0434FF40032C3F80C254FF039
:1043D000A0430022C3F80825FB79022B01D1C82392
:1043E00001E04FF4C873BB619E4AFB7913709E488D
:1043F000BB699E4AA2FB03235B099D4A126802FB2C
:1044000003F300221946FCF76FF8F8618CE24FF0D5
:10441000A042934B1B68DB4303F4E013C2F808355A
:104420004FF0A0430022C3F80C254FF0A043D3F86F
:10443000043583F4F01303F40033002B14D04FF051
:10444000A0434FF40032C3F808254FF0A0430022E8
:10445000C3F80C25FB79032B02D14FF4487301E01C
:104460004FF47A63BB6112E04FF0A0434FF4003287
:10447000C3F80C254FF0A0430022C3F80825FB79B0
:10448000032B01D1C82301E04FF4C873BB61754A07
:10449000FB7913707448BB69744AA2FB03235B0960
:1044A000734A126802FB03F300221946FCF71CF85A
:1044B000F86139E24FF0A042694B1B68DB4303F41B
:1044C000E013C2F808354FF0A0430022C3F80C25D2
:1044D0004FF0A043D3F8043583F4F01303F4003312
:1044E000002B0ED04FF0A0434FF40032C3F8082544
:1044F0004FF0A0430022C3F80C254FF47A63BB6150
:104500000DE04FF0A0434FF40032C3F80C254FF0FC
:10451000A0430022C3F808254FF4C873BB61514A79
:10452000FB7913705048BB69504AA2FB03235B0917
:104530004F4A126802FB03F300221946FBF7D4FF2F
:10454000F861F1E14FF0A042454B1B68DB4303F4F7
:10455000E013C2F808354FF0A0430022C3F80C2541
:104560004FF0A043D3F8043583F4F01303F4003381
:10457000002B13D04FF0A0434FF40032C3F80825AE
:104580004FF0A0430022C3F80C25FB79052B01D185
:10459000C82301E04FF47A63BB6112E04FF0A043FF
:1045A0004FF40032C3F80C254FF0A0430022C3F8AB
:1045B0000825FB79052B01D1C82301E04FF4C8730E
:1045C000BB61284AFB7913702748BB69274AA2FBC5
:1045D00003235B09264A126802FB03F300221946F3
:1045E000FBF782FFF8619FE14FF0A0421C4B1B6874
:1045F000DB4303F4E013C2F808354FF0A043002278
:10460000C3F80C254FF0A043D3F8043583F4F0131E
:1046100003F40033002B0BD04FF0A0434FF40032D3
:10462000C3F808254FF0A0430022C3F80C250AE088
:104630004FF0A0434FF40032C3F80C254FF0A043D5
:104640000022C3F80825074AFB7913700648084B77
:104650001B6800221946FBF747FFF86164E100BFC1
:10466000782400206C2400207C2400201F85EB513E
:10467000702400204FF0A042AE4B1B68DB4303F4D4
:10468000E013C2F808354FF0A0430022C3F80C2510
:104690004FF0A0434FF40032C3F80C254FF0A04375
:1046A0000022C3F80825A44AFB7913703CE14FF0BF
:1046B000A043D3F804357B614FF0A0427B69DB4314
:1046C00003F48023C2F808354FF0A0427B6903F45D
:1046D0008023C2F80C359948994B1B680022194673
:1046E000FBF702FFF8611FE14FF0A043D3F8043558
:1046F0003B614FF0A0423B69DB4303F48023C2F8E7
:1047000008354FF0A0423B6903F48023C2F80C3512
:104710008A488B4B1A6813469B00134400221946A3
:10472000FBF7E2FEF861FFE04FF0A043D3F8043559
:10473000FB604FF0A042FB68DB4303F48023C2F828
:1047400008354FF0A042FB6803F48023C2F80C3513
:104750007A487B4B1B6800221946FBF7C5FEF861BF
:10476000E2E04FF0A043D3F80435BB604FF0A04225
:10477000BB68DB4303F48023C2F808354FF0A04246
:10478000BB6803F48023C2F80C356C486C4B1A6884
:1047900013469B00134400221946FBF7A5FEF8615F
:1047A000C2E04FF0A0434FF4F012C3F80C254FF0D5
:1047B000A0430022C3F808255F4AFB791370B3E0D9
:1047C000604B1846FBF7C4FEF861FB79C3F1110397
:1047D000BB61BB69002B29D0FB69002B26D1554B4F
:1047E0004FF400221A60BB69012B11D95548BB69EF
:1047F000C82202FB03F3544AA2FB03235B09504A7D
:10480000126802FB03F300221946FBF76DFEF86104
:104810004FF0A042474B1B6803F4F013C2F80C356D
:104820004FF0A0430022C3F808257DE04FF0A042DE
:10483000404B1B6803F4F013C2F808354FF0A04357
:104840000022C3F80C253B4B00221A606CE04FF0AD
:10485000A0434FF4F012C3F808254FF0A043002204
:10486000C3F80C25344AFB7913705DE04FF0A04388
:104870004FF4E012C3F808254FF0A0430022C3F81C
:104880000C254FF0A0434FF40032C3F80C254FF035
:10489000A0430022C3F80825274AFB79137043E0A0
:1048A0004FF0A0434FF4D012C3F808254FF0A043B7
:1048B0000022C3F80C254FF0A0434FF48022C3F828
:1048C0000C254FF0A0430022C3F808251A4AFB79B3
:1048D000137029E04FF0A0434FF4C012C3F808252D
:1048E0004FF0A0430022C3F80C254FF0A0434FF433
:1048F000C022C3F80C254FF0A0430022C3F80825BE
:104900000D4AFB7913700FE04FF0A0434FF4F01203
:10491000C3F80C254FF0A0430022C3F80825064A2F
:10492000FB79137000E000BFFB6918462037BD46D5
:1049300080BD00BF782400206C2400207C2400204F
:10494000702400209C2400201F85EB5180B582B08C
:1049500000AF7860074B1B6803F00103002B04D005
:10496000054B1B781846FFF7ADFC00BF0837BD4666
:1049700080BD00BF742400206C24002080B485B06A
:1049800000AF78604FF0A043D3F80435FB604FF0E0
:10499000A042FB68DB4303F40023C2F808354FF064
:1049A000A042FB6803F40023C2F80C3500BF1437A3
:1049B000BD465DF8047B704780B584B000AF034608
:1049C000FB710023FB60084B1B6803F00103002B05
:1049D00004D0FB791846FFF775FCF860FB681846B1
:1049E0001037BD4680BD00BF7424002080B586B05E
:1049F00000AFF860B9607A6000237B61334ABB681E
:104A00001360334AFB681360324A7B681360FB68AB
:104A100003F00203002B2BD000233B6108E00122AE
:104A20000121386900F066F878613B6901333B6128
:104A30003B69032B02D87B69002BF0D07B69002BEC
:104A400007D1BB685B081A4604212348FAF738FEF1
:104A500078617B69002B02D1FAF79CFE78617B6953
:104A6000002B05D11D4A00211D48FBF709FD786187
:104A7000FB6803F00103002B10D04FF0A0434FF46C
:104A8000F012C3F808254FF0A0430022C3F80C250C
:104A90004FF0A0434FF4F012C3F818257B69002BA8
:104AA00005D1104A00211048FBF7EAFC78617B69C8
:104AB000002B05D10D4A01210D48FBF7E1FC78617F
:104AC0007B6918461837BD4680BD00BF70240020A2
:104AD00074240020BC240020B0E30200A94202009C
:104AE0009CE302004D49020094E302007D4902006C
:104AF00098E3020080B485B000AF78600B46FB708D
:104B00001346BB700023FB607B68032B35D8BB7852
:104B1000012B09D1FB78012B04D17B68DBB20D336B
:104B2000DBB200E00023BB70FB78012B04D0022B2A
:104B30000BD0002B13D01CE014497A6813465B009D
:104B400013440B44BA781A7019E010497A68134676
:104B50005B0013440B440133BA781A700FE00B4921
:104B60007A6813465B0013440B440233BA781A7018
:104B700005E00723FB6000BF01E00723FB60FB6843
:104B800018461437BD465DF8047B7047C0240020EA
:104B900080B487B000AF786000237B612EE04FF0D7
:104BA000A0421B497B6951F8233003F5E07352F8AA
:104BB00023303B6101227B6902FA03F31A467B68CA
:104BC0001340002B01D0032300E00023FB603B696E
:104BD00023F440333B61FB681B043A6913433B6198
:104BE0004FF0A0410A4A7B6952F8233003F5E07385
:104BF0003A6941F823207B6901337B617B69032B90
:104C0000CDD9002318461C37BD465DF8047B70479C
:104C1000A0E3020080B582B000AF01220021002095
:104C2000FFF768FF78607B68002B04D07B68072B58
:104C300001D07B681CE0072202210120FFF75AFF08
:104C400078607B68002B04D07B68072B01D07B68E1
:104C50000EE0042202210020FFF74CFF78607B6801
:104C6000002B04D07B68072B01D07B6800E0002379
:104C700018460837BD4680BD80B582B000AF01221E
:104C800002210020FFF736FF78607B68002B04D0FC
:104C90007B68072B01D07B681CE0072202210120E2
:104CA000FFF728FF78607B68002B04D07B68072B18
:104CB00001D07B680EE00A2200210020FFF71AFFD6
:104CC00078607B68002B04D07B68072B01D07B6861
:104CD00000E0002318460837BD4680BD80B584B08B
:104CE00000AF786007F10B0319460020FFF714FAB4
:104CF000F860FB68002B01D0FB681DE007F10A0398
:104D000019460120FFF708FAF860FB68002B01D074
:104D1000FB6811E0BB7A002B03D07B6802221A707B
:104D200009E0FB7A002B03D07B680B221A7002E0AB
:104D30007B6800221A70002318461037BD4680BDDC
:104D400080B582B000AF0320FFF722FF78607B6858
:104D5000002B04D07B68062B01D07B6800E0002389
:104D600018460837BD4680BD80B584B000AF786076
:104D70007B681B88102B02D0112B18D02FE01A4B08
:104D80001B68002B0DD1FFF745FFF860FB68002B77
:104D900007D0164B1B68002B03D0144B1B68F86818
:104DA0009847114B1B6801330F4A136017E00E4BF5
