:020000021000EC
:10F0000000000120C55D0200ED5D0200EF5D020021
:10F01000F15D0200F35D0200F55D020000000000FA
:10F02000000000000000000000000000F75D02008A
:10F03000F95D020000000000FB5D0200FD5D0200C2
:10F04000E1280200FF5D0200354602005147020040
:10F05000FF5D0200FF5D0200E1310200FF5D020082
:10F06000B5480200D1480200ED480200FF5D0200F1
:10F07000FF5D0200FF5D0200FF5D0200FF5D020018
:10F08000FF5D020025100200FF5D0200FF5D02002F
:10F0900065100200FF5D020055640200FF5D020082
:10F0A000FF5D0200FF5D02000949020025490200E0
:10F0B000B5500200FF5D02000000000000000000EB
:10F0C000FF5D0200CD500200E5500200FF5D02002E
:10F0D000FF5D0200FF5D0200FF5D02000000000016
:10F0E0000000000000000000000000000000000020
:10F0F0000000000000000000000000000000000010
:10F1000000000000000000000000000000000000FF
:10F1100000000000000000000000000000000000EF
:10F4000010B5054C237833B9044B13B10448AFF35E
:10F4100000800123237010BDC421002000000000E3
:10F4200038700200084B10B51BB108490848AFF30B
:10F4300000800848036803B910BD074B002BFBD0C0
:10F44000BDE81040184700BF00000000C8210020A0
:10F4500038700200B021002000000000154B002B86
:10F4600008BF134B9D46A3F5803A00218B460F46FB
:10F470001348144A121A00F065F80F4B002B00D005
:10F4800098470E4B002B00D0984700200021040025
:10F490000D000D48002802D00C48AFF3008000F0AA
:10F4A0002BF82000290006F04FFC00F011F800BFF7
:10F4B0000000080000000120000000000000000023
:10F4C000C4210020182B00200000000000000000D4
:10F4D00008B5074B044613B10021AFF30080054B7C
:10F4E0001868836A03B19847204600F033F800BFDC
:10F4F00000000000086F020070B50E4B0E4CE41ABD
:10F50000A41000251E46A54204D056F82530984781
:10F510000135F8E707F0ECFC084C094BE41AA4109D
:10F5200000251E46A54204D056F8253098470135DF
:10F53000F8E770BDA8210020A8210020AC21002000
:10F54000A821002002440346934202D003F8011B85
:10F55000FAE77047FEE700BF80B483B000AF786081
:10F5600039607B681B78012B02D1044B01221A7091
:10F5700000BF0C37BD465DF8047B7047E2220020D7
:10F58000B0B58CB000AF0346FB71214B1B78002B4C
:10F5900006D0204B1B78FA799A4201D1002333E040
:10F5A0001D4B07F10C041D460FCD0FC495E80F004D
:10F5B00084E80F00002387F820300623FB6008232F
:10F5C0003B610523BB6107237B614FF0EB737B62DB
:10F5D000124804F0C5FCFB79002B01D0002200E0AA
:10F5E0000F4A07F10C0319460C4804F075FCF86249
:10F5F000FB6A002B01D0FB6A06E0054B01221A7062
:10F60000044AFB791370002318463037BD46B0BD5D
:10F61000E0220020E12200200C6F02008C2100205B
:10F6200059F5010080B582B000AF0023FB71054899
:10F6300004F0F2FD0346FB71FB7918460837BD461E
:10F6400080BD00BF8C21002080B584B000AF786001
:10F6500039600123FB733A6879680A4806F0BCFFF9
:10F660003B68DBB21A460749074804F08DFDB860D5
:10F67000BB68002B01D00023FB73FB7B18461037BF
:10F68000BD4680BDE02100208C21002080B485B0E3
:10F6900000AF786039603B68002B02DA0023FB730F
:10F6A00007E07B681A683B681A447B681A6001238C
:10F6B000FB73FB7B18461437BD465DF8047B70472F
:10F6C00080B586B000AFF860B9607A6000233B6116
:10F6D0000123FB75FB68002B10D03B69BA68D0187A
:10F6E000FB681B681A46094906F082FF38613969D0
:10F6F0007868FFF7CBFF0346FB7502E07B680022CA
:10F700001A60FB7D18461837BD4680BD2C6F02007D
:10F71000F0B5CFB004AF044607F11000016007F167
:10F720000C010A6007F10802136007F11703224673
:10F730001A700023C7F8243107F11C0300221A6055
:10F74000012387F82331FFF76DFF0346002B01D01B
:10F7500000233BE107F11C031B6807F12002D118CD
:10F7600007F11C0207F110031868FFF7A9FF034611
:10F7700083F00103DBB2002B01D0002326E1D7F890
:10F780004031062B00F2FC8001A252F823F000BFAA
:10F79000ADF70100EBF701000FF801003DF80100A3
:10F7A00079F80100C3F801001BF9010007F10C030F
:10F7B000186806F041FF0346C7F82431D7F8242122
:10F7C00007F11C031B681344FF2B00F2DB8007F1D9
:10F7D0001C031B6807F12002D018D7F8242107F179
:10F7E0000C03196806F0F8FECCE007F11C031B6857
:10F7F00007F12002D01807F108031B681A6807F107
:10F800000C03196806F0F4FEC7F82401BBE007F109
:10F810001C031B6807F12002D01807F108031B68BE
:10F820001A6807F108031B6804331B6807F10C0111
:10F83000096806F0DDFEC7F82401A4E007F11C0307
:10F840001B6807F12002D01807F108031B681A682B
:10F8500007F108031B6804331C6807F108031B68E1
:10F8600008331B6807F10C0100932346096806F072
:10F87000BFFEC7F8240186E007F11C031B6807F1EF
:10F880002002D01807F108031B681C6807F1080361
:10F890001B6804331D6807F108031B6808331B68E5
:10F8A00007F1080212680C32126807F10C0101928C
:10F8B00000932B462246096806F09AFEC7F82401F9
:10F8C00061E007F11C031B6807F12002D41807F15F
:10F8D00008031B681D6807F108031B6804331E68D2
:10F8E00007F108031B6808331B6807F10802126858
:10F8F0000C32126807F1080109681031086807F135
:10F900000C0102900192009333462A460968204672
:10F9100006F06EFEC7F8240135E007F11C031B68F2
:10F9200007F12002D51807F108031B681E6807F1CC
:10F9300008031B6804331B687B6007F108031B681E
:10F9400008331B6807F1080212680C32126807F1CD
:10F95000080109681031086807F1080109681431C5
:10F960000C6807F10C0103940290019200937B68EC
:10F9700032460968284606F03BFEC7F8240102E03B
:10F9800000BF00E000BF07F11C03D7F824111846A0
:10F99000FFF77CFE034687F8233197F8233183F085
:10F9A0000103DBB2002B05D107F11C031B68B3F583
:10F9B000807F01D9002309E007F11C031A6807F1D1
:10F9C000200311461846FFF73FFE0346184607F589
:10F9D0009677BD46F0BD00BF80B485B000AF03464A
:10F9E0003960FB710223FB6018E0FA79FB689B0029
:10F9F00042FA03F3DBB203F00F03FB72FB68C3F1BF
:10FA000001033A681A44FB7A092B03D9FB7A37338E
:10FA1000DBB202E0FB7A3033DBB21370FB685A1EB4
:10FA2000FA60002BE1D100BF1437BD465DF8047BBE
:10FA3000704700BF80B483B000AF0346FB71FB7911
:10FA40001F2B04D9FB797E2B01D8FB7900E02E23F4
:10FA500018460C37BD465DF8047B704790B5D1B0B1
:10FA600000AF044607F108000160391D0A603A46FC
:10FA7000136007F10F0322461A7007F110030022EA
:10FA80001A603B461B68C7F82C31D7F85421D7F8C9
:10FA90005C311344C7F8243107F108031B68002BBD
:10FAA00001D00A2300E00023C7F82031FFF7BAFD98
:10FAB0000346002B02D03B461B6823E13B461B68F4
:10FAC000002B37D107F110031B6807F11402D1187E
:10FAD00007F1100207F108031868FFF7F1FD03466C
:10FAE00083F00103DBB2002B02D03B461B6809E127
:10FAF0003B1D186806F0A0FDC7F81C01D7F81C31A3
:10FB0000C22B28BFC223C7F81C3107F110031B68A2
:10FB100007F11402D0183B1DD7F81C21196806F014
:10FB20005BFD07F110031A68D7F81C311A4407F17E
:10FB300010031A6007F110031B68C7F81831D7F8D3
:10FB40001821D7F8203113443133C7F8143107F1A5
:10FB50001402D7F818311344C7F83C3107F11402E6
:10FB6000D7F814311344C7F838310023C7F82831C7
:10FB70000DE0D7F83C3120221A70D7F83C31013320
:10FB8000C7F83C31D7F828310133C7F82831D7F806
:10FB90002821D7F820319A42EBD30023C7F830311F
:10FBA00065E0D7F82C21D7F824319A421CD3D7F836
:10FBB0003C315A1CC7F83C2120221A70D7F83C313E
:10FBC0005A1CC7F83C2120221A70D7F83C315A1C25
:10FBD000C7F83C2120221A70D7F838315A1CC7F8D0
:10FBE000382120221A703DE0D7F82C21D7F8543163
:10FBF0009A4208D2D7F85021D7F82C3113441B78F9
:10FC000087F837310AE0D7F82C21D7F85431D31AC6
:10FC1000D7F8582113441B7887F8373197F83731D4
:10FC2000D7F83C111846FFF7D7FED7F83C3102331E
:10FC3000C7F83C31D7F83C315A1CC7F83C21202288
:10FC40001A70D7F83841631CC7F8383197F8373144
:10FC50001846FFF7EFFE03462370D7F82C31013327
:10FC6000C7F82C31D7F830310133C7F83031D7F825
:10FC700030310F2B95D9D7F838315A1CC7F83821B5
:10FC80000D221A70D7F838315A1CC7F838210A22C9
:10FC90001A70D7F83C315A1CC7F83C2120221A7040
:10FCA00007F110031A68D7F82031134403F1430217
:10FCB00007F110031A6007F110031A6807F1140323
:10FCC00011461846FFF7C0FC034683F00103DBB280
:10FCD000002B02D0D7F82C3114E0FFF7A3FC034629
:10FCE000002B02D0D7F82C310CE007F110030022D2
:10FCF0001A60D7F82C21D7F824319A42FFF41AAFB2
:10FD0000D7F82C31184607F5A277BD4690BD00BF45
:10FD100080B400AF024B1846BD465DF8047B7047C7
:10FD200011F7010080B400AF024B1846BD465DF8E4
:10FD3000047B70475DFA010090B585B000AF786034
:10FD40000020FFF71DFCF860FB68002B0AD1FFF7CD
:10FD5000DFFF0446FFF7E6FF03467A6819462046B0
:10FD600000F00EF8FB6818461437BD4690BD00BF82
:10FD700080B500AF0120FFF703FC0346184680BDA5
:10FD800080B584B000AFF860B9607A60084BFF229C
:10FD90009A60074B00221A60054B00225A60B9682E
:10FDA000F86800F007F800BF1037BD4680BD00BFFF
:10FDB000E422002080B483B000AF78603960074A45
:10FDC0007B68C2F81034054A3B68C2F8143400BF9F
:10FDD0000C37BD465DF8047B704700BFE42200206D
:10FDE00080B588B000AF78607B6801337B60012309
:10FDF000BB610123FB770023FB7307F10F03184658
:10FE000001F092FA274B9A68264B5968254B1B68DC
:10FE1000CB1A134401337B617A68BB6913443B619D
:10FE20003A697B699A422DD97B69002B27D03B7AAE
:10FE3000012262F301033B723B7A6FF382033B7250
:10FE40003B7A052262F3C5033B723B896FF389134A
:10FE50003B81154B1B68C3F31502BB6862F39F23FC
:10FE6000BB60104B1B685A1C0E490A600D4A926811
:10FE70001340BA680B4902339B000B445A600023BD
:10FE8000FB7705E0074B1A687B681344054A13604B
:10FE9000FB7B184601F054FAFB7F18462037BD461D
:10FEA00080BD00BFE42200209421002080B586B0F0
:10FEB00000AF03463960FB7100237B611D4B9B68DB
:10FEC0003B611C4B1B68FB607869FFF789FF0346A9
:10FED000002B2BD03B7A012262F301033B723B7A69
:10FEE0006FF382033B72FB7903F00703DAB23B7ACC
:10FEF00062F3C5033B727B69DBB203F00F03DAB236
:10FF00003B8962F389133B813B68C3F31502BB68ED
:10FF100062F39F23BB60FB685A1CFA603A69134086
:10FF2000BA68044902339B000B445A6000BF18377B
:10FF3000BD4680BDE422002080B400AF064B5A6865
:10FF4000054B1B689A420CBF01230023DBB2184605
:10FF5000BD465DF8047B7047E422002090B59DB05B
:10FF600004AFFFF7E9FF0346002B01D000232FE188
:10FF7000994B5B68FB65984B9B683B64FB6DBB656D
:10FF8000FB6D5A1CFA653A6C1340934A02339B008E
:10FF900013445B68BB611AE07B8BC3F389139BB28C
:10FFA0001A463B8BC3F389139BB213441A46FB6D6D
:10FFB0001344FB65FB6DBB65FB6D5A1CFA653A6C1F
:10FFC0001340854A02339B0013445B68BB613B7E50
:10FFD00003F00303DBB2002BDED000237B653B7E06
:10FFE00003F00403DBB2002B01D000237B65002368
:10FFF00087F853303B7E03F00303DBB2022B40F063
:020000022000DC
:10000000A180FB6D5A1CFA653A6C1340724A0233A8
:100010009B0013445B68FB637B8BC3F389139BB228
:10002000BB633B8BC3F389139BB2FB64FB6DDA4369
:100030003B6C134001339B007B63BA6B7B6B9A4232
:1000400043D97B6B002B08D0FA6D3B6C1340023315
:100050009B00614A1344043300E0604B3B637B6BBD
:10006000002B02D07B6BDBB201E0BB6BDBB287F80D
:100070002F307B6B002B01D0584B00E00023BB627C
:100080007B6B002B06D0BB6BDAB27B6BDBB2D31A77
:10009000DBB200E0002387F827304F4BD3F814443D
:1000A0003B7EC3F3C203DBB2184697F82F3097F8B4
:1000B00027200392BA6A029201933B6B0093FB6C78
:1000C000FA6B796DA047F8641BE0434BD3F81444F6
:1000D0003B7EC3F3C203DBB21846FA6D3B6C1340A0
:1000E00002339B003C4A1344043300220392002253
:1000F0000292BA6B01920093FB6CFA6B796DA04788
:10010000F864FA6CBB6B9A4209D1BB6B03339B0852
:10011000FA6D1344FB65012387F8533048E0FB6C0C
:100120009BB2C3F309039AB23B8B62F38F133B83F9
:10013000BA6D3B6C1340BA69274902339B000B44EC
:100140005A6035E03B46BB64BB69C3F395233B6211
:100150003B8BC3F38313DBB2FB6100237B6411E0B1
:10016000FB6D5A1CFA653A6C13401B4A02339B0024
:1001700013445A68BB6C1A60BB6C0433BB647B6C61
:1001800001337B647A6CFB699A42E9D3124BD3F852
:1001900010443B7EC3F3C203DBB218463A46FB6908
:1001A000009313463A6A796DA047034687F85330A7
:1001B00097F85330002B02D0074AFB6D5360FFF7CE
:1001C000BBFE0346002B01D0002300E0012300BF4B
:1001D00018466437BD4690BDE4220020F02200207E
:1001E00080B588B000AF78600023FB774BE02A4BE6
:1001F0001A68FB7FDB001344BB61BB691B781A469E
:10020000012393407B61254B1A687B691340002BC7
:1002100036D07B69DA43214B1B6813401F4A1360B9
:10022000BB691B78184602F0C9FF0346FB74BB6923
:100230001B781A46012393401A46194B1B6813403A
:10024000FA7CB96909788A40934219D1FB7CBA6972
:100250005278012A0CBF01220022D2B293420CBF75
:1002600001230023DBB2FB60BB695B68002B07D076
:10027000BB695B68BA691278F968C9B210469847D9
:10028000FB7F0133FB77074B1B78FA7F9A42AED393
:1002900000BF2037BD4680BDFC2600202C27002053
:1002A000282700200027002080B584B000AF7860A8
:1002B0000B46FB7001227B6802FA03F3FB601E4BC6
:1002C000184600F093FFB860BB68002B30D11B4B81
:1002D0001A68FB681340002B22D1786802F06EFF89
:1002E0000346002B06D0164B1A68FB681343144ACA
:1002F000136006E0FB68DA43114B1B681340104A99
:1003000013600E4B1A68FB6813430C4A13600A48CB
:100310000C4B1B680022194600F034FFB86008E05F
:10032000FB68DA43054B1B681340044A136000E086
:1003300000BF1037BD4680BD082700202C270020B5
:10034000282700200427002080B588B000AFF8607F
:100350000B467A60FB727B68042B01D8072349E0C7
:1003600002F054FE034683F00103DBB2002B07D0FA
:1003700002F010FEF861FB69002B01D0FB6939E047
:100380001E4AFB6813601E4AFB7A13701D4A7B6885
:1003900013601D4B00221A601C4B00221A601EE0E5
:1003A000FB7ADB00FA681344BB6103233B7500232F
:1003B0007B750023BB750023FB75BB699B787B7540
:1003C000BB691B78184607F11403114A194602F05D
:1003D0002FFEF861FB69002B01D0FB690AE0FB7A74
:1003E0005A1EFA72002BDBD10A4A00210A4800F09B
:1003F00095FE034618462037BD4680BDFC260020EA
:100400000027002004270020282700202C27002078
:10041000A9020200E1010200406F020080B582B033
:1004200000AF00237B600CE00B4B1A687B68DB009D
:1004300013441B780121184602F054FE7B680133F7
:100440007B60064B1B781A467B689A42ECD80023E7
:1004500018460837BD4680BDFC2600200027002036
:1004600080B586B000AF78600023BB8100233B617C
:100470007B687B6107F10C031A46002144F20100FE
:1004800000F018F800BF1837BD4680BD80B400AF3B
:10049000BFF34F8F0549054BDB6803F4E062044B63
:1004A0001343CB60BFF34F8F00BFFDE700ED00E0CB
:1004B0000400FA0580B584B000AFF860B9607A60D6
:1004C00008490120FFF7F2FCFFF752FC00BFFFF7DD
:1004D00045FD0346002BFAD1FFF7D8FF00BF1037C8
:1004E000BD4680BD446F020080B483B000AF0346B8
:1004F000FB71094997F907305B09FA7902F01F028D
:10050000012000FA02F241F8232000BF0C37BD465B
:100510005DF8047B704700BF00E100E080B483B069
:1005200000AF0346FB71094997F907305B09FA7977
:1005300002F01F02012000FA02F2203341F82320CA
:1005400000BF0C37BD465DF8047B704700E100E05A
:1005500080B483B000AF0346FB71094997F90730B7
:100560005B09FA7902F01F02012000FA02F240331F
:1005700041F8232000BF0C37BD465DF8047B70476F
:1005800000E100E080B483B000AF0346FB7109498D
:1005900097F907305B09FA7902F01F02012000FA8F
:1005A00002F2603341F8232000BF0C37BD465DF8EE
:1005B000047B704700E100E080B483B000AF0346E5
:1005C0003960FB7197F90730002B0BDA0D49FB7985
:1005D00003F00F03043B3A68D2B25201D2B20B448B
:1005E0001A7609E0084997F907303A68D2B2520101
:1005F000D2B20B4483F8002300BF0C37BD465DF830
:10060000047B704700ED00E000E100E080B483B0BF
:1006100000AF78607B6803F00303002B0CBF01235D
:100620000023DBB218460C37BD465DF8047B7047EB
:1006300080B485B000AF7860254BFB607B68002BF1
:1006400040D0244B1A68F9687B6800BF00BF00BF28
:1006500000BF00BF00BF00BF00BF8A422FD000BF55
:1006600000BF00BF00BF00BF00BF00BF00BF00BF92
:1006700000BF00BF00BF00BF00BF00BF00BF00BF82
:1006800000BF00BF00BF00BF00BF00BF00BF00BF72
:1006900000BF00BF00BF00BF00BF00BF00BF00BF62
:1006A00000BF00BF00BF00BF00BF00BF00BF00BF52
:1006B00000BF00BF00BF00BF00BF00BF00BF013BC5
:1006C000C3D17B6000BF1437BD465DF8047B704723
:1006D0000024F400A421002080B582B000AF78602F
:1006E000054A7B68C2F8083506211120FFF764FF30
:1006F00000BF0837BD4680BD0010014080B500AF87
:100700000D4B4FF48032C3F844230B4B4FF480322F
:10071000C3F804231120FFF735FF1120FFF7E4FE93
:10072000054B01221A602F20FFF782FF034B0122A5
:100730001A7000BF80BD00BF00100140502700208C
:1007400080B500AF1120FFF7E9FE0F4B4FF4803268
:10075000C3F848230C4B4FF48032C3F808230A4BEC
:1007600001225A602F20FFF763FF074B01229A6096
:10077000064B00221A602F20FFF75AFF044B00227D
:100780001A7000BF80BD00BF001001403C27002050
:100790005027002080B400AF034BD3F8043518462F
:1007A000BD465DF8047B70470010014080B483B003
:1007B00000AF786039607A683B68D31A23F07F43D2
:1007C00018460C37BD465DF8047B704780B483B093
:1007D00000AF7860044A7B68C2F8403500BF0C3730
:1007E000BD465DF8047B70470010014080B487B0BF
:1007F00000AF7860294B1B68002B03D1274A7B6828
:10080000136045E07B681A68244B1B681B689A429A
:1008100010D8224B1B68214A126811687A68126846
:100820008A1A1A601D4B1A687B68DA611B4A7B685A
:1008300013602DE07B681B68FB60184B1B687B61B5
:10084000164B1B683B6109E03B691B68FA68D31AC9
:10085000FB603B697B613B69DB693B613B69002B6A
:1008600004D03B691A68FB689A42EDD33B69002BC0
:1008700005D03B691A68FB68D21A3B691A607B682D
:10088000FA681A607B683A69DA617B697A68DA61CA
:1008900000BF1C37BD465DF8047B70473827002039
:1008A00080B487B000AF7860234B1B687B617B69A5
:1008B0003B6108E03A697B689A4208D03B697B61FA
:1008C0003B69DB693B613B69002BF3D100E000BF72
:1008D0003B69002B29D07A693B699A4211D1164BAA
:1008E0001B68DB69144A1360134B1B68002B08D18B
:1008F000124B01229A60124B00221A60114B012206
:100900001A703B691B68FB603B69DA697B69DA61D5
:100910007B69DB693B613B69002B07D03B691A6847
:10092000FB681A443B691A6000E000BF1C37BD46F3
:100930005DF8047B704700BF38270020001001409D
:100940003C2700205127002080B500AF1120FFF781
:10095000FFFD00BF80BD00BF80B500AF1420FFF7D2
:10096000F7FD00BF80BD00BF80B584B000AF7860E8
:100970000F4B1B68002B11D00D4B1B687A68506918
:100980007A68926911469847F860FB68BB60BB685B
:10099000002B09D0B868FFF763FD05E07B685B6951
:1009A0007A6892691046984700BF1037BD4680BDEF
:1009B0004C27002080B584B000AF2B4B1B68002B68
:1009C0004ED000237B60FFF7E5FE0246274B1B68F5
:1009D00019461046FFF7EAFEB860234B1B68FB6020
:1009E0001DE0FB681A68BB689A421CD8FB681B684C
:1009F000BA68D31ABB60FB681B687A6813447B60D3
:100A0000FB683B60FB68DB69FB603B681B7C002B81
:100A100005D03B6800221A743868FFF7A5FFFB6811
:100A2000002BDED100E000BF114B1A78114B1B7870
:100A30009A420CD10F4B1B780133DAB20D4B1A706E
:100A40000C4B1B78022B02D10A4B00221A70094B67
:100A50001B781946084A7B6842F82130FFF77CFF73
:100A600000BF1037BD4680BD382700203C2700203E
:100A700048270020492700204027002080B483B069
:100A800000AF7860194B1A78194B1B789A4223D023
:100A9000164B1B780133DAB2144B1A70134B1B78C8
:100AA000022B02D1114B00221A70104B1B781A46F0
:100AB000104B53F822207B681A607B681A680E4B33
:100AC0001B6813440C4A13600B4B1B6823F07F43D5
:100AD000094A1360012303E07B6800221A600023A7
:100AE00018460C37BD465DF8047B70474827002048
:100AF00049270020402700203C27002080B584B0F3
:100B000000AF244B1B78FB73234B1B68BB602FE0AB
:100B1000204B5968FA7B13465B001344DB000B44FF
:100B20007B60FB7B0133FB731A4B9B78FA7B9A4209
:100B300001D10023FB737B681B78022B02D0032BAF
:100B400010D014E07B685B681846FFF7A9FE0FE041
:100B5000114B1B683B603B6800221A743B68DB69E1
:100B60000D4A13600C4B1B68002BF1D100E000BF55
:100B7000084B5B78FA7B9A42CAD1074B1A68BB686C
:100B80009A4214BF01230023DBB218461037BD463A
:100B900080BD00BF302700203827002080B489B0F6
:100BA00000AFF860B9607A600023FB6138E0214B48
:100BB0001B68BB61BB691A68FB689A4206D9BB69AE
:100BC0001A68FB68D21ABB691A602DE0BB691B6802
:100BD000FA68D31AFB60BB691B68FA691344FB61AE
:100BE000BB6900221A60134B1B687B61BB69DB6920
:100BF000104A1360BB69DB68002B11D0BA68FB692F
:100C0000134423F07F42BB695A60BB69DA68BB6951
:100C10009A607B681A68BB69DA617B687A691A60D6
:100C2000044B1B68002BC2D100BF2437BD465DF8C2
:100C3000047B70473827002080B586B000AF78600D
:100C4000504B1B683B6185E07B68002B05D07B68BF
:100C50007B617B69DB697B603CE04B4B5A684A4BAC
:100C60001B7819460B465B000B44DB001344FB600A
:100C7000454B1B780133DAB2434B1A70424B1A785A
:100C8000414B9B789A4202D13F4B00221A70FB687D
:100C90005B687B61FB681B78012B5BD17B691B7CEC
:100CA000002B00D056E0FB689A687B695A60FB68AD
:100CB000DA687B699A60FB681A697B69DA60FB68AD
:100CC0005A697B699A61314B1B78002B02D07B6992
:100CD00000225A607B695A682D4B1B68D31A23F097
:100CE0007F432C4A93420ED87B695A68284B1B6875
:100CF00019461046FFF75AFD02467B699B681A4465
:100D00007B691A6017E0224B1A687B695B68194699
:100D10001046FFF74BFDB8607B699A68BB689A4242
:100D200006D97B699A68BB68D21A7B691A6002E0AF
:100D30007B6900221A607B6900225A607B6900226D
:100D40009A607B6901221A747B690022DA617869F2
:100D5000FFF74CFD7B68002B7FF476AF0A4B1A78C7
:100D6000094B5B789A427FF46FAF064B1A683B6978
:100D70009A4214BF01230023DBB218461837BD4640
:100D800080BD00BF382700203027002051270020D9
:100D90003C270020FEFF7F0090B589B000AF78604F
:100DA000254B1B68002B43D0234B1B681B68FB6142
:100DB000FFF7F0FCB861214B1B687B617969B8696A
:100DC000FFF7F4FC034603333B611D4B1B7883F0B4
:100DD0000103DBB2002B01D0FFF790FC3A69FB69FD
:100DE000934238BF13467A6913447B617B6923F0D1
:100DF0007F437B617869FFF7E9FCFFF7CBFCF86084
:100E0000B969F868FFF7D2FC0346DC1CB969786958
:100E1000FFF7CCFC03469C420AD9FFF7BBFC034614
:100E20001846FFF7D3FC2F20FFF702FCFFF78CFDDD
:100E300000BF2437BD4690BD382700203C27002046
:100E40005027002080B586B000AF00237B60184B90
:100E50001B683B61174B1B68FB603B461846FFF75E
:100E60000DFE0346FB72FFF749FE0346FB75FB7A56
:100E7000002B07D03B683A1D39691846FFF78EFEF4
:100E80000123FB757B681846FFF7D6FE0346002B4F
:100E900001D00123FB75FB7D002B02D0F868FFF722
:100EA0007BFF054B00221A7000BF1837BD4680BD7E
:100EB0003C270020382700205127002080B483B031
:100EC00000AF0346FB71044AFB79537000BF0C3737
:100ED000BD465DF8047B70473027002080B485B0A4
:100EE00000AF7860134B5B780133FB73114B9B7839
:100EF000FA7B9A4201D10023FB730E4B1B78FA7BDD
:100F00009A4201D100230EE07B68FA7B1A70094BEC
:100F10005A68084B5B7819460B465B000B44DB00B4
:100F20001344BB60BB6818461437BD465DF8047BAC
:100F3000704700BF3027002080B588B000AFF86050
:100F4000B9607A603B600023FB610023BB7507F149
:100F50001603184600F0E8F907F117031846FFF7E3
:100F6000BDFFB861BB69002B02D10423FB6117E010
:100F7000BB6901221A70BB69FA685A60FFF70AFC64
:100F80000246BB699A60BB69BA68DA60BB697A6875
:100F90001A61BB693A685A61FB7D1846FFF78EFFFC
:100FA000BB7D184600F0CCF9FB69002B01D1FFF79F
:100FB000D3FCFB6918462037BD4680BD80B586B09E
:100FC00000AF78600B46FB7000237B610023BB738E
:100FD00007F10E03184600F0A7F907F10F031846B2
:100FE000FFF77CFF38613B69002B02D104237B6152
:100FF00009E03B69FA781A703B697A685A60FB7BB2
:101000001846FFF75BFFBB7B184600F099F97B6938
:10101000002B01D1FFF7A0FC7B6918461837BD46AD
:1010200080BD00BF80B500AF0D4B0022C3F840214A
:101030000B4B0022C3F84421094B0022C3F848217E
:10104000074B0022C3F84C21054B0022C3F80021B6
:10105000034B0022C3F80421FFF7ACFC00BF80BDA6
:101060000010014080B500AFFFF7ECFE00BF80BD6F
:1010700080B584B000AFF8607A603B600B46FB72CD
:101080007868FFF7C3FA034683F00103DBB2002B55
:1010900001D0072331E07B68002B01D107232CE02E
:1010A000FFF74EFB174A3B681360174B00221A707C
:1010B000154B00225A70144AFB7A9370124A7B68CF
:1010C0005360124B00221A60114B00221A70114B10
:1010D00000221A701420FFF755FA06211420FFF79A
:1010E0006BFA1420FFF700FAF868FFF7F5FAFFF73C
:1010F00051FB0246084B1A60002318461037BD46C4
:1011000080BD00BF4C27002030270020382700205A
:1011100048270020492700203C27002080B487B0C2
:1011200000AFF8600B467A60FB72154B5B68002BD2
:1011300001D108231DE07B68002B01D1072318E0B3
:10114000FB68002B01D1072313E0FB681B681B7CA5
:10115000002B01D008230CE0FB681B687B617B69D6
:1011600000221A747B69FA7A5A747B697A685A6128
:10117000002318461C37BD465DF8047B704700BF4E
:101180003027002080B586B000AFF860B9607A6083
:10119000FB687B61144B5B68002B01D108231EE0C8
:1011A000FB68002B01D1082319E0BB68042B01D890
:1011B000072314E07B695B69002B01D108230EE053
:1011C0007B695B7C012B01D1BB6800E000233B61A4
:1011D0007B683A69B9687869FFF7AEFE034618463E
:1011E0001837BD4680BD00BF3027002080B584B0D1
:1011F00000AF78607B68FB600D4B5B68002B01D112
:10120000082310E07B68002B03D0FB685B69002B90
:1012100001D1082307E0FB6800221A740221F86854
:10122000FFF7CCFE034618461037BD4680BD00BF11
:101230003027002080B483B000AFEFF310833B6011
:101240003B687B6072B67B6818460C37BD465DF81C
:10125000047B704780B400AF62B600BFBD465DF846
:10126000047B704780B584B000AF7860FFF7E2FF81
:10127000F860164B9B68002B1BD1144B01229A601F
:10128000134BD3F88020134B1340104A1360104BBC
:10129000104AC3F880200E4BD3F884300B4A5360B9
:1012A0000B4B4FF0FF32C3F884207B6800221A708A
:1012B00002E07B6801221A70FB68002B01D1FFF766
:1012C000C9FF002318461037BD4680BD082B0020FB
:1012D00000E100E0FC06FFBC80B584B000AF03462F
:1012E000FB710F4B9B68002B15D0FB79002B12D1A3
:1012F000FFF7A0FFF8600B4A094B1B681360094A0F
:10130000074B5B685360064B00229A60FB68002B1A
:1013100001D1FFF79FFF002318461037BD4680BD5F
:10132000082B002000E100E080B582B000AF7860BB
:101330007868FFF797FF00BF0837BD4680BD00BF44
:1013400080B582B000AF0346FB71FB791846FFF70A
:10135000C3FF00BF0837BD4680BD00BF80B483B067
:1013600000AF78607B6803F00303002B0CBF012300
:101370000023DBB218460C37BD465DF8047B70478E
:1013800080B483B000AF0346FB71064B1A78FB793B
:101390001343DAB2034B1A7000BF0C37BD465DF839
:1013A000047B70475227002080B483B000AF03460F
:1013B000FB7197F90730DB435AB2074B1B785BB2DE
:1013C00013405BB2DAB2044B1A7000BF0C37BD4653
:1013D0005DF8047B704700BF5227002080B483B0C3
:1013E00000AF0346FB71084B1A78FB791340DBB260
:1013F000002B14BF01230023DBB218460C37BD4677
:101400005DF8047B704700BF5227002080B584B090
:1014100000AF78600023FB600EE00B4AFB6852F8D7
:101420002330002B05D0084AFB6852F82330786837
:101430009847FB680133FB60FB68072BEDD900BFC1
:101440001037BD4680BD00BF5427002080B483B054
:1014500000AF786039607B681B78013B052B5BD857
:1014600001A252F823F000BF811402008914020087
:10147000A9140200DB140200FB1402001115020083
:101480003B6800221A7048E03B6801221A707B68B2
:101490001A893B689A817B689A883B68DA817B6805
:1014A000DA683B689A6038E03B6802221A707B6811
:1014B0001A893B689A817B689A883B68DA817B68E5
:1014C000DA683B689A607B681B7C062B0CBF0123A3
:1014D0000023DAB23B681A741FE03B6803221A70DB
:1014E0007B68DA883B689A817B681A893B68DA8175
:1014F0007B68DA683B689A600FE03B6804221A70E8
:101500007B68DA883B689A813B680022DA8104E0D4
:101510003B6805221A7000E000BF00BF0C37BD46D3
:101520005DF8047B704700BF80B483B000AF786083
:101530007B689B884FF6FF72934205D07B681B88BF
:10154000002B01D0012300E0002303F00103DBB2F4
:1015500018460C37BD465DF8047B704780B582B0F5
:1015600000AF78607B68002B11D00D4B1A687B6848
:101570009A420CD80A4B5A687B689A4207D378681B
:10158000FFF7ECFE0346002B01D0012300E000230F
:1015900003F00103DBB218460837BD4680BD00BF2B
:1015A000B421002080B485B000AF786039600A2390
:1015B000FB6000237B811CE07B89134A1B011344E1
:1015C00004331A683B689A4210D27B890E4A1B0189
:1015D000134404331B6803F580523B689A4205D9D3
:1015E0000023FB607B687A891A8005E07B890133E0
:1015F0007B817B89012BDFD9FB6818461437BD46F8
:101600005DF8047B704700BF3428002080B483B0AD
:1016100000AF78600B467B807B681A897B88134417
:101620009BB203339AB27B681A817B685A897B88A4
:10163000D31A9BB2033B9AB27B685A8100BF0C3726
:10164000BD465DF8047B704780B582B002AF064BA3
:101650001968002300930223044A054801F000F8AA
:1016600003461846BD4680BD54280020606F020026
:10167000B421002080B584B002AF786000230093CD
:101680000223054A7968054800F0EAFF0346184638
:101690000837BD4680BD00BF686F0200B42100203E
:1016A00080B584B000AF03463960FB803B681B689F
:1016B000FB60FB68002B09D0FB68BB60BB685B88E4
:1016C00003339B00FA681344FB601CE0FB88184A54
:1016D0001B01134404331B680833FB6013E0FB68F1
:1016E000BB60B868FFF720FF0346002B04D03B68BF
:1016F000FA681A60012317E0BB685B8803339B001C
:10170000FA681344FB60FB88094A1B011344043345
:101710001B6803F58052FB689A4204D9FB681B687A
:10172000B3F1FF3FDBD1002318461037BD4680BD23
:101730003428002080B584B000AF786039607B68C1
:101740005B681846FFF70AFF0346002B19D07B6839
:101750001A89254B1B899A4213D17B681A687B68CA
:101760005B689B689A420CD17B685B681946386855
:10177000FFF718FF0346002B0CBF01230023DBB249
:101780002DE03B6800221A8024E00023BB6010E0BB
:10179000BB68FB60FB689A687B681B689A4208D14B
:1017A000BA687B685A60104B1A897B681A810123DA
:1017B00015E03B681B8807F1080211461846FFF741
:1017C0006FFF0346002BE3D13B681B8801339AB2BD
:1017D0003B681A803B681B88012BD6D9002318462A
:1017E0001037BD4680BD00BF5C28002080B586B0A4
:1017F00000AFF860B9607A603B600220FFF7EEFD51
:10180000034683F00103DBB2002B01D002234FE03B
:101810007B68002B02D03B68002B44D1052347E0B6
:101820003B689B88244A1B0113441B78002B33D14F
:1018300024E03B681B687B61FB68002B06D07B695A
:101840009A88FB681B889A4200D017E0BB68002B7F
:1018500006D07B691A88BB681B889A4200D00DE0CD
:101860007B699A687B681A603B681A687B685A6073
:10187000124B1A897B681A81002319E03B689B8808
:101880003A6811461846FFF70BFF0346002BD0D1EC
:101890003B6800221A6000E000BF3B689B88013370
:1018A0009AB23B689A803B689B88012BB8D90A237F
:1018B00018461837BD4680BD342800205C2800201B
:1018C00080B500AF124B1A6F1346DB009B1A9B00CA
:1018D0000F4A13441C2200211846FDF733FE0C4B1F
:1018E0005B6F002B0BD00A4B1B6F013303F003031C
:1018F000074A1367064B5B6F013B054A5367044B6E
:101900005B6F002B14BF01230023DBB2184680BDA0
:101910007427002080B483B000AF78600E4B5B6CFE
:10192000002B12D00C4B1B6CDB000B4A1A447B685B
:101930001A60094B1B6C013303F00703064A13645A
:10194000054B5B6C013B044A536400BF0C37BD463A
:101950005DF8047B704700BFEC27002080B483B0A3
:1019600000AF78607B681B78022B03D07B681B7804
:10197000032B0DD1094B1B6C7A68927D1344074AE7
:101980001364064B5B6C7A68927D9B1A034A53641E
:1019900000BF0C37BD465DF8047B7047EC27002084
:1019A00080B586B002AF786039607B681A1D00236D
:1019B000009301233968094800F052FE0346FB609A
:1019C0007B6802221A74FB68002B01D1002300E01F
:1019D0000E2318461037BD4680BD00BFB42100203D
:1019E00080B586B002AF786039603B6803F10801CA
:1019F0007B6803F10C020023009301230B4800F0E5
:101A00002FFE0346FB607B689B7D002B01D00322E9
:101A100000E001227B681A74FB68002B01D10023CF
:101A200000E00E2318461037BD4680BDB4210020CB
:101A300080B586B002AF786039603B68191D7B685D
:101A400003F108020023009301230C4800F008FE74
:101A50000346FB607B681B78032B01D1052200E065
:101A600006227B681A74FB68002B01D1002300E07A
:101A70000E2318461037BD4680BD00BFB42100209C
:101A800080B586B002AF7860002300930123084A36
:101A90007968084800F0E4FD0346FB73FB7B002BEC
:101AA00001D1002300E00E2318461037BD4680BD4B
:101AB0005C6F0200B421002080B588B000AF786070
:101AC00007F1080300221A605A609A607B68DB689D
:101AD000BB6007F1160207F1080311461846FFF72D
:101AE00029FE0346002B16D0FB68BB61BB699A88B0
:101AF0007B68DA80BB691A887B681A81FB681846A4
:101B0000FFF7BEFFF861FB8A064A1B0113440E3340
:101B100001221A7001E00A23FB61FB691846203795
:101B2000BD4680BD3428002080B586B000AF786007
:101B30007B68981D07F108020F4B0021FFF756FE46
:101B400078617B69002B0DD1FB681846FFF798FF81
:101B50007861094B9B88094A1B0113440E3301220B
:101B60001A7004E0082200210348FDF7EBFC7B69B2
:101B700018461837BD4680BD6C2800203428002048
:101B800080B586B002AF786039600023BB6007F192
:101B900008031846FFF7BEFE7B689B8A9B003A68E5
:101BA000D118BB681A68BB68988800230093034665
:101BB000114800F055FD0346FB607B689A8ABB68BC
:101BC0009B8813449AB27B689A827B689B7D013B19
:101BD000DAB27B689A757B689B7D002B02D17B68AB
:101BE00001221A74FB68002B01D1002300E00E23B0
:101BF00018461037BD4680BDB421002080B483B0A4
:101C000000AF154B1B8901339AB2134B1A81124B4B
:101C100000225A80104B00221A730023FB8011E02F
:101C2000FB88FA880D4912010A441278002A0CBF79
:101C300001220022D1B2084A13440A469A72FB8854
:101C40000133FB80FB88012BEAD900BF0C37BD466E
:101C50005DF8047B704700BF5C280020342800201A
:101C600080B485B000AF78600023FB730023BB8194
:101C700023E0BB89164A13449B7A002B1AD0BB89F8
:101C8000134A134400229A72BB89124A1B0113445F
:101C90000C331B88002B0DD1BB890E4A1B0113444A
:101CA0000E331B78002B05D07B68BA891A8001237C
:101CB000FB7305E0BB890133BB81BB89012BD8D9FC
:101CC000FB7B18461437BD465DF8047B704700BFA8
:101CD0005C2800203428002080B500AF074B052287
:101CE0001A70074B02229A80054B196800230122C3
:101CF000044800F01FFD0346184680BD5C28002004
:101D000054280020B421002080B582B000AF124BCF
:101D10005B887B807B88114A1B0113440C331B8832
:101D2000002B10D17B880D4A1B0113440433196822
:101D3000002301220A4800F0FDFC03467B60064BAD
:101D400004221A7002E0FFF7C7FF78607B6818462C
:101D50000837BD4680BD00BF5C2800203428002025
:101D6000B421002080B586B002AF104B5B68FB60E9
:101D70000F4B1A680E4B9B889B001344BB60FB689B
:101D80005B880333FB80094B03221A70074B5A68A8
:101D9000F988002300930B46B968064800F060FC00
:101DA000034618461037BD4680BD00BF5C280020A2
:101DB00054280020B421002080B582B000AF0A4B27
:101DC0005B880A491846FFF76BFC0346002B03D0DB
:101DD000FFF7C8FF786002E0FFF796FF78607B6846
:101DE00018460837BD4680BD5C28002060280020CA
:101DF00080B500AF074B06221A70064B5B88064A77
:101E00001B01134404331B681846FFF733FC0346D9
:101E1000184680BD5C2800203428002080B500AF23
:101E2000054B07221A70044B00225A60FFF70CFC86
:101E30000346184680BD00BF5C28002080B500AF77
:101E40000C48FFF70DFF034683F00103DBB2002BC4
:101E50000BD0094B00221A70074B00225A80064B08
:101E600000225A6041F61D5302E0FFF7A5FF03462A
:101E7000184680BD5E2800205C28002080B483B016
:101E800000AF0A4B5B687B607B685B8803337B80B9
:101E9000074B9A887B8813449AB2054B9A8000BFFF
:101EA0000C37BD465DF8047B704700BF5C280020FE
:101EB0005428002080B483B000AF144B1B687B60B3
:101EC000134B5B88134A1B01134404331B680F4AEE
:101ED00013600F4B5B880F4A1B01134404337A686D
:101EE0001A600B4B5B881846084B9988094A030116
:101EF000134408330A461A80044B02229A8000BF1A
:101F00000C37BD465DF8047B704700BF54280020A5
:101F10005C2800203428002080B500AF1A4B1B78C5
:101F2000072B2DD801A252F823F000BF4D1F02004D
:101F3000811F0200811F0200591F0200651F02005D
:101F4000711F0200711F0200791F0200FFF756FE89
:101F50000D4B01221A7014E0FFF790FF0A4B02228A
:101F60001A700EE0FFF7A6FF074B06221A7008E072
:101F7000054B07221A7004E0034B01221A7000E09F
:101F800000BF00BF80BD00BF5C28002080B586B0C8
:101F900000AF786039600F237B617B68002B04D031
:101FA0000120FFF701FA012398E03B681B79032B1E
:101FB00000F2888001A252F823F000BFCD1F02007A
:101FC000DB1F02004320020063200200FFF73CFBFE
:101FD00078613B6801221A7177E00023FB740023CB
:101FE0003B821CE03B8A3F4A1B0113441B78022BB7
:101FF00012D13B8A3B4A1B01134404331B68184629
:10200000FFF738FB78613B8A364A1B0113440022F4
:102010001A700123FB7405E03B8A01333B823B8A43
:10202000012BDFD9FB7C83F00103DBB2002B4BD00B
:102030000220FFF7A5F90120FFF7B6F941F61D537D
:102040004CE0294B196800230122284800F072FB5C
:1020500003467B61244B02229A803B6800221A715E
:1020600033E0214B1B681846FFF704FB7861204BD7
:102070005B88FB811C4B1B68BB60FB89194A1B01F9
:10208000134404331B68184A1360FB89154A1B016B
:1020900013440433BA681A60FB89134A9188114AC1
:1020A0001B01134408330A461A800F4B02229A8000
:1020B000FB890C4A1B01134400221A703B68002262
:1020C0001A7102E000BF00E000BF7B69002B04D062
:1020D0000120FFF769F90E2300E0002318461837A6
:1020E000BD4680BD3428002054280020B4210020A3
:1020F0005C28002080B586B000AF786039603B680E
:102100005B8A1B013A4A13443B617B68002B07D072
:102110003B68DB8819463869FFF778FA012363E0EA
:102120003B695A683B691B899B001344FB603B6811
:102130001B7C062B4BD801A252F823F0832102000E
:10214000A72102008F2102009B21020059210200D9
:10215000B3210200C7210200264B00225A603B68CF
:102160009B69244A136007F10A0319462148FFF7C7
:10217000E1FA034683F00103DBB2002B01D00A230E
:1021800032E0F9683868FFF70BFC786122E0F96803
:102190003868FFF725FC78611CE0F9683868FFF7BC
:1021A000EFFC786116E0F9683868FFF741FC786168
:1021B00010E0104B5B681846FFF762FC78613B68E3
:1021C00006221A7406E041F61D537B6102E00F23DC
:1021D0007B6100BF7B69002B05D03B68DB8819461B
:1021E0003869FFF713FA7B6918461837BD4680BD7A
:1021F000342800207428002080B584B000AF7860B7
:1022000039607B68002B01D0012323E03B681B79F8
:10221000012B0BD0022B14D0002B16D13868FFF7FE
:102220004BFCF8603B6802221A7112E03868FFF735
:102230007BFCF860FB680A2B0AD141F61D53FB605A
:1022400006E041F61D53FB6003E00F23FB6000E056
:1022500000BFFB6818461037BD4680BD80B584B00E
:1022600000AF78607B68002B01D001233CE0204B5D
:102270001B7B002B03D01E4B00221A7301E0FFF7DB
:102280004BFE1B4B1B78013B062B29D801A252F8B1
:1022900023F000BFB1220200B9220200C1220200D5
:1022A000C9220200E1220200D1220200D92202004A
:1022B000FFF7C4FDF86016E0FFF77EFDF86012E05E
:1022C000FFF750FDF8600EE0FFF71EFDF8600AE032
:1022D000FFF78EFDF86006E0FFF7A0FDF86002E072
:1022E0000F23FB6000BFFB6818461037BD4680BD5A
:1022F0005C28002080B58AB000AF0346FB71334BE9
:102300001A6F1346DB009B1A9B00304A13443B6252
:102310003B6A1B78013B052B29D801A252F823F018
:1023200039230200472302004723020055230200FD
:102330005523020063230200FB79396A1846FFF730
:1023400025FE786216E0FB79396A1846FFF7D2FE5F
:1023500078620FE0FB79396A1846FFF74DFF786223
:1023600008E0FB791846FFF779FF786202E00F2357
:102370007B6200BF7B6A002B23D07B6A41F61D5233
:10238000934202D100233B6104E07B6A3B61386ADF
:10239000FFF7E4FA07F10C031946386AFFF756F81D
:1023A00007F10C031846FFF731F8FFF789FA0346E7
:1023B000002B03D00020FFF79DFF02E00420FEF772
:1023C000F3FF00BF2837BD4680BD00BF7427002043
:1023D00080B582B000AF78600B46FB70FB78184682
:1023E000FFF788FF00BF0837BD4680BD29DF704773
:1023F00000BF184628DF704700BF184680B586B07A
:1024000000AF78600B46FB7007F108031022002133
:102410001846FDF797F87B681B7A012B02D0022B38
:1024200009D015E000233B727B681B693B617B6828
:102430009B8ABB820CE001233B727B689A897B6894
:10244000DB89D31A9BB23B827B689B897B8200BF6E
:102450007B685B68FB607B681B689B68F97807F1A9
:1024600008021046984700BF1837BD4680BD00BF20
:1024700080B483B000AF78607B68002B09D07B68A4
:10248000074A934205D37B68064A934201D201234F
:1024900000E0002318460C37BD465DF8047B70470A
:1024A000B4210020C421002080B584B000AF786042
:1024B0007B689B8A1A467B68DB8AD31AB3F5806FE8
:1024C00006DA7B689A8A7B68DB8AD31AFB8102E092
:1024D0004FF48063FB817B681A697B68DB8A9B0011
:1024E000D0187B68DA687B68DB8A9B001344FA8922
:1024F0001946FFF77BFF034618461037BD4680BDDF
:1025000080B582B000AF78607B689B891846FFF782
:1025100071FF034618460837BD4680BD80B582B0BE
:1025200000AF1F4B1A6E13465B001344DB001C4ABE
:1025300013443B601A4B5B6E002B2CD03B681B7A1C
:10254000012B02D0022B05D009E03868FFF7ACFF61
:10255000786007E03868FFF7D3FF786002E009236E
:102560007B6000BF7B68112B0ED10E4B1B7823F0D4
:102570000203DAB20B4B1A700A4B1B7843F00403C8
:10258000DAB2084B1A7006E07B68002B03D00921F1
:102590003868FFF733FF00BF0837BD4680BD00BF76
:1025A000842800208028002080B500AF0B4B1B78CA
:1025B00003F00203002B0ED1084B1B7803F0040339
:1025C000002B08D1054B1B7843F00203DAB2034B12
:1025D0001A70FFF7A3FF00BF80BD00BF8028002056
:1025E00080B584B000AF78601C4B5B6E042B01D1CA
:1025F00000232EE0194B1A6E184B5B6E1344032B0D
:1026000005D8164B1A6E154B5B6E134405E0134B41
:102610001A6E124B5B6E1344043BFB600F4B5B6EF8
:1026200001330E4A5366FA6813465B001344DB001D
:102630000A4A1344182200211846FCF783FFFA685F
:1026400013465B001344DB00044A1A447B681A609B
:10265000012318461037BD4680BD00BF84280020E6
:1026600080B586B000AFF860B9607A607B80304B8F
:102670001B7803F00103002B01D1012354E0F8681B
:10268000FFF7F6FE034683F00103DBB2002B01D017
:10269000022349E07B68002B02D0BB68002B01D1EC
:1026A000032341E07B6803F00303002B04D1BB68E4
:1026B00003F00303002B01D0062335E0FB681A6802
:1026C000BB689A4207D8FB685A687B889B00B96848
:1026D0000B449A4201D2052326E07B88002B01D1CE
:1026E000042321E007F114031846FFF779FF03469E
:1026F00083F00103DBB2002B01D0072314E07B69D8
:102700003A6A5A607B69FA681A607B6901221A7218
:102710007B697A68DA607B69BA681A617B697A8852
:102720009A82FFF741FF002318461837BD4680BD47
:102730008028002080B586B000AFF860B9603B60AB
:102740001346FB802B4B1B7803F00103002B01D1B8
:1027500001234BE0F868FFF78BFE034683F001038B
:10276000DBB2002B01D0022340E0BB68002B01D17B
:1027700003233BE0BB68C3F30B03002B01D006230C
:1027800034E0FB681A68BB689A4207D8FB881B03D1
:10279000BA681A44FB685B689A4201D9052325E0B0
:1027A000FB88002B01D1042320E007F11403184615
:1027B000FFF716FF034683F00103DBB2002B01D0C5
:1027C000072313E07B693A685A607B69FA681A60EC
:1027D0007B6902221A727B69BA68120B92B29A81E3
:1027E0007B69FA881A82FFF7DFFE00231846183744
:1027F000BD4680BD8028002080B483B000AF7860E3
:102800004FF080427B68C2F8083300BF0C37BD46EA
:102810005DF8047B704700BF80B485B000AF03460D
:10282000FB80FB8803F1804300221A60FB8803F1E0
:1028300080431B68FB60FB6800BF1437BD465DF832
:10284000047B704780B483B000AF0346FB80FB88F5
:1028500003F180431B68002B14BF01230023DBB26C
:1028600018460C37BD465DF8047B704780B485B0D0
:1028700000AF78607B681B68FB60FB68002B03D0AF
:10288000FB681A687B681A60FB6818461437BD46F7
:102890005DF8047B704700BF80B584B000AF03468D
:1028A000FB71FB79002B02D10B4BFB6001E00B4B62
:1028B000FB60F868FFF7DAFFB860BB68002B05D053
:1028C000BB685B68FA7910469847F2E700BF00BF23
:1028D0001037BD4680BD00BFF4280020FC28002032
:1028E00080B500AF4FF48070FFF7ACFF0346002BBC
:1028F0000CD04FF48070FFF78FFF0120FFF77CFFB3
:102900000D4B01225A700020FFF7C6FF4FF4827072
:10291000FFF798FF0346002B0CD04FF48270FFF7AF
:102920007BFF0220FFF768FF034B01229A70012012
:10293000FFF7B2FF00BF80BDEC28002080B582B059
:1029400000AF78607B68002B02D10020FFF7A4FF66
:1029500000BF0837BD4680BD80B483B000AF0346DA
:10296000FB71094997F907305B09FA7902F01F02F8
:10297000012000FA02F241F8232000BF0C37BD46C7
:102980005DF8047B704700BF00E100E080B483B0D5
:1029900000AF0346FB71094997F907305B09FA79E3
:1029A00002F01F02012000FA02F2603341F82320F6
:1029B00000BF0C37BD465DF8047B704700E100E0C6
:1029C00080B483B000AF03463960FB7197F90730DC
:1029D000002B0BDA0D49FB7903F00F03043B3A6837
:1029E000D2B25201D2B20B441A7609E0084997F9E3
:1029F00007303A68D2B25201D2B20B4483F80023B6
:102A000000BF0C37BD465DF8047B704700ED00E069
:102A100000E100E080B582B000AF03460A46FB71DA
:102A20001346BB71BA7997F9073011461846FFF77C
:102A3000C7FF97F907301846FFF7A8FF97F9073047
:102A40001846FFF789FF00BF0837BD4680BD00BFAD
:102A500080B582B000AF0346FB80FB88184600F0CB
:102A600025F803461B68012B0CBF01230023DBB2B2
:102A700018460837BD4680BD80B584B000AF034618
:102A8000FB80FB88184600F011F803461A46002325
:102A90001360FB88184600F009F803461B68FB60CA
:102AA000FB6800BF1037BD4680BD00BF80B483B057
:102AB00000AF0346FB80FB8803F1804303F5C0436E
:102AC00018460C37BD465DF8047B704780B483B070
:102AD00000AF7860044A7B68C2F8043300BF0C374B
:102AE000BD465DF8047B70470060004080B483B051
:102AF00000AF7860054BD3F804237B681340184679
:102B00000C37BD465DF8047B704700BF0060004095
:102B100080B483B000AF78600949094A7B6803F547
:102B2000A27352F8233043F001027B6803F5A273CD
:102B300041F8232000BF0C37BD465DF8047B704789
:102B40000060004080B485B000AFF860B960134603
:102B5000FB711649154AFB6803F5A27352F823303E
:102B600023F4473323F44073FA6802F5A27241F864
:102B700022300E480D4AFB6803F5A27352F8232059
:102B8000BB681B0203F4F851FB791B0403F44033C8
:102B90000B431A43FB6803F5A27340F8232000BFE0
:102BA0001437BD465DF8047B704700BF00600040ED
:102BB00080B483B000AF7860074A7B6803F5A273E6
:102BC00052F8233003F4F8531B0A18460C37BD465D
:102BD0005DF8047B704700BF0060004080B483B0A4
:102BE00000AF7860074A7B6803F5A27352F8233080
:102BF00003F440331B0CDBB218460C37BD465DF8BE
:102C0000047B70470060004080B483B000AF786000
:102C1000084611461A460346FB700B46BB70134626
:102C20007B704FF0A041FA78BB785B001A437B7849
:102C30009B001A433B7C1B021A433B7D1B041A4337
:102C40007B6803F5E07341F8232000BF0C37BD46D5
:102C50005DF8047B704700BF80B584B002AF786038
:102C60000B46FB70FA780023019300230093134670
:102C7000002200217868FFF7C7FF00BF0837BD4674
:102C800080BD00BF80B485B000AF78604FF0A04237
:102C90007B6803F5E07352F8233023F00203FB60F6
:102CA0004FF0A0417B6803F5E073FA6841F82320F8
:102CB00000BF1437BD465DF8047B704780B483B015
:102CC00000AF78600B46FB704FF0A0414FF0A04280
:102CD0007B6803F5E07352F8233023F440327B68BD
:102CE00003F5E07341F823204FF0A0414FF0A042DC
:102CF0007B6803F5E07352F82330FA7812041A4324
:102D00007B6803F5E07341F8232000BF0C37BD4614
:102D10005DF8047B704700BF80B483B000AF78607B
:102D20004FF0A043D3F810257B6822FA03F303F099
:102D3000010318460C37BD465DF8047B704700BFA1
:102D400080B400AF4FF0A043D3F810351846BD460D
:102D50005DF8047B704700BF80B483B000AF78603B
:102D60004FF0A0427B6803F5E07352F8233003F480
:102D700040331B0CDBB218460C37BD465DF8047BB4
:102D8000704700BF80B483B000AF78600D4A7B68A5
:102D90001344303393F90030002B09DB094A7B6878
:102DA0001344303393F90030072B01DC012300E09A
:102DB000002303F00103DBB218460C37BD465DF873
:102DC000047B70470029002080B483B000AF786096
:102DD000084A7B681344303393F90030072BCCBF8B
:102DE00001230023DBB218460C37BD465DF8047B97
:102DF000704700BF0029002080B483B000AF786026
:102E0000074A7B681344303393F90030DB43DBB26D
:102E1000DB09DBB218460C37BD465DF8047B704712
:102E20000029002080B485B000AFF860B9607A60F6
:102E3000FB70BB6859B2104AFB68134430330A4632
:102E40001A700D49BB687A6841F82320FB7883F03B
:102E50000103DBB2002B08D0BB68083BFA6851B213
:102E6000054A13440A4683F8502000BF1437BD4674
:102E70005DF8047B704700BF0029002080B483B058
:102E800000AF7860054A7B6813443033FF221A7024
:102E900000BF0C37BD465DF8047B70470029002059
:102EA00080B483B000AF7860054A7B681344303348
:102EB00093F9003018460C37BD465DF8047B704727
:102EC0000029002080B483B000AF7860044A7B689A
:102ED00052F8233018460C37BD465DF8047B704726
:102EE0000029002080B588B000AFF860B9601346B3
:102EF000FB71FF23FB77FB79002B01D0002300E05F
:102F000008237B61FB79002B01D0082300E00C2310
:102F10003B617B69BB6112E00E4ABB6952F823300A
:102F2000B3F1FF3F08D1FB79BA68B969F868FFF7D8
:102F300079FFBB69FB7706E0BB690133BB61BA6906
:102F40003B699A42E8D397F91F3018462037BD46AF
:102F500080BD00BF0029002080B483B000AF0346CD
:102F6000FB71FB790A4A4FF0FF3142F82310FB79DD
:102F7000072B06D9FB79083B054A1344FF2283F847
:102F8000502000BF0C37BD465DF8047B704700BF82
:102F90000029002080B582B000AF1B4B93F854305D
:102FA000002B01D008232AE00023FB7106E0FB7907
:102FB0001846FFF763FFFB790133FB71FB791F2B89
:102FC000F5D90023FB7106E0FB791846FFF7C4FF33
:102FD000FB790133FB71FB790B2BF5D90621062018
:102FE000FFF718FD4FF4BE70FFF746FD4FF00040AD
:102FF000FFF76CFD044B012283F854200023184690
:103000000837BD4680BD00BF0029002080B400AF56
:10301000064B93F85430002B14BF01230023DBB27E
:103020001846BD465DF8047B704700BF00290020AC
:1030300080B586B000AFF860B9607A6000237B612C
:10304000F868FFF7D9FE0346002B02D008237B6106
:1030500040E0BB68DB781A467968F868FFF742FF02
:103060000346FB7497F91330B3F1FF3F30D0BB68D0
:103070009B78002B03D0F868FFF704FE05E0BB68DF
:103080005B781946F868FFF7E7FDBB68DB78002B33
:1030900008D097F91300BB681B781A46F968FFF748
:1030A00051FD17E097F91330083B97F91320083AC0
:1030B0000B490A4492F95010BA681278920152B240
:1030C0000A4351B2064A13440A4683F8502001E0ED
:1030D00004237B617B6918461837BD4680BD00BF5D
:1030E0000029002080B586B000AF78600B46FB70E9
:1030F0007868FFF769FE0346002B2BD07868FFF74E
:10310000CFFE0346083B2C4A134493F95030BB755D
:10311000BB7D9B097B757B7D032B0ED1FFF710FEDA
:10312000014601227B6802FA03F30B40002B01D019
:10313000032300E00223FB7506E07B7D012B01D118
:10314000022300E00323FB75FB7D19467868FFF737
:10315000B5FD2DE07868FFF715FE0346002B27D05C
:103160007868FFF79DFE03463B613B699BB24033A5
:103170009BB29B00FB813B691846FFF7C9FCFB89AA
:103180001846FFF779FCFB78002B11D07868FFF721
:1031900087FE03461846FFF795FEB860BB68002B14
:1031A00006D001223B6902FA03F31846FFF78EFCB2
:1031B00000BF1837BD4680BD0029002080B582B011
:1031C00000AF78607868FFF7A7FD0346002B14BFB7
:1031D00001230023DBB218460837BD4680BD00BF7F
:1031E00080B592B000AF00237B6400233B644FF4B2
:1031F00080737B8701237B630023FB631DE07B8F50
:103200001846FFF725FC0346002B0DD0786BFFF71F
:103210006DFC0346002B07D07B8F1846FFF72CFC74
:103220007A6C7B6B13437B647B6B5B007B637B8F74
:1032300004337B87FB6B0133FB63FB6B072BDED90E
:103240004FF4BE70FFF704FC0346002B0AD04FF486
:10325000BE70FFF711FC7B6C43F000437B64FFF70B
:103260006FFD38647B6CDBB2002B29D001237B63BC
:103270000023FB6321E07A6B7B6C1340002B16D09C
:10328000F86BFFF795FC7862F86BFFF7A7FC034635
:1032900087F82330F86BFFF715FEF861FB69002B08
:1032A00005D097F82320FB691146786A98477B6B15
:1032B0005B007B63FB6B0133FB63FB6B072BDAD992
:1032C0007B6C002B80F29680002387F8333000233C
:1032D000FB624FF0FF33BB62002387F833300023DB
:1032E000FB636CE0454AFB6B1344503393F90030A9
:1032F000FB76FB7E23F0C0037B61404AFB6B1344EB
:10330000503393F90030B3F1FF3F55D0BA6A7B696F
:1033100022FA03F303F00103002B4DD0FB7E9B093F
:10332000FB747869FFF7BCFD03461846FFF7CAFD3A
:10333000F860FB68002B02D1FB7C032B3CD10122FF
:103340007B6902FA03F37B63FB7C032B03D1FA6AEC
:103350007B6B1343FB627869FFF7FEFC0346FB724D
:103360007A6B3B6C1340002B02D0FB7A022B07D008
:103370007A6B3B6C1340002B1ED1FB7A032B1BD1C5
:10338000FB7C032B10D1FB7A022B01D1032300E03D
:103390000223BB72BB7A19467869FFF78FFC97F856
:1033A0003330013387F83330FB68002B04D0FA7CCC
:1033B000FB68114678699847FB6B0133FB63FB6B35
:1033C000032B8FD997F83330002B0ED0FFF7B8FCC2
:1033D00078607A683B6C9A4203D1002387F83330D7
:1033E00003E07B683B64FB6ABB6297F83330002BD9
:1033F0007FF472AF00BF4837BD4680BD0029002072
:1034000080B483B000AF0346FB71094997F90730D8
:103410005B09FA7902F01F02012000FA02F2203360
:1034200041F8232000BF0C37BD465DF8047B704790
:1034300000E100E080B485B000AF78600B467B808F
:103440007B887A68134400221A607B887A68134468
:103450001B68FB60FB6800BF1437BD465DF8047B4A
:10346000704700BF80B483B000AF78600B467B80AC
:103470007B887A6813441B68002B14BF0123002348
:10348000DBB218460C37BD465DF8047B704700BFC1
:1034900080B483B000AF786039607B683A68C3F865
:1034A000042300BF0C37BD465DF8047B704700BFA6
:1034B00080B483B000AF786039607B68D3F80423B0
:1034C0003B681340002B14BF01230023DBB21846D6
:1034D0000C37BD465DF8047B704700BF80B483B0F5
:1034E00000AF786039607B683A68C3F8082300BF92
:1034F0000C37BD465DF8047B704700BF80B485B0D3
:1035000000AF78607B68D3F88034FB607B68FA6832
:10351000C3F88024FB6818461437BD465DF8047B69
:10352000704700BF80B483B000AF78607B6804222E
:10353000C3F8002500BF0C37BD465DF8047B70471B
:1035400080B483B000AF78607B680022C3F80025A8
:1035500000BF0C37BD465DF8047B704780B485B072
:1035600000AFF860B9607A60FB68BA68C3F80C25F0
:10357000FB687A68C3F8142500BF1437BD465DF8B0
:10358000047B704780B582B000AF78604FF0FF32A7
:103590004FF0FF317868FFF7E1FF00BF0837BD4605
:1035A00080BD00BF80B483B000AF78607B68D3F883
:1035B0000C3518460C37BD465DF8047B704700BFDC
:1035C00080B483B000AF78607B68D3F814351846B8
:1035D0000C37BD465DF8047B704700BF80B483B0F4
:1035E00000AF78607B68D3F8083518460C37BD46C5
:1035F0005DF8047B704700BF80B483B000AF786093
:103600007B68D3F8103518460C37BD465DF8047B4F
:10361000704700BF80B485B000AFF860B9607A60D1
:10362000FB68BA68C3F80825FB687A68C3F81025F8
:1036300000BF1437BD465DF8047B704780B582B08B
:1036400000AF78604FF0FF324FF0FF317868FFF73E
:10365000E1FF00BF0837BD4680BD00BF80B483B026
:1036600000AF78607B68D3F81835DBB218460C37AA
:10367000BD465DF8047B704780B483B000AF7860CE
:103680000B46FB70FA787B68C3F81C2500BF0C372B
:10369000BD465DF8047B704780B483B000AF7860AE
:1036A0000B46FB70FB787A68134401221A6000BF56
:1036B0000C37BD465DF8047B704700BF80B483B013
:1036C00000AF78600B46FB701346BB70FA78BB788E
:1036D0001343DBB21A467B68C3F86C2500BF0C3776
:1036E000BD465DF8047B704780B483B000AF78605E
:1036F00039607B683A68C3F8242500BF0C37BD46A3
:103700005DF8047B704700BF80B485B000AF78607F
:103710000B467B807B887A68134400221A607B8882
:103720007A6813441B68FB60FB6800BF1437BD4612
:103730005DF8047B704700BF80B483B000AF786051
:103740000B467B807B887A6813441B68002B14BF70
:1037500001230023DBB218460C37BD465DF8047B1D
:10376000704700BF80B483B000AF786039607B6879
:10377000D3F800223B68DB431A407B68C3F8002281
:1037800000BF0C37BD465DF8047B704780B483B042
:1037900000AF786039607B683A68C3F8042300BFE3
:1037A0000C37BD465DF8047B704700BF80B483B022
:1037B00000AF786039607B683A68C3F8082300BFBF
:1037C0000C37BD465DF8047B704700BF80B485B000
:1037D00000AF78607B68D3F88034FB607B68FA6860
:1037E000C3F88024FB6818461437BD465DF8047B97
:1037F000704700BF80B483B000AF78607B68082258
:10380000C3F8002500BF0C37BD465DF8047B704748
:1038100080B483B000AF78607B680022C3F80025D5
:1038200000BF0C37BD465DF8047B704780B485B09F
:1038300000AFF860B9607A60FB68BA68C3F80C251D
:10384000FB687A68C3F8142500BF1437BD465DF8DD
:10385000047B704780B582B000AF78604FF0FF32D4
:103860004FF0FF317868FFF7E1FF00BF0837BD4632
:1038700080BD00BF80B483B000AF78607B68D3F8B0
:103880000C3518460C37BD465DF8047B704700BF09
:1038900080B483B000AF78607B68D3F814351846E5
:1038A0000C37BD465DF8047B704700BF80B483B021
:1038B00000AF78607B68D3F8083518460C37BD46F2
:1038C0005DF8047B704700BF80B483B000AF7860C0
:1038D0007B68D3F8103518460C37BD465DF8047B7D
:1038E000704700BF80B485B000AFF860B9607A60FF
:1038F000FB68BA68C3F80825FB687A68C3F8102526
:1039000000BF1437BD465DF8047B704780B582B0B8
:1039100000AF78604FF0FF324FF0FF317868FFF76B
:10392000E1FF00BF0837BD4680BD00BF80B483B053
:1039300000AF78600B46FB70FB787A681344012275
:103940001A6000BF0C37BD465DF8047B704700BFAE
:1039500080B483B000AF78600B46FB701346BB7039
:10396000FA78BB781343DBB21A467B68C3F86C2540
:1039700000BF0C37BD465DF8047B704780B483B050
:1039800000AF786039607B683A68C3F8242500BFCF
:103990000C37BD465DF8047B704700BF80B485B02E
:1039A00000AFF860B9601346FB71BA68FB68C3F8F2
:1039B0004425FA79FB68C3F8482500BF1437BD4693
:1039C0005DF8047B704700BF80B483B000AF7860BF
:1039D0007B68D3F84C3518460C37BD465DF8047B40
:1039E000704700BF80B483B000AF78607B68D3F8C5
:1039F0003C3518460C37BD465DF8047B704700BF68
:103A000080B582B000AF0346FB7197F907301846C6
:103A1000FFF7F6FC00BF0837BD4680BD80B485B017
:103A200000AF78607B681B0BFB7397F90F3018466B
:103A30001437BD465DF8047B704700BF80B483B087
:103A400000AF7860084611461A460346FB700B46E5
:103A5000BB7013467B704FF0A041FA78BB785B00D7
:103A60001A437B789B001A433B7C1B021A433B7D25
:103A70001B041A437B6803F5E07341F8232000BF61
:103A80000C37BD465DF8047B704700BF80B584B03D
:103A900002AF7860002301930023009300230122EA
:103AA00001217868FFF7CAFF00BF0837BD4680BD17
:103AB00080B584B002AF78600B46FB70FA780023C3
:103AC0000193002300931346002200217868FFF73A
:103AD000B5FF00BF0837BD4680BD00BF80B584B0CC
:103AE00002AF78600023019300230093002301229A
:103AF00000217868FFF7A2FF00BF0837BD4680BDF0
:103B000080B483B000AF78604FF0A04201217B68A1
:103B100001FA03F3C2F8083500BF0C37BD465DF863
:103B2000047B704780B582B000AF786039603B6835
:103B30001B681846FFF7E4FF3B681B681846FFF751
:103B4000A5FF3B685B6800211846FFF7B1FF7B6863
:103B50001B793D4A5B0113441C331B78002B37D083
:103B60007B681A683B689B6919461046FFF706FF99
:103B70007B6818683B68597D3B681B7D1A46FFF7D8
:103B8000E7FE7B6818683B6819683B685B681A4603
:103B9000FFF74CFE3B681B7D012B50D13B689B68B7
:103BA00000211846FFF784FF3B68DB681846FFF7E3
:103BB000A7FF3B68DB681846FFF768FF7B6818685B
:103BC0003B68D9683B689B681A46FFF78BFE36E076
:103BD0007B681A683B689B6919461046FFF784FDAD
:103BE0007B6818683B68597D3B681B7D1A46FFF768
:103BF00065FD7B6818683B6819683B685B681A4616
:103C0000FFF7ACFC3B681B7D012B18D13B689B6820
:103C100000211846FFF74CFF3B68DB681846FFF7AA
:103C20006FFF3B68DB681846FFF730FF7B6818685A
:103C30003B68D9683B689B681A46FFF7EBFC00BFFE
:103C40000837BD4680BD00BF5829002080B582B02E
:103C500000AF78600B46FB707B681B792C4A5B01D8
:103C600013441C331B78002B2ED07B681B684FF449
:103C700088711846FFF748FD7B681B684FF4907108
:103C80001846FFF741FD7B681B684FF49271184698
:103C9000FFF73AFD7B681B684FF4A2711846FFF7E7
:103CA00033FD7B681B681B491846FFF76FFD7B6877
:103CB0001B681846FFF7B2FE03461A46FB78194602
:103CC0001046FEF7A7FE1FE07B681B684FF48E715D
:103CD0001846FFF7AFFB7B681B684FF4A2711846CC
:103CE000FFF7A8FB7B681B680B491846FFF7D0FB62
:103CF0007B681B681846FFF791FE03461A46FB785F
:103D000019461046FEF786FE00BF0837BD4680BD47
:103D100058290020100302008000020080B582B004
:103D200000AF78607B681B79144A5B0113441C3335
:103D30001B78002B0FD07B681B6811491846FFF7D2
:103D400035FD7B681B681846FFF768FE034618467A
:103D5000FFF756FE0EE07B681B680A491846FFF71E
:103D6000BDFB7B681B681846FFF758FE03461846E4
:103D7000FFF746FE00BF0837BD4680BD582900202A
:103D8000100302008402020080B586B000AF7860A4
:103D90007B681B79314A5B0113441C331B78002B71
:103DA00022D07B681B681846FFF764FD78617B684A
:103DB0001B681846FFF76CFD38617B681B68184666
:103DC000FFF774FDF8607B681B681846FFF77CFD01
:103DD000B8607B681B681846FFF73CFD7B681B6872
:103DE0001846FFF793FD21E07B681B681846FFF734
:103DF000D9FB78617B681B681846FFF7E1FB3861E7
:103E00007B681B681846FFF7E9FBF8607B681B6856
:103E10001846FFF7F1FBB8607B681B681846FFF790
:103E2000B1FB7B681B681846FFF708FC7869FFF751
:103E300055FE3869FFF752FEBB68B3F1FF3F02D071
:103E4000B868FFF74BFEFB68B3F1FF3F02D0F8689C
:103E5000FFF744FE00BF1837BD4680BD582900203B
:103E600080B582B000AF78607B681B790A4A5B013D
:103E700013441C331B78002B05D07B681B68184645
:103E8000FFF7B8FC04E07B681B681846FFF74AFBA5
:103E900000BF0837BD4680BD5829002080B582B0DC
:103EA00000AF78607B681B790A4A5B0113441C33BE
:103EB0001B78002B05D07B681B681846FFF7A8FC11
:103EC00004E07B681B681846FFF73AFB00BF083721
:103ED000BD4680BD5829002080B586B000AFF8608F
:103EE000B9607A60FB681B795B011C4A13447B61F3
:103EF0007B69DB7E002B01D008232BE0BB685A7F57
:103F00007B691A77B968F868FFF70CFE7B697A68F5
:103F10005A60BB681A697B691A607B695B68002B11
:103F200005D0BB681B7F1946F868FFF78FFEF8685D
:103F3000FFF796FF7B690022DA757B6900221A760B
:103F40007B6900229A757B690122DA767B690022FF
:103F50009A76002318461837BD4680BD58290020A0
:103F600080B584B000AF78607B681B795B010D4A37
:103F70001344FB607868FFF791FFFB685B68002BD8
:103F800002D07868FFF7CAFE7868FFF7FDFEFB688D
:103F90000022DA76FB6800225A6000BF1037BD4667
:103FA00080BD00BF5829002080B584B000AF786084
:103FB00039604FF48E717868FFF73CFA3B689B6874
:103FC0003A68928A92B213441B78FB733B689B8ACF
:103FD0009BB201339AB23B689A82FB7B19467868A0
:103FE000FFF74AFB00BF1037BD4680BD80B584B0E7
:103FF00000AF78607B681B795B01354A1344BB6076
:104000000023FB607B681B684FF48E711846FFF736
:1040100011FA7B681B6808211846FFF73DFB7B6897
:104020001B68B9681846FFF7BFFFBB685B68002BC9
:1040300048D11FE000BF7B681B684FF48E711846A3
:10404000FFF710FA034683F00103DBB2002B05D023
:10405000BB689B8A9BB2B3F5807FECD1BB689B8A1F
:104060009BB2B3F5807F05D07B681B68B9681846A2
:10407000FFF79AFFBB689B8A9AB2BB689B7D9BB295
:104080009A42D7D3BB689B8A9BB2B3F5807F02D19B
:104090000F23FB6013E000BF7B681B684FF48E7139
:1040A0001846FFF7DFF9034683F00103DBB2002B6C
:1040B000F2D17B681B680C211846FFF7EDFABB684C
:1040C00000229A75FB6818461037BD4680BD00BFB8
:1040D0005829002080B586B000AF78607B681B79D6
:1040E0005B01284A13443B6100237B617B681B68AA
:1040F0004FF490711846FFF707FB7B681B684FF47D
:10410000AC711846FFF700FB7B6818683B6999683B
:104110003B699B7D1A46FFF741FC7B681B680821C1
:104120001846FFF703FC3B695B68002B25D17B68D1
:104130001B684FF490711846FFF7FEFA0346FB73B5
:104140007B681B684FF4AC711846FFF7F5FA03461D
:10415000BB73FB7B83F00103DBB2002B05D0BB7B81
:1041600083F00103DBB2002BE1D1BB7B002B01D03C
:104170000F237B613B6900229A757B6918461837CB
:10418000BD4680BD5829002080B586B000AFF860DC
:10419000B9601346FB71FB681B795B011D4A134430
:1041A0007B61FB681B791B4A5B0113441C331B7842
:1041B000002B07D0BB681B0C1B04B3F1005F01D0C0
:1041C000102322E0F86800F027F80346002B01D006
:1041D00011231AE07B69FA799A757B69BA689A604B
:1041E0007B6900229A82FB681B790A4A5B011344AF
:1041F0001C331B78002B04D0F868FFF76BFF0346D5
:1042000003E0F868FFF7F2FE034618461837BD468C
:1042100080BD00BF5829002080B483B000AF786013
:104220007B681B79074A5B01134416331B78002B0C
:1042300014BF01230023DBB218460C37BD465DF8DE
:10424000047B70475829002090B583B000AF786098
:1042500039603B68DB7D002B08D14FF484717868AE
:10426000FFF7E8F87868FFF7F9F916E04FF4847182
:104270007868FFF7DFF83B68DB683A68527ED2B2B5
:104280009C187868FFF7EAF9034623703B685B7E69
:10429000DBB20133DAB23B685A760C37BD4690BDCB
:1042A00080B588B000AFF8600B467A60FB720123DE
:1042B0003B74FB7A3B767B687B61FB685B68FA68E2
:1042C000116807F110021046984700BF2037BD461D
:1042D00080BD00BF80B586B000AF78600B46FB7034
:1042E00000233B72FB783B747B689B68FB607B68B8
:1042F00000229A757B685B687A68116807F108028A
:104300001046984700BF1837BD4680BD80B588B0BD
:1043100000AF786039604FF400717868FFF7C8F833
:104320000346002B38D04FF492717868FFF79AF863
:104330000346002B30D04FF492717868FFF77AF87B
:104340004FF401717868FFF7C9F83B689B7E83F0F2
:104350000103DBB2002B03D004217868FFF79CF93E
:1043600002233B727868FFF7C9F803467B613B681C
:10437000DB7D3B743B68DB68FB603B680022DA75E1
:104380003B6800221A763B685B683A68116807F15F
:1043900008021046984754E004217868FFF788F82F
:1043A0000346002B4DD04FF484717868FFF75AF81C
:1043B0000346002B45D039687868FFF745FF3B6816
:1043C000DA7D3B685B7EDBB29A423AD13B681B7E6A
:1043D000002B1AD03B68DB68FB613B685B7EFB7699
:1043E0003B681A7E3B68DA753B681A693B68DA609D
:1043F0003B6800221A763B6800225A76FB7EFA69F7
:1044000019463868FFF74CFF1BE03B689B7E83F042
:104410000103DBB2002B03D004217868FFF73CF9DD
:104420004FF401717868FFF759F83B680022DA759C
:104430003B685B7ED9B23B68DB681A463868FFF799
:104440002FFF4FF48E717868FFF70CF80346002BAE
:104450001BD03B689B8A9AB23B689B7D9BB29A4279
:1044600004D239687868FFF79FFD0EE04FF48E7133
:104470007868FEF7DFFF3B689B7D002B05D03B682B
:104480009B7D19463868FFF725FF4FF4A2717868C5
:10449000FEF7E8FF0346002B1CD04FF4A2717868AA
:1044A000FEF7C8FF3B689B7E002B03D00021786895
:1044B000FFF7F2F83B68DB7D002B0BD03B68002256
:1044C000DA753B685B7ED9B23B68DB681A463868B0
:1044D000FFF7E6FE00BF2037BD4680BD80B588B03F
:1044E00000AF786039604FF492717868FFF724F973
:1044F0000346002B23D04FF492717868FFF704F93C
:1045000002233B727868FFF761F903467B617868A4
:10451000FFF768FA0346DBB23B743B68DB68FB607D
:104520003B680022DA753B6800221A763B685B68BC
:104530003A68116807F10802104698473DE04FF4C9
:1045400088717868FFF7F8F80346002B35D04FF4F0
:1045500088717868FFF7D8F87868FFF743FA034660
:10456000FB773B68DB7DFA7F9A4226D13B681B7E56
:10457000002B18D03B68DB68BB6120217868FFF70F
:10458000F1F83B681A7E3B68DA753B681A693B684C
:10459000DA603B6800221A76FB7FBA6919463868F0
:1045A000FFF77EFE09E03B680022DA753B68DA68B7
:1045B000FB7F19463868FFF773FE4FF4A2717868E5
:1045C000FFF7BAF80346002B16D04FF4A2717868B3
:1045D000FFF79AF83B68DB7D002B0DD03B6800228B
:1045E000DA757868FFF7FEF90346D9B23B68DB68F5
:1045F0001A463868FFF754FE4FF490717868FFF759
:104600009BF80346002B11D04FF490717868FFF7A8
:104610007BF83B689B7D002B08D07868FFF7D4F9C6
:104620000346DBB219463868FFF754FE00BF203757
:10463000BD4680BD80B500AF074B1B7F002B04D06B
:1046400005490648FFF74AFF03E003490348FFF71F
:104650005DFE00BF80BD00BF582900200020004043
:1046600080B485B000AF78600B467B807B887A6829
:10467000134400221A607B887A6813441B68FB602D
:10468000FB6800BF1437BD465DF8047B704700BF70
:1046900080B483B000AF78600B467B807B887A68FB
:1046A00013441B68002B14BF01230023DBB2184600
:1046B0000C37BD465DF8047B704700BF80B483B003
:1046C00000AF78604FF0A04201217B6801FA03F34C
:1046D000C2F8083500BF0C37BD465DF8047B704753
:1046E00080B582B000AF78607B689B7EFF2B04D0E2
:1046F0007B689B7E1846FFF7E1FF7B6800225A76B5
:104700007B6800221A717B681B687A680432104645
:10471000984700BF0837BD4680BD00BF80B582B056
:1047200000AF786039604FF48C717868FFF7B0FFA4
:104730000346002B07D04FF48C717868FFF790FF89
:104740003868FFF7CDFF00BF0837BD4680BD00BF0A
:1047500080B582B000AF054B7B6079680448FFF7F5
:10476000DDFF00BF0837BD4680BD00BF78290020AF
:104770000030004080B485B000AF78600B467B808D
:104780007B887A68134400221A607B887A68134415
:104790001B68FB60FB6800BF1437BD465DF8047BF7
:1047A000704700BF80B483B000AF78600B467B8059
:1047B0007B887A6813441B68002B14BF01230023F5
:1047C000DBB218460C37BD465DF8047B704700BF6E
:1047D00080B483B000AF786039607B68D3F804237D
:1047E0003B681340002B14BF01230023DBB21846A3
:1047F0000C37BD465DF8047B704700BF80B483B0C2
:1048000000AF78607B689BB250339BB29B009BB239
:1048100018460C37BD465DF8047B704780B483B002
:1048200000AF78604FF480327B6802FA03F31846D9
:104830000C37BD465DF8047B704700BF80B586B07D
:1048400000AFF860B9601346FB710023FB7528E0E8
:10485000FB7D1846FFF7D2FF0346BB82FB7D18465F
:10486000FFF7DCFF3861BB8A1946F868FFF79AFF4B
:104870000346002B12D03969F868FFF7A9FF0346F9
:10488000002B0BD0BB8A1946F868FFF773FFBB6893
:104890001B68BA685168BA8A10469847FB7D013395
:1048A000FB75FA7DFB799A42D2D300BF1837BD461B
:1048B00080BD00BF80B500AF042203490348FFF765
:1048C000BDFF00BF80BD00BF9829002000800040D0
:1048D00080B500AF042203490348FFF7AFFF00BFD4
:1048E00080BD00BFA42900200090004080B500AF2B
:1048F000042203490348FFF7A1FF00BF80BD00BFAA
:10490000B029002000A0004080B500AF0622034976
:104910000348FFF793FF00BF80BD00BFBC29002004
:1049200000A0014080B500AF062203490348FFF70D
:1049300085FF00BF80BD00BFC829002000B0014036
:1049400080B483B000AF78600B46FB70FB787A6868
:10495000134401221A6000BF0C37BD465DF8047B8A
:10496000704700BF80B485B000AF78600B467B8095
:104970007B887A68134400221A607B887A68134423
:104980001B68FB60FB6800BF1437BD465DF8047B05
:10499000704700BF80B483B000AF78600B467B8067
:1049A0007B887A6813441B68002B14BF0123002303
:1049B000DBB218460C37BD465DF8047B704700BF7C
:1049C00080B483B000AF786039607B683A68C3F820
:1049D000002200BF0C37BD465DF8047B704700BF66
:1049E00080B483B000AF786039607B683A68C3F800
:1049F000002300BF0C37BD465DF8047B704700BF45
:104A000080B483B000AF78600B46FB707B68D3F84E
:104A10000423FB781340002B14BF01230023DBB2D7
:104A200018460C37BD465DF8047B704780B483B0F0
:104A300000AF78607B680122C3F8002500BF0C3707
:104A4000BD465DF8047B704780B485B000AF7860E8
:104A500039600023FB730DE0FA7BFB7B9B00396818
:104A60000B4419687B6802F5AC7243F82210FB7B9B
:104A70000133FB73FB7B032BEED900BF1437BD461C
:104A80005DF8047B704700BF80B483B000AF7860EE
:104A9000084611461A460346FB700B46BB70134688
:104AA0003B80FA787B68C3F80C25BA787B68C3F83A
:104AB00004253A887B68C3F8082500BF0C37BD463B
:104AC0005DF8047B704700BF80B584B000AFF8602C
:104AD0000B467A60FB727B681A68FB7A1946F868A5
:104AE00000F01AF87B689A88FB7A1946F86800F09B
:104AF00027F87B689A68FB7A1946F86800F036F860
:104B00007B68DA68FB7A1946F86800F045F800BF60
:104B10001037BD4680BD00BF80B485B000AFF860DF
:104B20000B467A60FB72FB7A7A68F96829335B017D
:104B30000B441A6000BF1437BD465DF8047B704714
:104B400080B483B000AF78600B46FB7013463B80A7
:104B5000FB783A88796829335B010B4404331A6087
:104B600000BF0C37BD465DF8047B704780B485B04C
:104B700000AFF8600B467A60FB72FB7AFA685B0163
:104B8000134403F5A5637A681A6000BF1437BD4665
:104B90005DF8047B704700BF80B485B000AFF8605B
:104BA0000B467A60FB72FB7AFA685B01134403F2EE
:104BB0002C537A681A6000BF1437BD465DF8047B39
:104BC000704700BF80B483B000AF78600B46FB70C5
:104BD0001346BB70FA78BB781B021A437B68C3F894
:104BE000102500BF0C37BD465DF8047B704700BF41
:104BF00080B483B000AF78600B467B807A887B6896
:104C0000C3F8142500BF0C37BD465DF8047B704720
:104C100080B485B000AF78607B681B0BFB7397F99D
:104C20000F3018461437BD465DF8047B704700BF4F
:104C300080B483B000AF7860084611461A46034638
:104C4000FB700B46BB7013467B704FF0A041FA78A7
:104C5000BB785B001A437B789B001A433B7C1B02AA
:104C60001A433B7D1B041A437B6803F5E07341F84C
:104C7000232000BF0C37BD465DF8047B704700BFA2
:104C800080B584B002AF78600023019300230093C5
:104C90000023012201217868FFF7CAFF00BF08370F
:104CA000BD4680BD80B483B000AF78604FF0A042B5
:104CB00001217B6801FA03F3C2F8083500BF0C3705
:104CC000BD465DF8047B704780B483B000AF786068
:104CD0004FF0A04201217B6801FA03F3C2F80C35C2
:104CE00000BF0C37BD465DF8047B704780B588B0C7
:104CF00000AF786039600023FB7747E0FB7F3A68BC
:104D0000D35CBB77BB7FFF2B34D0BB7F03F080032A
:104D1000002B14BF012300237B77FB7FBA7F22F097
:104D200080029B0007F120010B4443F8142C7B7F89
:104D3000002B0AD0FB7F9B0007F12002134453F89D
:104D4000143C1846FFF7AEFF09E0FB7F9B0007F11C
:104D50002002134453F8143C1846FFF7B5FFFB7FBD
:104D60009B0007F12002134453F8143C1846FFF748
:104D700087FF08E0FB7F9B0007F1200213444FF000
:104D8000FF3243F8142CFB7F0133FB77FB7F032BAF
:104D9000B4D97B681B6807F10C0211461846FFF76F
:104DA00053FE00BF2037BD4680BD00BF80B586B032
