:100000000000012059050000810500008305000063
:10001000850500008705000089050000000000003C
:100020000000000000000000000000008B05000040
:100030008D050000000000008F0500009105000004
:100040006512000093050000930500009305000071
:100050009305000093050000930500009305000040
:100060009305000093050000930500009305000030
:100070009305000093050000930500009305000020
:10008000930500004D0B0000930500009305000050
:10009000110C00009305000093050000930500007B
:1000A00093050000930500009305000093050000F0
:1000B0009305000093050000000000000000000010
:1000C00093050000930500009305000093050000D0
:1000D0009305000093050000930500000000000058
:1000E0000000000000000000000000000000000010
:1000F0000000000000000000000000000000000000
:1001000000000000000000000000000000000000EF
:1001100000000000000000000000000000000000DF
:1004000010B5054C237833B9044B13B10448AFF34E
:1004100000800123237010BD700000200000000048
:10042000F8120000084B10B51BB108490848AFF39B
:1004300000800848036803B910BD074B002BFBD0B0
:10044000BDE81040184700BF000000007400002005
:10045000F81200006C00002000000000154B002B7B
:1004600008BF134B9D46A3F5803A00218B460F46EB
:100470001348144A121A00F065F80F4B002B00D0F5
:1004800098470E4B002B00D0984700200021040015
:100490000D000D48002802D00C48AFF3008000F09A
:1004A0002BF82000290000F0EDF900F011F800BF52
:1004B0000000080000000120000000000000000013
:1004C00070000020C40000200000000000000000B8
:1004D00008B5074B044613B10021AFF30080054B6C
:1004E0001868836A03B19847204600F033F800BFCC
:1004F00000000000F412000070B50E4B0E4CE41A20
:10050000A41000251E46A54204D056F82530984771
:100510000135F8E700F0E2FE084C094BE41AA4109C
:1005200000251E46A54204D056F8253098470135CF
:10053000F8E770BD6400002064000020680000201F
:100540006400002002440346934202D003F8011BDA
:10055000FAE77047FEE700BF0649074A074B9B1AB8
:1005600003DD043BC858D050FBDC00F013F8FFF764
:1005700075FF000004130000000000207000002040
:10058000FEE7FEE7FEE7FEE7FEE7FEE7FEE7FEE743
:10059000FEE7FEE7F0B4A64B1B78062B1BD0A54A5E
:1005A000D2F8883043F47003C2F88830BFF34F8F1D
:1005B000BFF36F8F4FF01023D3F80022002AC0F250
:1005C0000581D3F80432002BC0F200819A4B9B4A7C
:1005D0001A60F0BC70479A4B1B681E07DFD1994B1D
:1005E0001B6803F0F003302B02D1974B974A1A6037
:1005F000944B1B6803F0F002302A00F0D68003F021
:10060000E003402B00F0D1808E4B1B6803F0F00319
:10061000302B00F0BB808B4B1B6803F0F002302ABC
:1006200000F0A08003F0E003402B00F09B80854B9E
:100630001B6803F0F003302B00F08680814B1B68B1
:1006400003F0F003302B68D07E4B1B6803F0F003FF
:10065000502B10D07B4B1B6803F0F002302A03D0E4
:1006600003F0E003402B9AD1794B7A4A1B6803F0E0
:100670004F03136093E74FF08052774BD2F8041486
:10068000C3F82015D2F80814C3F82415D2F80C14B6
:10069000C3F82815D2F81014C3F82C15D2F8141486
:1006A000C3F83015D2F81814C3F83415D2F81C1456
:1006B000C3F84015D2F82014C3F84415D2F8241416
:1006C000C3F84815D2F82814C3F84C15D2F82C14E6
:1006D000C3F85015D2F83014C3F85415D2F83414B6
:1006E000C3F86015D2F83814C3F86415D2F83C1476
:1006F000C3F86815D2F84014C3F86C15D2F8442436
:100700004B49C3F870250A78062A7FF448AF4C4B52
:100710001B681B077FF443AF9CE7454B4F491B7891
:100720004F4D5048504A05270F60012600243F21B5
:10073000062B2E60046011607FF431AF404B1B68C4
:100740001A077FF42CAF7FE7394B484A1B78032107
:10075000062B11607FF423AF394B1B6819077FF418
:100760001EAF6BE7324B1B784FF080420021062B07
:10077000C2F80C11C2F81011C2F838157FF40FAF8F
:100780002F4B1B6818077FF40AAF50E73849284AF7
:10079000CB68127823F08073062ACB60B4D1284B43
:1007A0001B681C077FF4FBAE35E7324A204B12680A
:1007B0001B783149C2F34232062B0A607FF4EFAE58
:1007C0001F4B1B681D077FF4EAAE1DE72B4B012270
:1007D000C3F80425D3F80024002AFBD04FF01023DF
:1007E00015222649C3F80022D1F80034002BFBD093
:1007F0004FF0102315222149C3F80422D1F8002418
:100800001E4B002AFAD00022C3F80425D3F8002496
:10081000002AFBD0BFF34F8F0649194BCA6802F478
:10082000E0621343CB60BFF34F8F00BFFDE700BF13
:10083000E00F00F000ED00E0600000200090D00329
:10084000E40F00F0E80F00F074C007400DF0ADBAFF
:1008500058020010E40E004000C000401056004056
:10086000885600401856004014560040A00500402D
:10087000F0ED00E0440200103C05004000E00140C3
:100880000400FA0530B400234FF4F0104FF0A041FB
:10089000032203E0ED0748BF41F824200133202B59
:1008A00040FA03F503F5E074F4D1034B034C04491B
:1008B00018684FF0A04305E0600000200024F40019
:1008C00020A10700D3F80425D54305F4003502F430
:1008D0000032C3F808550D46C3F80C2500BF00BF11
:1008E00000BF00BF00BF00BF00BF00BFA0422FD0AD
:1008F00000BF00BF00BF00BF00BF00BF00BF00BF00
:1009000000BF00BF00BF00BF00BF00BF00BF00BFEF
:1009100000BF00BF00BF00BF00BF00BF00BF00BFDF
:1009200000BF00BF00BF00BF00BF00BF00BF00BFCF
:1009300000BF00BF00BF00BF00BF00BF00BF00BFBF
:1009400000BF00BF00BF00BF00BF00BF00BF00BFAF
:10095000013DC3D1D3F80425D54305F4802502F425
:100960008022C3F808550D46C3F80C2500BF00BF10
:1009700000BF00BF00BF00BF00BF00BFA0422FD01C
:1009800000BF00BF00BF00BF00BF00BF00BF00BF6F
:1009900000BF00BF00BF00BF00BF00BF00BF00BF5F
:1009A00000BF00BF00BF00BF00BF00BF00BF00BF4F
:1009B00000BF00BF00BF00BF00BF00BF00BF00BF3F
:1009C00000BF00BF00BF00BF00BF00BF00BF00BF2F
:1009D00000BF00BF00BF00BF00BF00BF00BF00BF1F
:1009E000013DC3D1D3F80425D54305F4002502F415
:1009F0000022C3F808550D46C3F80C2500BF00BF00
:100A000000BF00BF00BF00BF00BF00BFA0422FD08B
:100A100000BF00BF00BF00BF00BF00BF00BF00BFDE
:100A200000BF00BF00BF00BF00BF00BF00BF00BFCE
:100A300000BF00BF00BF00BF00BF00BF00BF00BFBE
:100A400000BF00BF00BF00BF00BF00BF00BF00BFAE
:100A500000BF00BF00BF00BF00BF00BF00BF00BF9E
:100A600000BF00BF00BF00BF00BF00BF00BF00BF8E
:100A7000013DC3D1D3F80425D54305F4801502F414
:100A80008012C3F808550D46C3F80C2500BF00BFFF
:100A900000BF00BF00BF00BF00BF00BFA0422FD0FB
:100AA00000BF00BF00BF00BF00BF00BF00BF00BF4E
:100AB00000BF00BF00BF00BF00BF00BF00BF00BF3E
:100AC00000BF00BF00BF00BF00BF00BF00BF00BF2E
:100AD00000BF00BF00BF00BF00BF00BF00BF00BF1E
:100AE00000BF00BF00BF00BF00BF00BF00BF00BF0E
:100AF00000BF00BF00BF00BF00BF00BF00BF00BFFE
:100B0000013DC3D1DEE600BF00B585B000230390F0
:100B1000194601AA44F20100ADF80430029300F036
:100B200003F805B05DF804FBBFF34F8F0549064B92
:100B3000CA6802F4E0621343CB60BFF34F8F00BF7B
:100B4000FDE700BF00ED00E00400FA052DE9F843E1
:100B5000274A284B0025C2F84051C2F84451C2F838
:100B60004851C2F84C51C2F80051C2F804511B68F8
:100B70001BB32149D2F804250C68204F141B1A68B6
:100B800024F07F44A242A84609D8197CDE69A41A41
:100B90001544A1B91EB133461A68A242F5D9184BC3
:100BA00018491A780B789A421BD01749174A41F80E
:100BB00023504FF48013C2F80031BDE8F883D3F816
:100BC000149083F810803A689B69484619462AB108
:100BD00090470028DED0FFF797FFDBE71846C847AD
:100BE000D8E7531CDBB2022B08BF00230B70DCE7F5
:100BF00000100140900000208C0000209400002094
:100C00009800002099000020A400002000E100E0EE
:100C10002DE9F04FA44AA54913780978A44889B072
:100C200000680090994200F0EB800133DBB2022BA8
:100C300008BF002313709F4A52F82360009B9C4A10
:100C4000334423F07F4313604FF0010E9A4B079615
:100C500093F800A0994BCDF818A0D3F80090964BCC
:100C60005B7801931D46944BD3F804B09B780293B4
:100C70001C46934B1B7804938D4B00271B680393F2
:100C800051464A464B460597BC4638462646B84626
:100C9000A9421AD001EB410401311BF83470C9B2EA
:100CA000B14208BF0021022F0BEBC40400F0838087
:100CB000032FEDD1002BEBD0DA6918741346002A0C
:100CC000FAD1A9424FF0010CE4D1DDF818A0079E3B
:100CD0004746BCF1000F40F0A380059A12B1744A58
:100CE00003991160002F40F09C82BEF1000F40F08C
:100CF000C681B9EB030218BF01220792059375461E
:100D00001E466B4ACDF810B0D2F800C06B4ADFF82F
:100D1000B891D646D2F800A0694A00231278009311
:100D20001F4606924FF001089B463DB36A68A968CA
:100D30002C46ED69CCEB020323F07F434B4572D880
:100D40000B4423606760A76084F81080E761002E81
:100D500000F08B80316899427ED2304603E0116802
:100D6000994269D21046C2695B1A002AF7D1236002
:100D7000E2613346C4611E46002DD7D1019B9E45DA
:100D800000F0A4800EEB4E03049911F83320039277
:100D900010460EF1010E029A5FFA8EFE724508BFF0
:100DA0004FF0000E012801EBC30364D0334601224B
:100DB00000921E46E0E76468002B3FF469AF9C4256
:100DC0009A4601D115E0BA46DAF81C70002F3FF4BC
:100DD0005FAFBC42F7D1BA450CD0FC693F68CAF896
:100DE0001C40002C3FF454AF23683B44236013465F
:100DF0004EE71F46DA6932B113464FF0010CECE7BB
:100E00000026B64622E72F4B4FF00108C3F80880B2
:100E1000C44613460392CDF81080CDF81480DCE769
:100E200026490A6059E7C2EB0C0222F07F428A424F
:100E300009D28B1A236085E7C91A11602360E26129
:100E40003346C46197E727606760A76084F8108025
:100E5000E76156B131680023CB1A33602346E6615F
:100E6000A2464FF0010B1E4686E72346A2464FF0EE
:100E7000010B1E4680E75C68227C009282B99A686A
:100E80006260D968A1601869E0605B69A361069B34
:100E9000002B00F0F180009A626000932A4649E737
:100EA00033461E4668E700BF9800002099000020E6
:100EB0008C000020A40000209C0000209000002056
:100EC0009A00002000100140FEFF7F00009B5A4660
:100ED000002B40F0AE8112B1824BC3F800A0059BFD
:100EE000B34200F0BF80002E00F00A817E497F4CA3
:100EF000D1F8040525783368CCEB000222F07F425C
:100F00000332002D50D17A4DDFF8ECE1794F4FF4E8
:100F10008036C1F84463C1F804634FF40036C5F865
:100F200080612E6001250D60DEF800602F2100BF7A
:100F300000BF00BF00BF00BF00BF00BF00BFBE4278
:100F40002FD000BF00BF00BF00BF00BF00BF00BF69
:100F500000BF00BF00BF00BF00BF00BF00BF00BF99
:100F600000BF00BF00BF00BF00BF00BF00BF00BF89
:100F700000BF00BF00BF00BF00BF00BF00BF00BF79
:100F800000BF00BF00BF00BF00BF00BF00BF00BF69
:100F900000BF00BF00BF00BF00BF00BF00BF00BF59
:100FA00000BF0139C3D1257093422CBF9C449444A7
:100FB0004D492CF07F43C1F84035D1F80425121A71
:100FC0001B1A22F07F4223F07F4303329A424DD90D
:100FD000D1F80435484AC1F84035126845492F23F5
:100FE00000BF00BF00BF00BF00BF00BF00BF00BF09
:100FF0008A422FD000BF00BF00BF00BF00BF00BFAC
:1010000000BF00BF00BF00BF00BF00BF00BF00BFE8
:1010100000BF00BF00BF00BF00BF00BF00BF00BFD8
:1010200000BF00BF00BF00BF00BF00BF00BF00BFC8
:1010300000BF00BF00BF00BF00BF00BF00BF00BFB8
:1010400000BF00BF00BF00BF00BF00BF00BF00BFA8
:1010500000BF00BF013BC3D1254B4FF40032C3F8A2
:10106000002103E0079B002B7FF43DAF234A0023C0
:10107000137009B0BDE8F08F039B00935AE6194A3C
:10108000DDF800C017680020054601460446ABB1F4
:101090001A68B2421BD8D8681C60B61A1144DA69C3
:1010A00038B10CEB010727F07F47DD6198605F6086
:1010B0001D46134617467046002BE9D1002840F024
:1010C000BC800023059301230793059E19E60028A1
:1010D00040F0AC80921B05931A6001230793059E94
:1010E0000FE600BF9000002000100140AC0000207F
:1010F00000E100E00024F400600000209A000020DD
:101100004F4A504B504D51484FF480314FF4003707
:101110000124C3F88070C2F848132F23C2F80813C3
:10112000546029681D4600BF00BF00BF00BF00BF5C
:1011300000BF00BF00BF81422FD000BF00BF00BF73
:1011400000BF00BF00BF00BF00BF00BF00BF00BFA7
:1011500000BF00BF00BF00BF00BF00BF00BF00BF97
:1011600000BF00BF00BF00BF00BF00BF00BF00BF87
:1011700000BF00BF00BF00BF00BF00BF00BF00BF77
:1011800000BF00BF00BF00BF00BF00BF00BF00BF67
:1011900000BF00BF00BF00BF00BF013DC3D19460CE
:1011A0002B4A166000BF00BF00BF00BF00BF00BFDA
:1011B00000BF00BF81422FD000BF00BF00BF00BFF3
:1011C00000BF00BF00BF00BF00BF00BF00BF00BF27
:1011D00000BF00BF00BF00BF00BF00BF00BF00BF17
:1011E00000BF00BF00BF00BF00BF00BF00BF00BF07
:1011F00000BF00BF00BF00BF00BF00BF00BF00BFF7
:1012000000BF00BF00BF00BF00BF00BF00BF00BFE6
:1012100000BF00BF00BF00BF013BC3D10D4B1E701C
:1012200024E70D4A9DF8101011705EE50B490F6020
:1012300050E70B4B83F800E04DE6084B1F6040E79A
:101240000010014000E100E0600000200024F400F4
:101250008C000020AC0000209A00002090000020AC
:101260009C00002010B51A4B1A6882B0A2B100226F
:101270001A601B6800934FF080430122154C0099BF
:10128000C3F80823A368627033B10CCB0020A260BE
:101290009847A368002BF8D10F4B1A68AAB1002217
:1012A0001A601B6801934FF080430222094C019998
:1012B000C3F8082323690122A27033B10CCB0120AB
:1012C000226198472369002BF8D102B010BD00BFFE
:1012D00000010040B000002004010040F8B500BF4C
:1012E000F8BC08BC9E467047F8B500BFF8BC08BC07
:0C12F0009E467047000000200000000037
:0812FC0060F1FF7F010000001A
:1013040000000000000000000000000000000000D9
:1013140000000000000000000000000000000000C9
:1013240000000000000000000000000000000000B9
:1013340000000000000000000000000000000000A9
:101344000000000000000000000000000000000099
:101354000000000000000000000000000000000089
:101364000090D003250400000104000000000000E8
:04000003000005599B
:00000001FF
