:020000021000EC
:10F000000000012081020200A9020200AB020200FE
:10F01000AD020200AF020200B102020000000000D7
:10F02000000000000000000000000000B302020029
:10F03000B502020000000000B7020200B90202009F
:10F0400039000200BB020200BB020200BB02020048
:10F05000BB020200BB020200BB020200BB020200B4
:10F06000BB020200BB020200BB020200BB020200A4
:10F07000BB020200BB020200BB020200BB02020094
:10F08000BB02020005FF0100BB020200BB0202003E
:10F0900045FF0100BB02020011090200BB02020091
:10F0A000BB020200BB020200BB020200BB02020064
:10F0B000BB020200BB0202000000000000000000D2
:10F0C000BB020200BB020200BB020200BB02020044
:10F0D000BB020200BB020200BB02020000000000F3
:10F0E0000000000000000000000000000000000020
:10F0F0000000000000000000000000000000000010
:10F1000000000000000000000000000000000000FF
:10F1100000000000000000000000000000000000EF
:10F4000010B5054C237833B9044B13B10448AFF35E
:10F4100000800123237010BD38140020000000007C
:10F4200068090200084B10B51BB108490848AFF342
:10F4300000800848036803B910BD074B002BFBD0C0
:10F44000BDE81040184700BF000000003C14002039
:10F45000680902003414002000000000154B002B46
:10F4600008BF134B9D46A3F5803A00218B460F46FB
:10F470001348144A121A00F065F80F4B002B00D005
:10F4800098470E4B002B00D0984700200021040025
:10F490000D000D48002802D00C48AFF3008000F0AA
:10F4A0002BF82000290000F0A1FE00F011F800BFA9
:10F4B0000000080000000120000000000000000023
:10F4C00038140020A41400200000000000000000F8
:10F4D00008B5074B044613B10021AFF30080054B7C
:10F4E0001868836A03B19847204600F033F800BFDC
:10F4F000000000006009020070B50E4B0E4CE41ACB
:10F50000A41000251E46A54204D056F82530984781
:10F510000135F8E701F018FA084C094BE41AA41079
:10F5200000251E46A54204D056F8253098470135DF
:10F53000F8E770BD2C1400202C140020301400209B
:10F540002C14002002440346934202D003F8011B0E
:10F55000FAE77047FEE700BF80B586B000AF78607D
:10F560000023BB8100233B617B687B6107F10C03B7
:10F570001A46002144F2010000F018F800BF1837C5
:10F58000BD4680BD80B400AFBFF34F8F0549054B2A
:10F59000DB6803F4E062044B1343CB60BFF34F8F8F
:10F5A00000BFFDE700ED00E00400FA0580B584B07F
:10F5B00000AFF860B9607A60FFF7E4FF00BF103772
:10F5C000BD4680BD80B483B000AF0346FB710949DE
:10F5D00097F907305B09FA7902F01F02012000FA5F
:10F5E00002F241F8232000BF0C37BD465DF8047BD2
:10F5F000704700BF00E100E080B483B000AF034675
:10F60000FB71094997F907305B09FA7902F01F028B
:10F61000012000FA02F2203341F8232000BF0C370A
:10F62000BD465DF8047B704700E100E080B483B024
:10F6300000AF0346FB71094997F907305B09FA7976
:10F6400002F01F02012000FA02F2403341F82320A9
:10F6500000BF0C37BD465DF8047B704700E100E059
:10F6600080B483B000AF0346FB71094997F90730B6
:10F670005B09FA7902F01F02012000FA02F26033FE
:10F6800041F8232000BF0C37BD465DF8047B70476E
:10F6900000E100E080B485B000AF7860254BFB60EE
:10F6A0007B68002B40D0244B1A68F9687B6800BF48
:10F6B00000BF00BF00BF00BF00BF00BF00BF8A4245
:10F6C0002FD000BF00BF00BF00BF00BF00BF00BF02
:10F6D00000BF00BF00BF00BF00BF00BF00BF00BF32
:10F6E00000BF00BF00BF00BF00BF00BF00BF00BF22
:10F6F00000BF00BF00BF00BF00BF00BF00BF00BF12
:10F7000000BF00BF00BF00BF00BF00BF00BF00BF01
:10F7100000BF00BF00BF00BF00BF00BF00BF00BFF1
:10F7200000BF013BC3D17B6000BF1437BD465DF80D
:10F73000047B70470024F4002814002080B500AF3B
:10F740000D4B4FF48032C3F844230B4B4FF48032FF
:10F75000C3F804231120FFF783FF1120FFF732FFC6
:10F76000054B01221A602F20FFF794FF034B012263
:10F770001A7000BF80BD00BF00100140741400204B
:10F7800080B500AF1120FFF737FF0F4B4FF48032E9
:10F79000C3F848230C4B4FF48032C3F808230A4BBC
:10F7A00001225A602F20FFF775FF074B01229A6054
:10F7B000064B00221A602F20FFF76CFF044B00223B
:10F7C0001A7000BF80BD00BF00100140601400200F
:10F7D0007414002080B400AF034BD3F804351846EE
:10F7E000BD465DF8047B70470010014080B483B0D3
:10F7F00000AF786039607A683B68D31A23F07F43A2
:10F8000018460C37BD465DF8047B704780B483B062
:10F8100000AF7860044A7B68C2F8403500BF0C37FF
:10F82000BD465DF8047B70470010014080B487B08E
:10F8300000AF7860294B1B68002B03D1274A7B68F7
:10F84000136045E07B681A68244B1B681B689A426A
:10F8500010D8224B1B68214A126811687A68126816
:10F860008A1A1A601D4B1A687B68DA611B4A7B682A
:10F8700013602DE07B681B68FB60184B1B687B6185
:10F88000164B1B683B6109E03B691B68FA68D31A99
:10F89000FB603B697B613B69DB693B613B69002B3A
:10F8A00004D03B691A68FB689A42EDD33B69002B90
:10F8B00005D03B691A68FB68D21A3B691A607B68FD
:10F8C000FA681A607B683A69DA617B697A68DA619A
:10F8D00000BF1C37BD465DF8047B70475C140020F8
:10F8E00080B487B000AF7860234B1B687B617B6975
:10F8F0003B6108E03A697B689A4208D03B697B61CA
:10F900003B69DB693B613B69002BF3D100E000BF41
:10F910003B69002B29D07A693B699A4211D1164B79
:10F920001B68DB69144A1360134B1B68002B08D15A
:10F93000124B01229A60124B00221A60114B0122D5
:10F940001A703B691B68FB603B69DA697B69DA61A5
:10F950007B69DB693B613B69002B07D03B691A6817
:10F96000FB681A443B691A6000E000BF1C37BD46C3
:10F970005DF8047B704700BF5C140020001001405C
:10F98000601400207514002080B500AF1120FFF72F
:10F990004DFE00BF80BD00BF80B500AF1420FFF753
:10F9A00045FE00BF80BD00BF80B584B000AF786069
:10F9B0000F4B1B68002B11D00D4B1B687A685069E8
:10F9C0007A68926911469847F860FB68BB60BB682B
:10F9D000002B09D0B868FFF7BFFD05E07B685B69C5
:10F9E0007A6892691046984700BF1037BD4680BDBF
:10F9F0007014002080B584B000AF2B4B1B68002B27
:10FA00004ED000237B60FFF7E5FE0246274B1B68C4
:10FA100019461046FFF7EAFEB860234B1B68FB60EF
:10FA20001DE0FB681A68BB689A421CD8FB681B681B
:10FA3000BA68D31ABB60FB681B687A6813447B60A2
:10FA4000FB683B60FB68DB69FB603B681B7C002B51
:10FA500005D03B6800221A743868FFF7A5FFFB68E1
:10FA6000002BDED100E000BF114B1A78114B1B7840
:10FA70009A420CD10F4B1B780133DAB20D4B1A703E
:10FA80000C4B1B78022B02D10A4B00221A70094B37
:10FA90001B781946084A7B6842F82130FFF77CFF43
:10FAA00000BF1037BD4680BD5C14002060140020EC
:10FAB0006C1400206D1400206414002080B483B006
:10FAC00000AF7860194B1A78194B1B789A4223D0F3
:10FAD000164B1B780133DAB2144B1A70134B1B7898
:10FAE000022B02D1114B00221A70104B1B781A46C0
:10FAF000104B53F822207B681A607B681A680E4B03
:10FB00001B6813440C4A13600B4B1B6823F07F43A4
:10FB1000094A1360012303E07B6800221A60002376
:10FB200018460C37BD465DF8047B70476C14002006
:10FB30006D140020641400206014002080B584B08F
:10FB400000AF244B1B78FB73234B1B68BB602FE07B
:10FB5000204B5968FA7B13465B001344DB000B44CF
:10FB60007B60FB7B0133FB731A4B9B78FA7B9A42D9
:10FB700001D10023FB737B681B78022B02D0032B7F
:10FB800010D014E07B685B681846FFF7A9FE0FE011
:10FB9000114B1B683B603B6800221A743B68DB69B1
:10FBA0000D4A13600C4B1B68002BF1D100E000BF25
:10FBB000084B5B78FA7B9A42CAD1074B1A68BB683C
:10FBC0009A4214BF01230023DBB218461037BD460A
:10FBD00080BD00BF541400205C14002080B489B0A4
:10FBE00000AFF860B9607A600023FB6138E0214B18
:10FBF0001B68BB61BB691A68FB689A4206D9BB697E
:10FC00001A68FB68D21ABB691A602DE0BB691B68D1
:10FC1000FA68D31AFB60BB691B68FA691344FB617D
:10FC2000BB6900221A60134B1B687B61BB69DB69EF
:10FC3000104A1360BB69DB68002B11D0BA68FB69FE
:10FC4000134423F07F42BB695A60BB69DA68BB6921
:10FC50009A607B681A68BB69DA617B687A691A60A6
:10FC6000044B1B68002BC2D100BF2437BD465DF892
:10FC7000047B70475C14002080B586B000AF7860CC
:10FC8000504B1B683B6185E07B68002B05D07B688F
:10FC90007B617B69DB697B603CE04B4B5A684A4B7C
:10FCA0001B7819460B465B000B44DB001344FB60DA
:10FCB000454B1B780133DAB2434B1A70424B1A782A
:10FCC000414B9B789A4202D13F4B00221A70FB684D
:10FCD0005B687B61FB681B78012B5BD17B691B7CBC
:10FCE000002B00D056E0FB689A687B695A60FB687D
:10FCF000DA687B699A60FB681A697B69DA60FB687D
:10FD00005A697B699A61314B1B78002B02D07B6961
:10FD100000225A607B695A682D4B1B68D31A23F066
:10FD20007F432C4A93420ED87B695A68284B1B6844
:10FD300019461046FFF75AFD02467B699B681A4434
:10FD40007B691A6017E0224B1A687B695B68194669
:10FD50001046FFF74BFDB8607B699A68BB689A4212
:10FD600006D97B699A68BB68D21A7B691A6002E07F
:10FD70007B6900221A607B6900225A607B6900223D
:10FD80009A607B6901221A747B690022DA617869C2
:10FD9000FFF74CFD7B68002B7FF476AF0A4B1A7897
:10FDA000094B5B789A427FF46FAF064B1A683B6948
:10FDB0009A4214BF01230023DBB218461837BD4610
:10FDC00080BD00BF5C140020541400207514002076
:10FDD00060140020FEFF7F0090B589B000AF78600E
:10FDE000274B1B68002B44D0254B1B681B68FB610D
:10FDF000FFF7F0FCB861234B1B687B617969B86938
:10FE0000FFF7F4FC034603333B611F4B1B7883F081
:10FE10000103DBB2002B01D0FFF790FC3A69FB69CC
:10FE2000934238BF13467A6913447B617B6923F0A0
:10FE30007F437B617869FFF7E9FCFFF7CBFCF86053
:10FE4000B969F868FFF7D2FC0346DC1CB969786928
:10FE5000FFF7CCFC03469C420DD9FFF7BBFC0346E1
:10FE60001846FFF7D3FC2F20FFF714FCFFF78CFD9B
:10FE700001E0FFF785FC00BF2437BD4690BD00BF01
:10FE80005C140020601400207414002080B586B03B
:10FE900000AF00237B60184B1B683B61174B1B684E
:10FEA000FB603B461846FFF709FE0346FB72FFF76F
:10FEB00045FE0346FB75FB7A002B07D03B683A1DD5
:10FEC00039691846FFF78AFE0123FB757B681846DF
:10FED000FFF7D2FE0346002B01D00123FB75FB7D0B
:10FEE000002B02D0F868FFF777FF054B00221A704D
:10FEF00000BF1837BD4680BD601400205C14002090
:10FF00007514002080B500AF0D4B0022C3F84021CE
:10FF10000B4B0022C3F84421094B0022C3F84821AF
:10FF2000074B0022C3F84C21054B0022C3F80021E7
:10FF3000034B0022C3F80421FFF75CFD00BF80BD26
:10FF40000010014080B500AFFFF7A0FF00BF80BDEB
:10FF500080B483B000AF78604FF080427B68C2F815
:10FF6000083300BF0C37BD465DF8047B704700BF07
:10FF700080B485B000AF0346FB80FB8803F180436B
:10FF800000221A60FB8803F180431B68FB60FB685A
:10FF900000BF1437BD465DF8047B704780B483B062
:10FFA00000AF0346FB80FB8803F180431B68002BF6
:10FFB00014BF01230023DBB218460C37BD465DF8A1
:10FFC000047B704780B485B000AF78607B681B68A5
:10FFD000FB60FB68002B03D0FB681A687B681A6023
:10FFE000FB6818461437BD465DF8047B704700BFB8
:10FFF00080B584B000AF0346FB71FB79002B02D1C2
:020000022000DC
:100000000B4BFB6001E00B4BFB60F868FFF7DAFF7E
:10001000B860BB68002B05D0BB685B68FA791046F6
:100020009847F2E700BF00BF1037BD4680BD00BF54
:10003000801400208814002080B500AF4FF4807039
:10004000FFF7ACFF0346002B0CD04FF48070FFF796
:100050008FFF0120FFF77CFF0D4B01225A7000201B
:10006000FFF7C6FF4FF48270FFF798FF0346002B9F
:100070000CD04FF48270FFF77BFF0220FFF768FF80
:10008000034B01229A700120FFF7B2FF00BF80BD31
:100090007814002080B582B000AF78607B68002BB8
:1000A00002D10020FFF7A4FF00BF0837BD4680BD86
:1000B00080B485B000AF7860254BFB607B68002B77
:1000C00040D0244B1A68F9687B6800BF00BF00BFAE
:1000D00000BF00BF00BF00BF00BF8A422FD000BFDB
:1000E00000BF00BF00BF00BF00BF00BF00BF00BF18
:1000F00000BF00BF00BF00BF00BF00BF00BF00BF08
:1001000000BF00BF00BF00BF00BF00BF00BF00BFF7
:1001100000BF00BF00BF00BF00BF00BF00BF00BFE7
:1001200000BF00BF00BF00BF00BF00BF00BF00BFD7
:1001300000BF00BF00BF00BF00BF00BF00BF013B4A
:10014000C3D17B6000BF1437BD465DF8047B7047A8
:100150000024F4002814002080B582B000AF78603D
:100160007B684FF47A7202FB03F31846FFF7A0FF97
:1001700000BF0837BD4680BD80B483B000AF786053
:10018000084611461A460346FB700B46BB701346E1
:100190007B704FF0A041FA78BB785B001A437B7804
:1001A0009B001A433B7C1B021A433B7D1B041A43F2
:1001B0007B6803F5E07341F8232000BF0C37BD4690
:1001C0005DF8047B704700BF80B584B002AF7860F3
:1001D000002301930023009300230122012178686A
:1001E000FFF7CAFF00BF0837BD4680BD80B584B0A9
:1001F00000AF0023FB600EE04FF4F012FB6842FA00
:1002000003F303F00103002B02D0F868FFF7DCFFD3
:10021000FB680133FB60FB681F2BEDD90023BB603B
:1002200028E04FF0A043D3F804357B604FF0A042A4
:100230001249BB680B441B78194601238B401946B1
:100240007B68DB430B40C2F808354FF0A0420B49F6
:10025000BB680B441B78194601238B4019467B6809
:100260000B40C2F80C354FF4FA70FFF775FFBB680E
:100270000133BB60BB68032BD3DDCFE76409020009
:100280000649074A074B9B1A03DD043BC858D05068
:10029000FBDC00F035F8FFF7E1F80000740902001C
:1002A000C813002038140020FEE7FEE7FEE7FEE753
:1002B000FEE7FEE7FEE7FEE7FEE7FEE780B400AFFD
:1002C000BFF34F8F0549054BDB6803F4E062044B35
:1002D0001343CB60BFF34F8F00BFFDE700ED00E09D
:1002E0000400FA0580B400AF034B044A1A6000BF53
:1002F000BD465DF8047B7047281400200090D003B1
:1003000080B500AF00F038F90346002B02D08B4BCC
:100310008B4A1A6000F052F90346002B06D0894A36
:10032000894B1B6803F460435B0B136000F078F9A2
:100330000346002B05D0854A844BDB6823F080738D
:10034000D36000F08FF90346002B0ED04FF08043AE
:100350000022C3F80C214FF080430022C3F8102183
:100360004FF080430022C3F8382500F0ADF9034672
:10037000002B02D0764B03221A6000F0C7F9034627
:10038000002B0BD0734B05221A60734B01221A60AD
:10039000724B00221A60724B3F221A6000F0D8F9AB
:1003A0000346002B76D06F4A4FF08053D3F80434C5
:1003B000C2F820356B4A4FF08053D3F80834C2F8A6
:1003C0002435684A4FF08053D3F80C34C2F82835EE
:1003D000644A4FF08053D3F81034C2F82C35614A88
:1003E0004FF08053D3F81434C2F830355D4A4FF0E3
:1003F0008053D3F81834C2F834355A4A4FF080533A
:10040000D3F81C34C2F84035564A4FF08053D3F825
:100410002034C2F84435534A4FF08053D3F8243483
:10042000C2F848354F4A4FF08053D3F82834C2F809
:100430004C354C4A4FF08053D3F82C34C2F8503529
:10044000484A4FF08053D3F83034C2F85435454A07
:100450004FF08053D3F83434C2F86035414A4FF03E
:100460008053D3F83834C2F864353E4A4FF0805395
:10047000D3F83C34C2F868353A4A4FF08053D3F889
:100480004034C2F86C35374A4FF08053D3F84434C7
:10049000C2F8703500F07EF90346002B05D0324AD1
:1004A000324B1B6803F04F031360314A304BD3F8D3
:1004B000883043F47003C2F88830BFF34F8FBFF326
:1004C0006F8F4FF01023D3F80032002B05DB4FF075
:1004D0001023D3F80432002B2BDA264B0122C3F869
:1004E000042500BF234BD3F80034002BFAD04FF083
:1004F00010231522C3F8002200BF1E4BD3F800348E
:10050000002BFAD04FF010231522C3F8042200BFAD
:10051000184BD3F80034002BFAD0164B0022C3F846
:10052000042500BF134BD3F80034002BFAD0FFF79B
:10053000C5FEFFF7D7FE00BF80BD00BF74C00740F7
:100540000DF0ADBA3C05004044020010F0ED00E0B3
:10055000A005004010560040885600401856004044
:100560001456004000C00040E40E00405802001045
:1005700000ED00E000E0014080B400AF0C4B1B68D0
:10058000DBB2062B0DD10B4B1B6803F00F03002BC6
:1005900007D1094B1B6803F0F003302B01D1012375
:1005A00000E000231846BD465DF8047B704700BF9D
:1005B000E00F00F0E40F00F0E80F00F080B400AFAF
:1005C000144B1B68DBB2062B1DD1134B1B6803F0C9
:1005D0000F03002B17D1114B1B6803F0F003302BD6
:1005E00001D1012310E00D4B1B6803F0F003402BF9
:1005F00001D1012308E0094B1B6803F0F003502BE5
:1006000001D1012300E000231846BD465DF8047BBC
:10061000704700BFE00F00F0E40F00F0E80F00F0BB
:1006200080B400AF0C4B1B68DBB2062B0DD10B4B1B
:100630001B6803F00F03002B07D1094B1B6803F065
:10064000F003302B01D1012300E000231846BD4602
:100650005DF8047B704700BFE00F00F0E40F00F08E
:10066000E80F00F080B400AF144B1B68DBB2062B20
:100670001DD1134B1B6803F00F03002B17D1114B37
:100680001B6803F0F003302B01D1012310E00D4B68
:100690001B6803F0F003402B01D1012308E0094B54
:1006A0001B6803F0F003502B01D1012300E000236D
:1006B0001846BD465DF8047B704700BFE00F00F0B0
:1006C000E40F00F0E80F00F080B400AF0C4B1B68A3
:1006D000DBB2062B0DD10B4B1B6803F00F03002B75
:1006E00007D1094B1B6803F0F003302B01D1012324
:1006F00000E000231846BD465DF8047B704700BF4C
:10070000E00F00F0E40F00F0E80F00F080B400AF5D
:100710000C4B1B68DBB2062B0DD10B4B1B6803F097
:100720000F03002B07D1094B1B6803F0F003302B9C
:1007300001D1012300E000231846BD465DF8047B8B
:10074000704700BFE00F00F0E40F00F0E80F00F08A
:1007500080B400AF0C4B1B68DBB2062B0DD10B4BEA
:100760001B6803F00F03002B07D1094B1B6803F034
:10077000F003502B01D1012300E000231846BD46B1
:100780005DF8047B704700BFE00F00F0E40F00F05D
:10079000E80F00F080B400AF144B1B68DBB2062BEF
:1007A0001DD1134B1B6803F00F03002B17D1114B06
:1007B0001B6803F0F003302B01D1012310E00D4B37
:1007C0001B6803F0F003402B01D1012308E0094B23
:1007D0001B6803F0F003502B01D1012300E000233C
:1007E0001846BD465DF8047B704700BFE00F00F07F
:1007F000E40F00F0E80F00F048DF704700BF184634
:1008000061DF704700BF184680B584B000AF3A4B37
:100810001B78DBB283F00103DBB2002B62D1002333
:10082000FB73364B1B68002B0CBF01230023BB73EB
:10083000FB7B83F00103DBB2002B23D0304B1B7812
:10084000DBB2002B50D13B1D1846FFF7D5FFB86037
:10085000BB68052B02D10123FB7313E0BB68002B9F
:1008600003D0B868FEF778FE0CE07B681846FFF707
:1008700011FC244B1B68002B04D0224B1B687A68A8
:1008800010469847BB7B83F00103DBB2002B22D0DC
:100890001B4B1B78DBB2002B28D11B4B1B887B80AA
:1008A0001A4B1B68BA1C11461846FFF7A9FFB8601F
:1008B000BB68052B02D10123BB730CE0BB68002B86
:1008C00003D0B868FEF748FE05E00C4B1B680F4AE2
:1008D000126810469847FB7B002BA9D0BB7B002BEE
:1008E00006D1A5E700BF04E000BF02E000BF00E0C2
:1008F00000BF1037BD4680BD901400209C1400201E
:1009000091140020A01400209814002094140020BA
:1009100080B582B000AF0B4B1B68002B0CD0094B8D
:100920001B68984778607B683B603B68002B05D06C
:100930003868FEF711FE01E0FFF766FF00BF0837D9
:10094000BD4680BD8C140020F8B500BFF8BC08BCC3
:100950009E467047F8B500BFF8BC08BC9E4670477D
:0C096000C8130020111213140000000046
:08096C00F0EAFF7F010000002A
:100974000000000000000000000000000000000073
:100984000000000000000000000000000000000063
:100994000000000000000000000000000000000053
:1009A4000000000000000000000000000000000043
:1009B4000000000000000000000000000000000033
:1009C4000000000000000000000000000000000023
:1009D4000090D00325F4010001F4010000000000A0
:040000032000028156
:00000001FF
